:020000040800F2
:1000000000000220651C0008191400081B140008D9
:100010001D1400081F14000821140008000000002F
:100020000000000000000000000000002314000891
:1000300025140008000000002714000829140008F7
:10004000B51C0008B51C0008B51C0008B51C00084C
:10005000B51C0008B51C0008B51C0008B51C00083C
:10006000B51C0008B51C0008B51C0008B51C00082C
:10007000B51C0008B51C000831140008B51C0008A8
:100080004114000851140008B51C0008B51C0008F4
:10009000B51C0008B51C0008B51C0008B51C0008FC
:1000A000B51C0008B51C0008B51C0008B51C0008EC
:1000B000B51C0008B51C0008B51C0008B51C0008DC
:1000C000B51C0008B51C0008B51C0008B51C0008CC
:1000D00061140008B51C000871140008B51C000864
:1000E000B51C0008B51C0008B51C0008B51C0008AC
:1000F000B51C0008B51C0008B51C000881140008D8
:10010000B51C0008B51C0008B51C000891140008B7
:10011000B51C0008B51C0008B51C0008B51C00087B
:10012000B51C0008B51C0008B51C0008B51C00086B
:10013000B51C0008B51C0008B51C0008B51C00085B
:10014000B51C0008B51C0008B51C0008A114000867
:10015000B51C0008B51C0008B51C0008B51C00083B
:10016000B51C0008B51C0008B51C0008B51C00082B
:10017000B51C0008B51C0008B51C000800000000F4
:08018000B51C0008AB140008D7
:1001C00053B94AB9002908BF00281CBF4FF0FF31BE
:1001D0004FF0FF3000F00CB8ADF1080C6DE904CE23
:1001E00009F0D4FFDDF804E0DDE9022304B0704734
:1001F000704700BF844641EA000313F003036DD14A
:10020000403A41D351F8043B40F8043B51F8043BD9
:1002100040F8043B51F8043B40F8043B51F8043BE0
:1002200040F8043B51F8043B40F8043B51F8043BD0
:1002300040F8043B51F8043B40F8043B51F8043BC0
:1002400040F8043B51F8043B40F8043B51F8043BB0
:1002500040F8043B51F8043B40F8043B51F8043BA0
:1002600040F8043B51F8043B40F8043B51F8043B90
:1002700040F8043B51F8043B40F8043B51F8043B80
:1002800040F8043B403ABDD2303211D351F8043B20
:1002900040F8043B51F8043B40F8043B51F8043B60
:1002A00040F8043B51F8043B40F8043B103AEDD2CF
:1002B0000C3205D351F8043B40F8043B043AF9D220
:1002C000043208D0D2071CBF11F8013B00F8013BF3
:1002D00001D30B8803806046704700BF082A13D300
:1002E0008B078DD010F003038AD0C3F10403D21A18
:1002F000DB071CBF11F8013B00F8013B80D331F84C
:10030000023B20F8023B7BE7043AD9D3013A11F8CB
:10031000013B00F8013BF9D20B7803704B78437036
:100320008B7883706046704700000000000000007A
:1003300000000000000000000000000000000000BD
:1003400090F800F06DE9024520F007016FF0000C15
:1003500010F0070491F820F040F049804FF00004BD
:100360006FF00700D1E9002391F840F000F1080098
:1003700082FA4CF2A4FA8CF283FA4CF3A2FA8CF3D0
:100380004BBBD1E9022382FA4CF200F10800A4FA37
:100390008CF283FA4CF3A2FA8CF3E3B9D1E904238B
:1003A00082FA4CF200F10800A4FA8CF283FA4CF3C2
:1003B000A2FA8CF37BB9D1E9062301F1200182FA7C
:1003C0004CF200F10800A4FA8CF283FA4CF3A2FA82
:1003D0008CF3002BC6D0002A04BF04301A4612BA90
:1003E000B2FA82F2FDE8024500EBD2007047D1E993
:1003F000002304F00305C4F100004FEAC50514F022
:10040000040F91F840F00CFA05F562EA05021CBFF2
:1004100063EA050362464FF00004A9E70348044B72
:10042000834202D0034B03B1184770477805002080
:1004300078050020000000000548064B1B1AD90F64
:1004400001EBA301491002D0034B03B118477047D9
:1004500078050020780500200000000010B5064C4B
:10046000237843B9FFF7DAFF044B13B10448AFF325
:1004700000800123237010BD7905002000000000DA
:1004800024BB000808B5054B1BB105490548AFF36F
:100490000080BDE80840FFF7CFBF00BF00000000AC
:1004A0007C05002024BB000808B500F089FF00206F
:1004B00008BD000070B564291AD8C1EB0121154BA5
:1004C00083FB0123C917C1EB6312D2B2E62A11D90B
:1004D000C5B21932D4B2224620212846FFF7E4FFE4
:1004E0000646224621212846FFF7DEFF304470BD34
:1004F000FF22EDE7C5B21932D4B2224620212846A8
:10050000FFF7D2FF0646224621212846FFF7CCFFFF
:100510003044ECE71F85EB512DE9F04107460E46CC
:10052000904600F01BFFFCB2012202212046FFF79B
:10053000BBFF0546731E032B52D8DFE803F00245CC
:10054000494D334BFA221A70314B1A780421204658
:10055000FFF7AAFF0544812205212046FFF7A4FFEB
:100560000544042206212046FFF79EFF054441462C
:100570003846FFF79FFF0544022E35D100220A219D
:100580002046FFF791FF054404220E212046FFF785
:100590008BFF0544002227212046FFF785FF0544F5
:1005A0000F221F212046FFF77FFF05440A221A2150
:1005B0002046FFF779FF05440A221B212046FFF75A
:1005C00073FF2844BDE8F081114BAF221A70BBE7DE
:1005D0000F4BAA221A70B7E70D4B05221A70B3E72A
:1005E0000B4B05221A70AFE706220F212046FFF7BA
:1005F0005BFF0544002224212046FFF755FF0544F8
:10060000002225212046FFF74FFF0544B6E700BF33
:100610009405002038B5012914D0C4B2002222214B
:100620002046FFF741FF0546002223212046FFF721
:100630003BFF05440D4B1A7804212046FFF734FF99
:10064000284438BDC4B2FF2204212046FFF72CFF06
:100650000546012222212046FFF726FF05440122FC
:1006600023212046FFF720FF2844EAE794050020D5
:100670000E4B1B78012B01D00020704770B504464B
:10068000C6B206220E213046FFF70EFF05460021B6
:100690002046FFF7BFFF05449E2202213046FFF7A8
:1006A00003FF2844014B00221A7070BD0004002093
:1006B00008B50548054B036001F0D0FB00B908BD43
:1006C00000F0B4FCFBE700BF9805002000300240BA
:1006D0000268094B9A4200D0704782B00023019310
:1006E000064B1A6B42F480521A631B6B03F480535F
:1006F0000193019B02B07047003002400038024075
:1007000010B582B000240194154B1A6B42F400120C
:100710001A631B6B03F400130193019B22462146CD
:100720000E2001F041FB0E2001F076FB224621460F
:10073000102001F039FB102001F06EFB224621460B
:10074000112001F031FB112001F066FB2246214609
:100750002F2001F029FB2F2001F05EFB02B010BD1D
:10076000003802402DE9F0418CB000240794089431
:1007700009940A940B940194494B1A6B42F01002AD
:100780001A631A6B02F010020192019A02941A6B1A
:1007900042F004021A631A6B02F004020292029AF7
:1007A00003941A6B42F080021A631A6B02F0800203
:1007B0000392039A04941A6B42F001021A631A6BB3
:1007C00002F001020492049A05941A6B42F00202AC
:1007D0001A631A6B02F002020592059A06941A6BCC
:1007E00042F008021A631B6B03F008030693069B92
:1007F0002C4E22460821304601F036FFDFF8B48047
:1008000001221146404601F02FFF274F22461021BA
:10081000384601F029FF082307930125089509941C
:100820000A9407A9304601F08FFD079508950994B1
:100830000A9407A9404601F087FD07954FF48813F5
:1008400008934FF00208CDF8248007A9174801F05B
:100850007BFD042307930894099407A9144801F029
:1008600073FD10230793089509940A9407A9384645
:1008700001F06AFD202307930894099407A93846DC
:1008800001F062FDCDF81C804FF490130893099499
:1008900007A9304601F058FD0CB0BDE8F08100BF5B
:1008A0000038024000100240000C024000000240EC
:1008B000000402400008024008B50B480B4B0360DF
:1008C0000B4B436000238360C3604FF4804202619E
:1008D00043618361C361036202F038F800B908BD67
:1008E00000F0A4FBFBE700BFA0050020005400407F
:1008F0000077010030B589B000230393049305937A
:10090000069307930268144B9A4201D009B030BD98
:1009100000250195114C236B43F002032363236BE5
:1009200003F002030193019B4FF41073039312230E
:100930000493012305930423079303A9084801F0B6
:1009400003FD0295236C43F400132364236C03F42A
:1009500000130293029BD9E7005400400038024084
:100960000004024002680A4B9A4200D0704710B55A
:10097000084A136C23F400131364074C40212046EB
:1009800001F0D8FD4FF40071204601F0D3FD10BDF9
:1009900000540040003802400004024008B50C48F2
:1009A0000C4B03604FF440734360202383600023AB
:1009B000C3600361084A426108228261C361036225
:1009C00002F072F900B908BD00F030FBFBE700BF90
:1009D000B40600200038004000EE020008B50B48C5
:1009E0000B4B03604FF40072426000238360C360CE
:1009F0000261084A42618361C361036202F054F9F3
:100A000000B908BD00F012FBFBE700BFFC060020A8
:100A1000003C004000770100F0B58DB00446002393
:100A20000793089309930A930B930368614A9342CF
:100A300004D0614A93425ED00DB0F0BD002501950F
:100A40005E4B1A6C42F480421A641A6C02F48042C3
:100A50000192019A02951A6B42F004021A631A6B12
:100A600002F004020292029A03951A6B42F002020B
:100A70001A631B6B03F002030393039B0823079382
:100A80000227089705260B9607A94D4801F05CFC44
:100A90004FF4A0530793089709950A950B9607A959
:100AA000484801F051FC4848484B03604560856068
:100AB000C5604FF4806303614FF4006343614FF4FA
:100AC000005383614FF48073C3614FF400330362BA
:100AD000456201F053FA58B93B4BE3639C63002233
:100AE0001146242001F060F9242001F095F9A3E7D4
:100AF00000F09CFAF0E700250495304B1A6C42F4A4
:100B000000421A641A6C02F400420492049A059599
:100B10001A6B42F001021A631A6B02F0010205928D
:100B2000059A06951A6B42F004021A631B6B03F0D8
:100B300004030693069B10230793022708970626B3
:100B40000B9607A9224801F0FFFB4FF4A45307932B
:100B5000089709950A950B9607A9194801F0F4FB27
:100B60001C481D4B0360456040238360C5604FF403
:100B7000806303614FF4006343614FF4005383616A
:100B80004FF48073C3614FF400330362456201F098
:100B9000F5F958B90F4BA3639C630022114633202B
:100BA00001F002F9332001F037F945E700F03EFA91
:100BB000F0E700BF00380040003C00400038024031
:100BC0000008024000040240F40500205860024082
:100BD0000000024054060020B86002407047000048
:100BE00008B560220249034802F09AF908BD00BF27
:100BF000B0070020B406002010B54BF680330A4A37
:100C0000127802219420FFF787FC002211469420DD
:100C1000FFF72EFD054C30220549204602F012F95F
:100C2000204602F0FBF910BD08040020FC0600205D
:100C30004C07002008B5804708BD000008B5074BE9
:100C40001B78012B08D00648064A074909F044FAE8
:100C5000064B03221A7008BD0548F5E70904002079
:100C600010080020601500204C070020AC07002071
:100C7000B007002038B52DED028B184B1B785BB305
:100C8000BDEC028B38BD164D95ED008A9FED150A1F
:100C900028EE000A09F082FDF1EE047A20EE270A20
:100CA000DFED117A20EE270ADFED107A30EE270A09
:100CB000BDEEC00ADFED0E7A38EE278A85ED008A98
:100CC0000C4B10EE102A23F8142001342F2CDADDFF
:100CD000024B03221A70D3E70024F7E7AC07002089
:100CE0007408002063141D4400007A4400000000D2
:100CF0003EC3AE374C07002008B50C4B1B78032BC6
:100D000011D0012008BD0A4931F9121023F8021B45
:100D100001322F2AF7D93021054800F071FD034B2D
:100D200000221A70EDE70022024BF2E7AC07002028
:100D30004C070020780800200268044B9A4200D03B
:100D40007047034B01221A70FAE700BF00380040D9
:100D5000090400200268044B9A4200D07047034BFC
:100D600002221A70FAE700BF003800400904002090
:100D700070477047704770474B8813F0FF0304D0EB
:100D8000013B034AD25C034B1A700120704700BF3D
:100D900074BB000844070020002070470020704703
:100DA0004B88888891F801C0BCF1010F4AD100B589
:100DB0005FFA83FE1B0A000A022804D004282BD005
:100DC00000205DF804FB012B0BD0022B18D04FF054
:100DD000E023D3F8F03D13F0010F00D000BE002057
:100DE000EFE7CB88012B01D00020EAE792F9003031
:100DF000003B18BF0123144A02F80E300120E0E73F
:100E0000CB88022B01D00020DBE7B2F900200F4B8A
:100E100023F81E200120D4E7012B09D1CB88042B15
:100E200001D00020CDE71268094B1A600120C8E705
:100E30004FF0E023D3F8F03D13F0010F00D000BED7
:100E40000020BEE70020704748070020FC09002072
:100E500070080020002070470020704730B58BB02C
:100E600005460C464B88DAB2190AA3881B0A012BE7
:100E700006D0022B23D0042B5FD000200BB030BD56
:100E8000022909D04FF0E023D3F8F03D13F0010F11
:100E900000D000BE0020F1E78DF8003000238DF86F
:100EA00001308DF802308DF803308DF804308DF864
:100EB000053006236A46214604F0A2FEDEE701293A
:100EC0000BD0022910D04FF0E023D3F8F03D13F0FF
:100ED000010F00D000BE0020D0E7012340490A44A2
:100EE000214606F0D7F8C9E76378012B0BD0022B17
:100EF00011D04FF0E023D3F8F03D13F0010F00D0F4
:100F000000BE0020BAE70223364901EB4202214627
:100F100006F0C0F8B2E70123ADF800304FF6A67234
:100F2000ADF802201E22ADF80420ADF806300823EB
:100F30006A46214604F064FEA0E701290BD002298D
:100F400048D04FF0E023D3F8F03D13F0010F00D06C
:100F500000BE002092E76378012B0BD0022B0FD04C
:100F60004FF0E023D3F8F03D13F0010F00D000BEA6
:100F7000002083E704231C4A214606F08BF87DE716
:100F800026220021684609F065FA0323ADF80030F7
:100F9000002316E0154A52F8231003EB43020AA877
:100FA00000EB820242F8261C42F8221C03EB4302AB
:100FB00000EB8202002122F81E1C22F81C1C0133C7
:100FC000DBB2022BE6D926236A462146284604F0E6
:100FD00017FE53E70123064A214606F05BF84DE76A
:100FE00048070020FC0900207008002078BB00089A
:100FF0004507002008B5084B1B68084AA2FB0323DD
:101000009B09074A127812FB03F292B205490020AD
:1010100004F022FD012008BD70080020D34D6210AD
:1010200044070020780800200120704772B6FEE7D0
:1010300000B595B03022002108A809F00BFA002372
:10104000039304930593069307930193214A116C2C
:1010500041F080511164126C02F080520192019AA9
:1010600002931D4B1A6842F480421A601B6803F415
:1010700080430293029B012308934FF4803309932A
:1010800002230E934FF480020F92082210924FF425
:10109000A872119212930723139308A802F00CFB75
:1010A00098B90F23039302230493002305934FF46D
:1010B000A05306934FF480530793052103A802F031
:1010C00065FD20B915B05DF804FBFFF7AFFFFFF732
:1010D000ADFF00BF003802400070004000B585B091
:1010E000002300930193029303930123009340F2A2
:1010F0002D13019302230293684602F01DFE10B9DE
:1011000005B05DF804FBFFF791FF000008B500F0A3
:10111000F9FDFFF78DFFFFF7E1FFFFF723FBFFF777
:10112000EFFAFFF7C9FBFFF759FCFFF737FCFFF7B2
:10113000BFFA00F01FFD04F04BF900F02FF800F0AB
:1011400003FA00F0C5FA002005F0FCF90F4B0BB1D3
:10115000AFF300800E4B4FF4FA421A600D4B0122A0
:101160001A70FFF73DFDFFF747FD00F07FFB00F031
:10117000A5FB00F007FC084B1868FFF75BFD00219A
:101180004FF0FF3005F020FEF3E700BF0000000045
:1011900070080020450700200404002008B50D4811
:1011A0000D4B03604FF48273436000238360C36080
:1011B000036143614FF400728261C3610362436261
:1011C00083620A23C36202F09BFE00B908BDFFF7E9
:1011D0002DFFFBE7000A00200030014000B589B078
:1011E0000023039304930593069307930268144B1B
:1011F0009A4202D009B05DF804FB0021019103F589
:1012000084335A6C42F480525A645A6C02F480520D
:101210000192019A02911A6B42F001021A631B6B50
:1012200003F001030293029BE02303930223049340
:101230000523079303A9034801F086F8DAE700BF06
:10124000003001400000024030B589B00025019512
:101250001D4C236B43F002032363236B03F0020353
:101260000193019B4FF41073039312230493022301
:10127000069305950423079303A9144801F064F825
:101280000295236C43F400132364236C03F40013CE
:101290000293029B236A43F400132362236A23F41C
:1012A000001323622A4629461F2000F07DFD1F20DF
:1012B00000F0B2FD2A462946202000F075FD2020CE
:1012C00000F0AAFD09B030BD003802400004024021
:1012D00010B50B4801F0E4FC00B110BD084C094BFF
:1012E00063600023A3603323E3604FF480432361F2
:1012F000054B2360FFF7A8FF204601F027FBECE732
:10130000580A0020A08601000054004008B5034898
:1013100001F0FAFBFFF7DCFF08BD00BF580A002010
:1013200010B586B004468DF817200A4B1B6802934F
:10133000012301930DF1170200920A460146064867
:1013400001F0FCFB08B906B010BD2046FFF7DEFF38
:10135000F9E700BF0C040020580A0020F0B587B060
:1013600000260096144B1A6B42F008021A631B6B9E
:1013700003F008030093009B1025019501270297B5
:101380000223049303960D4C01A9204600F0DCFFD4
:10139000FFF79EFF32462946204601F065F90520F9
:1013A00000F0DCFC3A462946204601F05DF90520B4
:1013B00000F0D4FC07B0F0BD00380240000C024041
:1013C00008B5FFF7ADFF08BD10B582B0002400944A
:1013D000104B5A6C42F480425A645A6C02F48042B8
:1013E0000092009A01941A6C42F080521A641B6CAD
:1013F00003F080530193019B052000F0C3FC2246BB
:101400002146512000F0D0FC512000F005FD02B033
:1014100010BD00BF00380240FEE7FEE7FEE7FEE732
:10142000FEE770477047704708B500F085FC08BDBF
:1014300008B5024800F09AFE08BD00BFF405002080
:1014400008B5024800F092FE08BD00BFF40A002073
:1014500008B5024800F08AFE08BD00BF540B00200A
:1014600008B5024801F01AFE08BD00BFB40600200E
:1014700008B5024803F0CEFB08BD00BFB40B002046
:1014800008B5024800F072FE08BD00BF54060020F7
:1014900008B5024801F002FE08BD00BFFC060020AE
:1014A00008B5002006F0FEFD08BD7047034AD2F8DB
:1014B000883043F47003C2F88830704700ED00E0D4
:1014C0000268094B9A4200D0704782B00023019312
:1014D000064B1A6C42F004021A641B6C03F00403FE
:1014E0000193019B02B070470008004000380240A1
:1014F00000B587B0002301930293039304930593EF
:1015000002680E4B9A4202D007B05DF804FB00233C
:1015100000930B4B1A6B42F008021A631B6B03F02B
:1015200008030093009B4FF470430193022302933E
:10153000059301A9034800F007FFE5E70008004014
:1015400000380240000C024000B58FB000230A931F
:101550000B930C930D9308930993019302930393B8
:1015600004930593069307933248334A026048F286
:101570003F324260836041F28732C2600361802360
:10158000836102F049FE00283CD14FF480530A9356
:101590000AA9284802F04BFF002836D1254802F05E
:1015A00067FE002834D100230893099308A9214835
:1015B00003F094F878BB6023019340F6C4130293C0
:1015C000022303930022059201A91A4802F0B4FEF7
:1015D00020BB04220DEB0201164802F0ADFE00BB59
:1015E000082201A9134802F0A7FEE8B90C2201A9BC
:1015F000104802F0A1FED0B90E48FFF779FF0FB0F6
:101600005DF804FBFFF712FDBFE7FFF70FFDC5E72D
:10161000FFF70CFDC7E7FFF709FDCCE7FFF706FD75
:10162000D7E7FFF703FDDBE7FFF700FDDEE7FFF796
:10163000FDFCE1E7AC0A00200008004008B529B134
:101640008100054802F082FF002008BD81000248A9
:1016500002F0FEFFF8E700BFAC0A0020084B5B7801
:101660001BB1084B084A1A607047054B9B781BB1A9
:10167000044B064A1A607047024B054A1A607047CD
:1016800014040020040400203D0C0008750C000820
:10169000DD0B000810B50D4CA1780320FFF7CEFF3D
:1016A00061780220FFF7CAFF61790120FFF7C6FFCA
:1016B000E3781BB9237933B1012100E00121002037
:1016C000FFF7BCFF10BD0021F9E700BF14040020A4
:1016D00008B50A480A4B03604FF4E1334360002326
:1016E0008360C36003610C2242618361C36103F0C4
:1016F00031F900B908BDFFF799FCFBE7B40B0020F6
:101700000044004030B589B000230393049305934F
:10171000069307930268344B9A4201D009B030BD5A
:1017200004460025019503F5FA331A6C42F40032A1
:101730001A641A6C02F400320192019A02951A6B33
:1017400042F001021A631B6B03F001030293029B38
:101750000C23039302230493032306930723079385
:1017600003A9224800F0F0FD2148224B03604FF00E
:10177000006343608560C5604FF480630361456129
:101780008561C5614FF480330362456200F0F6FB6A
:1017900018BB174BA3639C631748184B03604FF0AB
:1017A00000634360402383600023C3604FF4806282
:1017B000026143618361C3610362436200F0DEFB47
:1017C00070B90D4B63639C6300221146262000F024
:1017D000EBFA262000F020FBA0E7FFF727FCD8E774
:1017E000FFF724FCEDE700BF00440040000002408A
:1017F000F40A002088600240540B0020A0600240E0
:1018000008B50A46002108F025FE08BD38B5044693
:1018100000E000BF0C4B1B78002BFAD10A4B0122D1
:101820001A700A4D4FF480612846FFF7E9FF214600
:10183000284608F08FFE2046FEF782FD82B2294638
:10184000034803F0B7F838BDF90B0020000C002066
:10185000B40B002008B50348FFF7D8FF0248FFF794
:10186000D5FF08BD9CBB0008A4BB000808B5FFF766
:10187000F1FF0248FFF7CAFF08BD00BFF0BD000836
:1018800010B500E000BF094B1B78002BFAD1084CC3
:101890004FF480612046FFF7B3FF0648FFF7B6FF1D
:1018A00001222146044803F0A1FB10BDF90B0020E2
:1018B000FC0B0020ACBB0008B40B002008B50348AB
:1018C000FFF7A4FFFFF7DCFF08BD00BF9CBC0008CA
:1018D00030B583B0002540E000BF254B1B78DBB25C
:1018E000022BF9D1224B00221A70224B1C78A4F152
:1018F0003003052B26D8DFE803F029030B13191F4B
:101900001D4B5A7882F001025A7000229A701EE034
:10191000194B9A7882F001029A7000225A7016E0F0
:10192000154AD37883F00103D37010E0124A13797B
:1019300083F0010313710AE00F4A537983F0010326
:10194000537104E00D48FFF761FF00E001258DF8B9
:1019500007400DF10700FFF759FF15B9FFF790FF9A
:10196000BBE7FFF777FF0648FFF750FF03B030BD36
:10197000F80B0020FC0B002014040020B4BB00086E
:101980009CBC0008264B1B78DBB2022B00D07047B2
:1019900010B5244B1C78224B00221A70FFF75AFF17
:1019A000A4F13003092B31D8DFE803F02A05113008
:1019B0003030303030241C48FFF728FFFFF788FF15
:1019C000FFF75EFFFFF766FEFFF748FE10BD174A00
:1019D000937983F00103937143B11548FFF716FF24
:1019E0001448FFF713FFFFF74BFFEBE71248FFF731
:1019F0000DFFF5E71148FFF709FFFFF741FFE1E7AA
:101A00000F48FFF703FFFFF73BFFDBE70D48FFF74A
:101A1000FDFE0B48FFF7FAFEFFF732FFD2E700BFEB
:101A2000F80B0020FC0B002020BD0008140400204F
:101A3000D8BB0008D4BD0008F0BB000808BC0008F3
:101A40009CBC000874BC00080268044B9A4200D099
:101A50007047034B02221A70FAE700BF00440040AF
:101A6000F80B00200268044B9A4200D07047034BE9
:101A700000221A70FAE700BF00440040F90B002072
:101A8000004870470CBF00080048704750BE00086F
:101A900030B589B0A8B1032822D004285BD82F4ADA
:101AA00052F820402046FEF74BFC202800D9202089
:101AB000002398420BD9E15C0133294A22F8131024
:101AC000F7E7264B1B681A88254B5A800120431CD8
:101AD0005B009BB243F440732148038009B030BDE2
:101AE000204B53B110216846AFF300800446102C00
:101AF00000D910244FF0000E08E01B4B009303F1B7
:101B0000883301930824F2E70EF1010EA64520D296
:101B10004FF0000CBCF1010FF6D8144B0FCB08AD01
:101B200005E90F000EF120036B4413F8203C4FEA47
:101B30008C02134103F00F03CCEB4E020132203331
:101B40006B4413F8101C0A4B23F812100CF1010C13
:101B5000E0E76000BBE70020C0E700BF1C040020F6
:101B60000410002000000000012345671CBE00088F
:101B70000610002008B50C484FF0A0430360042372
:101B800043600222C2600023036182610122C261BC
:101B900003624362C262036301F0F6FC00B908BD50
:101BA000FFF744FAFBE700BF481000202DE9F041A1
:101BB00088B0002303930493059306930793036867
:101BC000B3F1A04F02D008B0BDE8F0810024019429
:101BD000224D2B6B43F001032B632B6B03F00103AE
:101BE0000193019B4FF4807303934FF00208CDF8EB
:101BF0001080032306930A270797194E03A930463E
:101C000000F0A2FB4FF4007303930494059403A91E
:101C1000304600F099FB4FF4E0530393CDF8108069
:101C200005940694079703A9304600F08DFB6B6B73
:101C300043F080036B6302946B6C43F480436B64EA
:101C40006B6C03F480430293029B2246214643209F
:101C500000F0AAF8432000F0DFF8B4E700380240B3
:101C600000000240DFF834D00D480E490E4A002330
:101C700002E0D458C4500433C4188C42F9D30B4A40
:101C80000B4C002301E013600432A242FBD3FFF7A8
:101C90000DFC08F037FCFFF739FA7047000002200E
:101CA000000000207805002044C3000878050020CB
:101CB0008C1C0020FEE7000010B504460E4B1A787D
:101CC0004FF47A73B3FBF2F30C4A1068B0FBF3F0F5
:101CD00000F0B0F868B90F2C01D901200AE0002209
:101CE00021464FF0FF3000F05FF8054B1C600020EC
:101CF00000E0012010BD00BF3004002010040020CF
:101D00003404002008B50B4B1A6842F400721A60C4
:101D10001A6842F480621A601A6842F480721A608B
:101D2000032000F02FF80020FFF7C6FFFFF74CFB61
:101D3000002008BD003C0240034A1168034B1B7899
:101D40000B441360704700BF54150020300400207E
:101D5000014B1868704700BF5415002038B5044681
:101D6000FFF7F6FF0546B4F1FF3F02D0044B1B78A6
:101D70001C44FFF7EDFF401BA042FAD338BD00BF63
:101D800030040020074AD36823F4E0631B041B0CD3
:101D9000000200F4E060034343F0BF6343F4003308
:101DA000D360704700ED00E000B5194BDB68C3F36A
:101DB0000223C3F1070CBCF1040F28BF4FF0040C41
:101DC00003F1040EBEF1060F18D9033B4FF0FF3E9E
:101DD0000EFA0CFC21EA0C0199400EFA03FE22EAED
:101DE0000E020A4300280BDB1201D2B200F1604060
:101DF00000F5614080F800235DF804FB0023E5E76F
:101E000000F00F001201D2B2024B1A54F4E700BFE7
:101E100000ED00E014ED00E0002807DB00F01F02F9
:101E2000400901239340024A42F82030704700BF26
:101E300000E100E00138B0F1807F0BD24FF0E023E9
:101E40005861054AF02182F823100020986107228A
:101E50001A6170470120704700ED00E058B110B5DD
:101E6000044643791BB101236371002010BD037147
:101E7000FEF72EFCF7E70120704730B405682C68A8
:101E800024F480242C60046863608368402B05D0B0
:101E9000036899600368DA6030BC704703689A6031
:101EA0000368D960F8E7000010B40368D9B21039AC
:101EB0000C4AA2FB014212090B4CA25CC2655F29CD
:101EC00009D923F47F7323F0030304338365806D02
:101ED0005DF8044B704723F47F7323F0030383659D
:101EE000F5E700BFABAAAAAA20BF0008836A8269EF
:101EF00092B9012B0AD0022B02D00BB100207047FF
:101F0000C36A13F0807F28D100207047C36AB3F101
:101F1000C07F24D000207047B2F5005F09D0022BAB
:101F200025D9032B25D1C36A13F0807F23D100204C
:101F30007047032B03D8DFE803F01404140A0020D1
:101F40007047C36A13F0807F0DD100207047C36AC9
:101F5000B3F1C07F09D000207047012070470120F5
:101F60007047012070470120704701207047012011
:101F700070470020704701207047000070B504468C
:101F8000FFF7E6FE002C5BD00546022384F83530CF
:101F9000002384F834302268136823F001031360AF
:101FA00023681A6812F0010F0AD0FFF7D1FE431B15
:101FB000052BF5D920236365032084F8350070BD17
:101FC0001A68204911406268A0680243E068024331
:101FD0002069024360690243A0690243E069024349
:101FE000206A02430A43616A04291ED01A602668E7
:101FF000756925F00705636A1D43042B07D1A36AA1
:102000001D43E36A1BB12046FFF770FF90B975616D
:102010002046FFF749FFE26D3F2393408360002095
:102020006065012384F83530C9E7E16A206B01431C
:102030000A43DBE740236365012084F83500BEE7EF
:102040000120BCE73F8010F038B50446856D90F85C
:10205000340001282BD0012084F8340094F8350096
:10206000C0B2012804D0002384F83430022038BDE7
:10207000022084F83500002060652046FFF7FDFE51
:10208000E26D3F239340AB602268136843F0160370
:102090001360236C23B12268136843F008031360B4
:1020A0002268136843F0010313600020DFE7022079
:1020B000DDE770B50446866DFFF74AFE94F83530CB
:1020C000DBB2022B06D080236365002384F8343012
:1020D000012070BD05462268136823F016031360C3
:1020E0002268536923F080035361236CE3B12268B3
:1020F000136823F0080313602268136823F00103B8
:10210000136023681B6813F0010F11D0FFF720FE46
:10211000431B052BF5D920236365032084F8350084
:10212000002384F83430D4E7A36C002BDFD1E3E73D
:10213000E26D3F239340B360012384F835300020E3
:1021400084F83400C5E790F83530DBB2022B03D0B9
:102150008023436501207047052380F835300268ED
:10216000136823F00103136000207047F0B583B0BB
:10217000044600230193724B1D68724BA3FB053587
:10218000AD0A876D3E68C26D08239340334210D07C
:1021900003681A6812F0040F0BD01A6822F00402C8
:1021A0001A60C26D08239340BB60436D43F0010386
:1021B0004365E26D01239340334209D0226852699E
:1021C00012F0800F04D0BB60636D43F002036365BF
:1021D000E26D04239340334209D02268126812F062
:1021E000020F04D0BB60636D43F004036365E26DCE
:1021F00010239340334224D02268126812F0080F53
:102200001FD0BB6023681A6812F4802F0DD01B68A2
:1022100013F4002F04D1236C9BB12046984710E0A3
:10222000A36C73B1204698470BE01A6812F4807FC4
:1022300003D11A6822F008021A60236C0BB1204601
:102240009847E26D20239340334255D022681268AC
:1022500012F0100F50D0BB6094F83530DBB2052B74
:102260000ED023681A6812F4802F33D01B6813F441
:10227000002F2AD1636C002B3ED0204698473BE0CC
:102280002268136823F0160313602268536923F051
:1022900080035361236CA3B12268136823F0080301
:1022A0001360E26D3F239340BB60012384F8353017
:1022B000002384F83430236D002B3FD0204698470C
:1022C0003CE0A36C002BE7D1EBE7E36BA3B1204626
:1022D000984711E01A6812F4807F09D11A6822F039
:1022E00010021A60012384F83530002384F834305A
:1022F000E36B0BB120469847636DFBB1636D13F040
:10230000010F17D0052384F835302268136823F0B5
:1023100001031360019B01330193AB4204D823688E
:102320001B6813F0010FF5D1012384F83530002329
:1023300084F83430E36C0BB12046984703B0F0BD0D
:1023400010040020B5814E1B00230F2B00F2E98002
:1023500070B582B065E085684FEA430E032404FA45
:102360000EF425EA0405CC6804FA0EF42C438460CC
:10237000446824EA02044A68C2F300129A402243E5
:1023800042605CE0DC08083450F8242003F00705C4
:10239000AD004FF00F0E0EFA05FE22EA0E0E0A698E
:1023A000AA4042EA0E0240F824205CE0072200E046
:1023B000002202FA0EF22A4302345A4D45F8242034
:1023C000594A94686FEA0C0224EA0C054E6816F428
:1023D000801F01D04CEA0405534CA560E46802EA72
:1023E00004054E6816F4001F01D04CEA04054E4C5B
:1023F000E560646802EA04054E6816F4003F01D007
:102400004CEA0405484C6560246822404D6815F488
:10241000803F01D04CEA0402434C226001330F2B71
:102420007DD801229A400C6804EA020C32EA0404C6
:10243000F4D14C6804F00304013C012C8BD94A68A8
:1024400002F00302032A09D0C4685D000322AA40F7
:1024500024EA02048A68AA402243C2604A6802F061
:102460000302022A8ED004684FEA430E032202FAC6
:102470000EF224EA02044A6802F0030202FA0EF2A3
:10248000224302604A6812F4403FC7D00022019202
:10249000264A546C44F480445464526C02F48042E2
:1024A0000192019A9C08A51C1E4A52F8255003F07F
:1024B000030E4FEA8E0E0F2202FA0EF225EA0205F3
:1024C0001B4A90423FF474AF02F5806290421AD0EA
:1024D00002F58062904218D002F58062904216D0D8
:1024E00002F58062904214D002F58062904212D0D0
:1024F00002F58062904210D002F5806290423FF473
:1025000055AF082255E7012253E7022251E7032283
:102510004FE704224DE705224BE7062249E702B0C8
:1025200070BD704700380140003C01400038024057
:102530000000024000230F2B00F28F80F0B52DE049
:10254000072500E0002505FA0CF5A54269D00468CE
:102550005D004FF0030C0CFA05FC24EA0C04046047
:102560004FEAD30E0EF1080E50F82E4003F0070686
:10257000B6000F25B54024EA050440F82E40C46893
:1025800024EA0C04C460446824EA020242608268BF
:1025900022EA0C02826001330F2B5DD801229A409F
:1025A00002EA010632EA0104F5D14FEA930E0EF178
:1025B00002052A4C54F8254003F0030C4FEA8C0C1A
:1025C0000F2505FA0CF73C40254DA842BAD005F579
:1025D0008065A84219D005F58065A84217D005F599
:1025E0008065A84215D005F58065A84213D005F591
:1025F0008065A84211D005F58065A8420FD005F589
:102600008065A8429CD008259DE701259BE702250F
:1026100099E7032597E7042595E7052593E7062520
:1026200091E7104C256825EA06052560656825EACE
:1026300006056560E56825EA0605E560A56825EA02
:102640000605A560054E0EF1020456F8245025EA51
:10265000070546F824507AE7F0BD7047003801407E
:1026600000000240003C01400AB18161704709044A
:102670008161704703685A6912F4806F01D10020AC
:1026800070476FF480625A6100230363202280F850
:102690003D2080F83E30026C42F00402026480F873
:1026A0003C30012070472DE9F04107460D46904629
:1026B0001E4624E0FFF74CFB069BC01AB04200D830
:1026C000EEB900233B63202287F83D2087F83E3097
:1026D0003A6C42F020023A6487F83C3001201EE058
:1026E0003B689C6925EA040C1FFA8CFCBCFA8CFC44
:1026F0004FEA5C1CE04511D1B6F1FF3FDAD1C5F3DA
:102700000743012BECD13B685B6925EA030C1FFAF8
:102710008CFCBCFA8CFC4FEA5C1CEBE70020BDE8AB
:10272000F0812DE9F04105460E46174698463DE0FA
:102730001A6842F400721A602B686FF480625A6162
:1027400000232B63202285F83D2085F83E302A6C3B
:1027500042F004022A6485F83C30012034E0FFF79F
:10276000F7FAA0EB0800B84200D8FFB900232B63AA
:10277000202285F83D2085F83E302A6C42F0200268
:102780002A6485F83C3001201EE02B689C6926EA0B
:102790000404A4B2003C18BF0124A4B12B685A69F8
:1027A00012F4806FC4D1B7F1FF3FD8D1C6F307430D
:1027B000012BEAD12B685C6926EA0404A4B2003C30
:1027C00018BF0124E9E70020BDE8F08170B5044698
:1027D0000D46164623685B6913F0800F1CD1204616
:1027E000FFF748FFD0B9B5F1FF3FF3D0FFF7B0FADC
:1027F000801BA84201D8002DECD1002323632022A6
:1028000084F83D2084F83E30226C42F0200222649D
:1028100084F83C30012000E0002070BD0120FCE77E
:102820002DE9F04385B004460D4691461F46DDF87C
:1028300030800D9E0368196841F48071196000961C
:10284000434600224FF00111FFF72DFF60B92368C6
:1028500005F0FE051D613346424626492046FFF736
:1028600060FF68B1012008E023681B6813F4807FD3
:1028700002D04FF400732364032005B0BDE8F08359
:102880000023039323685A6903929B690393039B74
:10289000324641462046FFF799FF30B9012F0FD14C
:1028A00023685FFA89F61E61E7E7236C042B01D0E9
:1028B0000120E2E72268136843F400731360F7E72E
:1028C00023684FEA19221A61324641462046FFF733
:1028D0007DFF20B923685FFA89F61E61CDE7236C7E
:1028E000042B01D00120C8E72268136843F4007369
:1028F0001360F7E70200010070B504460D46164666
:1029000023685B6913F0040F1CD12046FFF7B2FE69
:10291000D0B9B5F1FF3FF3D0FFF71AFA801BA842F8
:1029200001D8002DECD100232363202284F83D2020
:1029300084F83E30226C42F02002226484F83C305D
:10294000012000E0002070BD0120FCE7002800F01D
:10295000CC8070B5044690F83D30002B77D024230E
:1029600084F83D302268136823F001031360226865
:10297000136843F4004313602268136823F4004390
:10298000136001F0B9F962685A4B9A4264D85A4B05
:1029900098428CBF00230123002B40F0A8805749A8
:1029A000A1FB00318B0C25686A6822F03F0242EAE5
:1029B00091426A6021680A6A22F03F0266684D4DC2
:1029C000AE424FD8013313430B622168CA6922F427
:1029D0004F4222F0FF026568464B9D424CD8431E91
:1029E0006D00B3FBF5F3013340F6FC70034278D081
:1029F000C3F30B031A43CA6121680B6823F0C003B9
:102A0000E269206A024313430B6021688B6823F458
:102A1000034323F0FF032269E068024313438B6002
:102A20002168CB6823F0FF036269A0690243134366
:102A3000CB602268136843F0010313600020206418
:102A4000202384F83D30206384F83E0070BD80F878
:102A50003C30FDF74FFF82E7294B98428CBF0023A3
:102A6000012399E74FF4967505FB03F3254DA5FB6C
:102A700003539B090133A6E7A668BEB9431E05EBC5
:102A8000450CB3FBFCF30133C3F30B03B3FA83F33D
:102A90005B0943BBC6B9431E05EB4505B3FBF5F324
:102AA0000133C3F30B0343F40043A3E7431E05EBD9
:102AB000850C0CEB8C0CB3FBFCF30133C3F30B0361
:102AC000B3FA83F35B09E4E7431E05EB850505EBE9
:102AD0008505B3FBF5F30133C3F30B0343F4404324
:102AE00088E7042386E7012384E70120704701205B
:102AF000ACE700BFA08601007F841E0083DE1B437D
:102B0000FF083D00D34D6210A8B110B50446242340
:102B100080F83D300268136823F001031360FDF76D
:102B200021FF0020206484F83D00206384F83E00EB
:102B300084F83C0010BD0120704700002DE9F043EF
:102B400083B004460F46904699460C9EFFF700F965
:102B5000054694F83D00C0B2202803D0022003B0FF
:102B6000BDE8F0830095192301224B492046FFF769
:102B70009AFD002840F0898094F83C30012B00F049
:102B80008680012384F83C3023681A6812F0010F14
:102B900003D11A6842F001021A602268136823F414
:102BA00000631360212384F83D30402384F83E30D5
:102BB000002323640A9B6362BDF82C306385638D18
:102BC0002385364BE362019500964B4642463946D3
:102BD0002046FFF725FE00285BD1238D002B35D042
:102BE0002A4631462046FFF7F1FD20BB626A236882
:102BF00012781A61626A531C6362218D013989B2AD
:102C00002185638D9BB2013B9BB263852368586924
:102C100010F0040FE1D00029DFD052781A61636A06
:102C200001336362238D013B2385638D9BB2013B9E
:102C30009BB26385D1E7236C042B01D001208EE782
:102C40002268136843F400731360F7E72A4631469D
:102C50002046FFF751FE50B1236C042B01D0012018
:102C60007DE72268136843F400731360F7E7226876
:102C7000136843F400731360202384F83D3000236D
:102C800084F83E3084F83C3069E7022067E7022090
:102C900065E7012063E700BF020010000000FFFFAE
:102CA00090F83D0070470000002800F0BF8038B564
:102CB000044690F84130002B51D0022284F8412084
:102CC0002168CB6923F47B6323F00F03CB61236876
:102CD0001A626369934263D0E368002B46D11025E2
:102CE000A368202B00D86D00012001F0CFF82369E4
:102CF000B3F5007F3CD0B0FBF5F000EB8000430063
:102D00006269B3FBF2F30533494AA2FB0323C3F321
:102D1000C002C2EBD3035B0811029A1EFD2A41D800
:102D200022690A4321681A430A622168CB6923F4A5
:102D30007B6323F00F036268A0680243E0680243EC
:102D4000A0690243134343F40063CB61236A012B60
:102D50002ED000206064012384F8413038BD80F813
:102D60004030344B4363FDF757FEA6E72025B7E715
:102D7000E36853B1AD00B0FBF5F000EB8000430019
:102D80006269B3FBF2F30533BEE7ED00B0FBF5F08B
:102D900000EB800043006269B3FBF2F30533B3E755
:102DA0000021BAE7636C43F0100363640120D5E7A8
:102DB000214B63632268214B9A421FD04FF040227F
:102DC000D36923F47B6323F00F03D36122681B4B89
:102DD0009A4215D04FF0402302221A622268174B04
:102DE0009A4210D04FF04025EB699BB26268B2F571
:102DF000007F0AD0C2B94FF4807008E0104ADFE7C4
:102E0000A3F58063E8E70E4DEEE74FF48070B4F869
:102E100008C0A189228B40EA0C0001430A431343F6
:102E200043F40063EB6194E70020F0E70120704772
:102E3000CDCCCCCC77310008B1330008003800404D
:102E40000034004000295ED038B50446002A5CD02A
:102E500094F84030DBB2012B59D0012384F8403084
:102E600094F84150EDB29D4210D1032384F84130D3
:102E70000023636461622368DB6903F00703032BAB
:102E800009D0052B07D02285628508E0002384F84D
:102E9000403002203AE0520092B222856285A36B54
:102EA0001C4A1A64A36B1C4ADA63A36B1B4ADA64DC
:102EB0002268238D9BB20C32616AA06BFFF7C4F8C5
:102EC000A8B92368DA6912F4806F03D1DA6942F491
:102ED0008062DA6123685A6812F0020F03D15A68DF
:102EE00042F002025A60002384F840300EE0636C26
:102EF00043F008036364012384F84130002384F81D
:102F00004030284602E001207047012038BD0220F1
:102F1000FCE700BFA7300008EB300008473200088C
:102F200000296DD030B583B00446002A6AD094F8E9
:102F30004030DBB2012B68D0012384F8403094F894
:102F40004150EDB29D4210D1042384F8413000235A
:102F50006364E1622368DB6903F00703032B09D094
:102F6000052B07D02286628608E0002384F84030D3
:102F7000022048E0520092B222866286E36B244A25
:102F80001A64E36B234ADA63E36B234ADA64216849
:102F9000CB6903F44073B3F5407F1DD0238E9BB201
:102FA000E26A0C31E06BFFF74FF8E8B92368DA69A1
:102FB00012F4806F03D1DA6942F48062DA61236827
:102FC0005A6812F0010F03D15A6842F001025A60A8
:102FD000002384F8403016E000230193CB6801936E
:102FE0008B680193019BD9E7636C43F0080363642A
:102FF000012384F84130002384F84030284602E061
:1030000001207047012003B030BD0220FBE700BF64
:103010000F3100085131000847320008034690F88C
:103020004020D2B2012A32D0012280F8402090F80C
:103030004120D2B2032A19D090F84120D2B2042AFA
:103040001DD090F84120D2B2052A14D101684A68F7
:1030500022F003024A6001680E4A914215D04FF0F7
:1030600040214A6822F003024A6004E001684A688D
:1030700022F002024A60002083F840007047016895
:103080004A6822F001024A60F5E70349E9E70220B5
:10309000704700BF003800400034004008B5436B63
:1030A000984708BD704708B5806BFFF7FBFF08BD68
:1030B000704708B5426A03681288DA60436A0233CF
:1030C0004362438D9BB2013B9BB24385438D9BB2D0
:1030D00003B108BD0268536823F0A00353600123C5
:1030E00080F84130FFF7E4FFF3E708B50346806B53
:1030F000DB694BB90268536823F002035360002375
:103100004385012380F84130FFF7D2FF08BD08B5A1
:10311000806BFDF711FE08BD08B50368DA68C36A65
:103120001A80C36A0233C362438E9BB2013B9BB2D7
:103130004386438E9BB203B108BD0268536823F0F7
:1031400060035360012380F84130FDF703FEF3E78D
:1031500008B50346806BDB694BB90268536823F0FE
:103160000103536000234386012380F84130FDF7BB
:10317000F1FD08BD704710B584B00446026893683D
:10318000039390F84130DBB2042B06D094F8413021
:10319000DBB2032B2CD004B010BD039B13F0010F46
:1031A00003D0536813F0400F1FD1039B13F0400F5F
:1031B000ECD023685A6812F0200FE7D05A6822F04A
:1031C00060025A60002301932368DA6801929B68C9
:1031D0000193019B012384F84130636C43F00203A7
:1031E00063642046FFF7C6FFD0E7FFF795FFDCE7F3
:1031F000039B13F0020F04D023685B6813F0800F69
:103200001DD1039B13F0080FC5D023685A6812F034
:10321000200FC0D05A6822F0A0025A600023029307
:1032200023689B680293029B012384F84130636CFE
:1032300043F0040363642046FFF79CFFABE720469E
:10324000FFF737FFDDE708B5806B0268536823F0AE
:1032500003035360002343854386012380F84130F4
:10326000436C43F008034364FFF784FF08BD7047D5
:1032700008B5436A9A1C426202681B88D360438D7A
:103280009BB2013B9BB24385438D9BB23BB9026825
:10329000536823F0A0035360438E9BB203B108BD73
:1032A000012380F84130FFF7E2FFF8E708B5026834
:1032B000154B9A421CD04FF04023DA68C36A991C20
:1032C000C1621A80438E9BB2013B9BB24386438E00
:1032D0009BB263B902680C4B9A420CD04FF040226B
:1032E000536823F060035360438D9BB22BB108BD3C
:1032F000A3F58063E1E7054AF2E7012380F8413056
:10330000FFF7B5FFF3E700BF00380040003400408E
:1033100008B5436A9A1C42621A880168134B9942A5
:1033200018D04FF04023DA60438D9BB2013B9BB233
:103330004385438D9BB263B902680C4B9A420CD013
:103340004FF04022536823F0A0035360438E9BB29A
:103350002BB108BDA3F58063E5E7054AF2E7012339
:1033600080F84130FFF783FFF3E700BF00380040EB
:103370000034004008B50368DA68C36A991CC1626A
:103380001A80438E9BB2013B9BB24386438E9BB215
:103390003BB90268536823F060035360438D9BB2CE
:1033A00003B108BD012380F84130FFF760FFF8E763
:1033B00010B586B0044603689A680592704A934235
:1033C0006FD04FF04022916804915B68039353687B
:1033D00002936368B3F5007F01D0002B70D1059B89
:1033E00013F0020F03D0039B13F0800F5CD1049BFA
:1033F00013F0010F03D0029B13F0400F58D1049B30
:1034000013F0400F24D0029B13F0200F20D022682D
:103410005B4B9A4250D04FF04022536823F0600338
:1034200053602268536823F0A00353600023009385
:103430002368DA6800929B680093009B012384F85C
:103440004130636C43F0020363642046FFF792FE51
:10345000059B13F0080F22D0039B13F0200F1ED002
:103460002268536823F0A00353602268444B9A42B9
:1034700024D04FF04022536823F0600353600023B0
:10348000019323689B680193019B012384F84130D9
:10349000636C43F0040363642046FFF76BFE06B0E1
:1034A00010BDA2F580628EE72046FFF7E1FE9EE7A1
:1034B0002046FFF7FBFEA2E7324AAEE7314ADAE7E1
:1034C000049B13F0020F03D0029B13F0800F4AD12C
:1034D000059B13F0010F03D0039B13F0400F46D15F
:1034E000059B13F0400F1CD0039B13F0200F18D046
:1034F0002268536823F0600353602268204B9A428D
:1035000039D04FF04022536823F0A00353600123C9
:1035100084F84130636C43F0020363642046FFF794
:1035200029FE049B13F0080FB9D0029B13F0200F63
:10353000B5D02268124B9A421FD04FF040225368F8
:1035400023F0A00353602268536823F060035360A4
:10355000012384F84130636C43F004036364204624
:10356000FFF708FE9BE72046FFF7D2FEB0E72046B4
:10357000FFF700FFB4E7034AC5E7024ADFE700BFF1
:10358000003800400034004070B58AB0002800F0D8
:1035900090800546046890F8BD343BB3032385F85A
:1035A000BD34E36B13F4807F01D100232B612868C5
:1035B00001F0A5FD2C4654F8106BEC460FCCACE89E
:1035C0000F000FCCACE80F0094E803008CE8030078
:1035D0002B1D0ECB304601F04DFD044658B10223A1
:1035E00085F8BD34012420460AB070BD80F8BC3493
:1035F000FEF7DCFAD2E70021286801F0B7FE234687
:1036000016E003EBC30205EB8202012182F83D10B4
:1036100082F83C30A2F84430002182F840109164D6
:10362000D16403EBC30205EB820251650133DBB2C7
:1036300069688B42E5D316E004EBC40305EB830312
:10364000002283F87D2283F87C4283F88022C3F82D
:103650008822C3F88C2204EBC40305EB8303C3F870
:1036600094220134E4B2A142E6D82C4654F8106BFF
:10367000EC460FCCACE80F000FCCACE80F0094E8A0
:1036800003008CE803002B1D0ECB304601F094FDA7
:10369000044620B1022385F8BD340124A3E70023AA
:1036A00085F83830012385F8BD34286801F04CFED8
:1036B00099E7012497E70000002800F0E08170B549
:1036C00082B00446036813F0010F3BD09F4B9B6808
:1036D00003F00C03042B2CD09C4B9B6803F00C03D1
:1036E000082B21D06368B3F5803F4FD0B3F5A02FEE
:1036F00052D0964B1A6822F480321A601A6822F46B
:1037000080221A606368002B50D0FEF721FB05462B
:103710008E4B1B6813F4003F14D1FEF719FB401BBE
:103720006428F5D90320B1E1884B5B6813F4800F5E
:10373000D8D0864B1B6813F4003F03D06368002B7E
:1037400000F09F81236813F0020F54D07F4B9B68D9
:1037500013F00C0F3ED07D4B9B6803F00C03082B3D
:1037600033D0E368002B68D0794B01221A60FEF752
:10377000EFFA0546754B1B6813F0020F54D1FEF7A4
:10378000E7FA401B0228F5D903207FE16F4A13684E
:1037900043F480331360B5E76C4B1A6842F480221F
:1037A0001A601A6842F480321A60ABE7FEF7D0FA6A
:1037B0000546664B1B6813F4003FC3D0FEF7C8FAFA
:1037C000401B6428F5D9032060E1604B5B6813F46B
:1037D000800FC6D15D4B1B6813F0020F03D0E36866
:1037E000012B40F05081594A136823F0F8032169F6
:1037F00043EAC1031360236813F0080F42D06369E2
:103800006BB3534B0122C3F8802EFEF7A1FA054695
:103810004E4B5B6F13F0020F34D1FEF799FA401B49
:103820000228F5D9032031E1484A136823F0F80350
:10383000216943EAC1031360DDE7454B00221A60AA
:10384000FEF786FA0546414B1B6813F0020FD2D0F3
:10385000FEF77EFA401B0228F5D9032016E13C4B07
:103860000022C3F8802EFEF773FA0546374B5B6FD4
:1038700013F0020F06D0FEF76BFA401B0228F5D9B1
:10388000032003E1236813F0040F77D02F4B1B6C48
:1038900013F0805F33D1002301932C4B1A6C42F05C
:1038A00080521A641B6C03F080530193019B012525
:1038B000284B1B6813F4807F23D0A368012B34D0DE
:1038C000052B38D0214B1A6F22F001021A671A6FAC
:1038D00022F004021A67A368002B3DD0FEF738FAE5
:1038E00006461A4B1B6F13F0020F46D1FEF730FA53
:1038F000801B41F288339842F3D90320C6E00025AB
:10390000D6E7144A136843F480731360FEF720FA75
:103910000646104B1B6813F4807FCED1FEF718FAD1
:10392000801B0228F5D90320B0E0084A136F43F04A
:1039300001031367CFE7054B1A6F42F004021A67C1
:103940001A6F42F001021A67C5E700BF0038024053
:103950000000474200700040FEF7FAF90646524B5D
:103960001B6F13F0020F08D0FEF7F2F9801B41F233
:1039700088339842F3D9032088E0EDB9A369002B7E
:1039800000F08380484A926802F00C02082A51D065
:10399000022B17D0454B00221A66FEF7D9F90446D0
:1039A000414B1B6813F0007F42D0FEF7D1F9001B9A
:1039B0000228F5D9032069E03B4A136C23F08053B9
:1039C0001364DBE7394B00221A66FEF7C1F905469E
:1039D000354B1B6813F0007F06D0FEF7B9F9401B8A
:1039E0000228F5D9032051E0E369226A1343626A91
:1039F00043EA8213A26A5208013A43EA0243E26AA6
:103A000043EA0263284A5360284B01221A66FEF7F4
:103A10009FF90446244B1B6813F0007F06D1FEF784
:103A200097F9001B0228F5D903202FE000202DE094
:103A300000202BE0012B2BD01B4B5B6803F4800193
:103A4000E269914226D103F03F02216A8A4223D1E2
:103A5000616A47F6C0721A40B2EB811F1ED103F4AF
:103A60004031A26A5208013AB1EB024F18D103F07B
:103A70007063E26AB3EB026F14D1002006E001200C
:103A80007047012002E0012000E0002002B070BD7C
:103A90000120FBE70120F9E70120F7E70120F5E726
:103AA0000120F3E70120F1E700380240000047421F
:103AB00008B5334B9B6803F00C03042B5BD0082B39
:103AC0005BD12F4B5A6802F03F025B6813F4800F02
:103AD0002CD02B4B5868C0F388104FEA401CBCEB2D
:103AE000000C6EEB0E0E4FEA8E1343EA9C634FEA16
:103AF0008C11B1EB0C0163EB0E03DB0043EA517355
:103B0000C90011EB000C43F10003590200234FEAF6
:103B10004C2041EADC51FCF753FB194B5B68C3F3C3
:103B2000014301335B00B0FBF3F027E0144B58680E
:103B3000C0F388104FEA401CBCEB000C6EEB0E0E7D
:103B40004FEA8E1343EA9C634FEA8C11B1EB0C01F0
:103B500063EB0E03DB0043EA5173C90011EB000C69
:103B600043F10003990200234FEA8C2041EA9C5163
:103B7000FCF726FBD1E7034800E0034808BD00BF7F
:103B80000038024000127A000024F400002800F0FF
:103B90009B8070B50D4604464F4B1B6803F007032E
:103BA0008B4208D2CBB24C4A1370136803F0070360
:103BB0008B4240F08B80236813F0020F17D013F074
:103BC000040F04D0454A936843F4E053936023689C
:103BD00013F0080F04D0414A936843F460439360A4
:103BE0003E4A936823F0F003A1680B439360236877
:103BF00013F0010F32D06368012B21D09A1E012AE5
:103C000025D9364A126812F0020F61D033498A680A
:103C100022F0030213438B60FEF79AF806462F4BFF
:103C20009B6803F00C036268B3EB820F16D0FEF7BB
:103C30008FF8801B41F288339842F0D9032042E08C
:103C4000264A126812F4003FE0D101203BE0234AEB
:103C5000126812F0007FD9D1012034E01E4B1B689E
:103C600003F00703AB4207D9EAB21B4B1A701B687B
:103C700003F00703AB422DD1236813F0040F06D0E5
:103C8000164A936823F4E053E1680B43936023687A
:103C900013F0080F07D0114A936823F46043216999
:103CA00043EAC1039360FFF703FF0C4B9B68C3F328
:103CB00003130B4AD35CD8400A4B18600A4B1868B0
:103CC000FDF7FAFF002070BD012070470120FAE7E0
:103CD0000120F8E70120F6E7003C024000380240EE
:103CE00084BB00081004002034040020014B186835
:103CF000704700BF1004002008B5FFF7F7FF044B22
:103D00009B68C3F38223034AD35CD84008BD00BF3D
:103D10000038024094BB000808B5FFF7E7FF044BEA
:103D20009B68C3F34233034AD35CD84008BD00BF4D
:103D30000038024094BB000830B583B004460368E5
:103D400013F0050F06D1236813F0020F2ED10020C7
:103D500003B030BD4A4B00229A66FDF7F9FF0546D5
:103D6000484B1B6813F0006F06D0FDF7F1FF431BB3
:103D7000022BF5D90320EBE76268A3681B0743EA2F
:103D80008213404AC2F884303D4B01229A66FDF707
:103D9000DFFF05463B4B1B6813F0006FD3D1FDF7E7
:103DA000D7FF431B022BF5D90320D1E70023019352
:103DB000344B1A6C42F080521A641B6C03F080532F
:103DC0000193019B304A136843F480731360FDF73D
:103DD000BFFF05462C4B1B6813F4807F06D1FDF70F
:103DE000B7FF431B022BF5D90320B1E7254B1B6F0F
:103DF00013F4407314D0E26802F440729A420FD078
:103E0000204B1A6F22F440721D490120C1F8400E68
:103E10000020C1F8400E1A671B6F13F0010F13D179
:103E2000E36803F44072B2F5407F1ED0154A9368F0
:103E300023F4F813936013490B6FE268C2F30B028B
:103E400013430B67002083E7FDF782FF05460D4B08
:103E50001B6F13F0020FE3D1FDF77AFF401B41F215
:103E600088339842F3D9032072E706498A6822F41E
:103E7000F81223F0704323F4407313438B60DAE7A6
:103E8000000047420038024000700040012801D085
:103E900000207047164B9B6813F4000303D0012BDE
:103EA00023D114487047124B5B6813F4800F14D071
:103EB0000F4B5A6802F03F020F4BB3FBF2F30C4A70
:103EC000D2F88400C0F3881003FB00F0D2F88430ED
:103ED000C3F30273B0FBF3F07047054B5A6802F06E
:103EE0003F02064BB3FBF2F3E9E70020704700BF47
:103EF000003802400080BB0000127A000024F40069
:103F000000285AD010B50446436A33B94368B3F564
:103F1000827F05D00023C36102E000230361436177
:103F20000023A36294F85130002B40D0022384F880
:103F300051302268136823F040031360636803F470
:103F40008273A26802F404421343E26802F400623E
:103F50001343226902F002021343626902F0010274
:103F60001343A26902F400721343E26902F03802BB
:103F70001343226A02F080021343A26A02F4005241
:103F8000216813430B60638B03F00403626A02F041
:103F90001002216813434B602268D36923F4006345
:103FA000D36100206065012384F8513010BD84F88E
:103FB00050302046FDF712F9B8E7012070470000A5
:103FC00030B4036A23F001030362036A4268846920
:103FD00024F0730C0C6844EA0C0423F0020C8B6888
:103FE00043EA0C03114DA84203D005F58065A842B1
:103FF00005D123F00803CD682B4323F004030B4DB8
:10400000A84203D005F58065A84207D122F440728A
:104010004D6945EA020C8A6942EA0C0242608461F9
:104020004A684263036230BC704700BF0000014031
:1040300030B4036A23F480730362036A4268C4697C
:1040400024F0730C0C6844EA0C0523F400738C68AC
:1040500043EA0423114CA04203D004F58064A0423B
:1040600006D123F40063CC6843EA042323F480637D
:104070000A4CA04203D004F58064A04207D122F488
:1040800040524C6942EA04128C6942EA04124260CE
:10409000C5614A68C263036230BC704700000140DA
:1040A00030B4036A23F480530362036A4468C2692C
:1040B00022F4E6420D6842EA052223F400538D689B
:1040C00043EA0533094DA84203D005F58065A842AF
:1040D00004D124F480444D6944EA85144460C261EB
:1040E0004A680264036230BC704700BF00000140B0
:1040F00010B4036A046A24F001040462846924F0A1
:10410000F00C4CEA021223F00A030B4382610362B3
:104110005DF8044B704710B4036A23F01003036288
:104120008469036A24F4704C4CEA023223F0A00341
:1041300043EA0113826103625DF8044B70478368B0
:1041400023F070030B4343F007038360704770470D
:104150000368304A904212D0B0F1804F0FD0A2F5E0
:104160007C4290420BD002F58062904207D002F56B
:104170008062904203D002F57842904203D123F04E
:1041800070034A681343234A90422AD0B0F1804F0B
:1041900027D0A2F57C42904223D002F58062904263
:1041A0001FD002F5806290421BD002F57842904207
:1041B00017D002F57052904213D002F580629042FF
:1041C0000FD002F5806290420BD0A2F59832904257
:1041D00007D002F58062904203D002F580629042DF
:1041E00003D123F44073CA68134323F080034A6960
:1041F000134303608B68C3620B688362054B98426C
:1042000003D003F58063984201D10B690363012356
:10421000436170470000014040B310B5044690F878
:104220003D30F3B1022384F83D30214651F8040BB0
:10423000FFF78EFF012384F8463084F83E3084F87F
:104240003F3084F8403084F8413084F8423084F8BC
:10425000433084F8443084F8453084F83D30002001
:1042600010BD80F83C30FDF72BF9DBE701207047EB
:1042700040B310B5044690F83D30F3B1022384F802
:104280003D30214651F8040BFFF762FF012384F80B
:10429000463084F83E3084F83F3084F8403084F86B
:1042A000413084F8423084F8433084F8443084F854
:1042B000453084F83D30002010BD80F83C30FFF7D9
:1042C00046FFDBE70120704730B4036A23F0100398
:1042D0000362036A4468826922F4E6420D6842EA96
:1042E000052223F020038D6843EA0513114DA842EF
:1042F00003D005F58065A84206D123F08003CD6880
:1043000043EA051323F040030A4DA84203D005F504
:104310008065A84207D124F440644D6944EA8504CD
:104320008D6944EA8504446082614A68826303625D
:1043300030BC70470000014038B590F83C30012B8C
:1043400066D004460D46012380F83C300C2A5AD82A
:10435000DFE802F0075959591B5959593059595931
:1043600044000068FFF72CFE2268936943F00803BD
:1043700093612268936923F004039361226893692F
:1043800029690B43936100203EE00068FFF79CFF22
:104390002268936943F4006393612268936923F46C
:1043A0008063936122689369296943EA01239361D9
:1043B000002029E00068FFF73BFE2268D36943F044
:1043C0000803D3612268D36923F00403D361226810
:1043D000D36929690B43D361002015E00068FFF71A
:1043E0005FFE2268D36943F40063D3612268D36916
:1043F00023F48063D3612268D369296943EA0123E6
:10440000D361002000E00120002384F83C3038BD57
:104410000220FCE710B4846824F47F4C42EA0322B3
:104420000A4342EA0C0282605DF8044B704790F840
:104430003C30012B78D010B50446012380F83C3085
:10444000022380F83D300268936823F47F4323F011
:10445000770393600B68602B4CD029D8402B54D045
:104460000CD9502B22D1CA6849680068FFF740FE7A
:1044700050212068FFF763FE002005E0202B0DD0BF
:1044800009D9302B0AD00120012384F83D300023C4
:1044900084F83C3010BD0BB1102B05D119462068B3
:1044A000FFF74DFE0020EFE70120EDE70120EBE7ED
:1044B000B3F5805F34D0B3F5005F0CD1CB684A68A8
:1044C00089680068FFF7A6FF2268936843F4804379
:1044D00093600020D8E7702B24D1CB684A688968A4
:1044E0000068FFF797FF2268936843F077039360B3
:1044F0000020C9E7CA6849680068FFF70CFE602120
:104500002068FFF71CFE0020BEE7CA684968006803
:10451000FFF7EEFD40212068FFF711FE0020B3E712
:104520000020B1E70120AFE70220704701F01F0132
:104530004FF0010C0CFA01FC036A23EA0C0303623E
:10454000036A8A40134303627047000010B50446B3
:104550000846002942D194F83E30DBB2013B18BF37
:104560000123002B6ED1002851D1022384F83E3064
:10457000012201462068FFF7D9FF2368334A93429E
:1045800003D002F58062934203D15A6C42F4004298
:104590005A6423682D4A934249D0B3F1804F46D0E4
:1045A000A2F57C42934242D002F5806293423ED013
:1045B00002F5806293423AD002F57842934236D0B7
:1045C00002F57052934232D0A2F5943293422ED02B
:1045D0001A6842F001021A60002032E0042908D073
:1045E00008290DD094F84130DBB2013B18BF0123FC
:1045F000B7E794F83F30DBB2013B18BF0123B0E7C7
:1046000094F84030DBB2013B18BF0123A9E704282E
:1046100005D0082807D0022384F84130A8E70223F8
:1046200084F83F30A4E7022384F84030A0E79A687A
:1046300002F00702062A07D01A6842F001021A6047
:10464000002010BD0120FCE70020FAE70000014037
:1046500038B504460D4600220068FFF767FF23685F
:104660001D4A934218D002F58062934214D0236809
:10467000196A41F21112114208D1196A40F24442FA
:10468000114203D11A6822F001021A609DB9012378
:1046900084F83E30002038BD196A41F211121142EF
:1046A000E5D1196A40F244421142E0D15A6C22F439
:1046B00000425A64DBE7042D05D0082D07D0012302
:1046C00084F84130E6E7012384F83F30E2E7012334
:1046D00084F84030DEE700BF0000014090F83C2045
:1046E000012A3DD010B40346012280F83C2002226A
:1046F00080F83D2002685068946820F0700C0868CB
:1047000040EA0C0050601A68164882421AD0B2F192
:10471000804F17D0A0F57C40824213D000F5806016
:1047200082420FD000F5806082420BD000F57840C5
:10473000824207D000F57050824203D0A0F5943039
:10474000824204D124F0800449682143916001220F
:1047500083F83D20002083F83C005DF8044B70474F
:104760000220704700000140026802F10C0353E888
:10477000003F23F0C0030C3242E800310029F3D19E
:10478000202380F83D307047026802F10C0353E8A3
:10479000003F23F490730C3242E800310029F3D13A
:1047A000026802F1140353E8003F23F001031432BE
:1047B00042E800310029F3D1036B012B05D02023FF
:1047C00080F83E30002303637047026802F10C0357
:1047D00053E8003F23F010030C3242E80031002977
:1047E000F3D1ECE790F83D30DBB2212B01D0022071
:1047F00070478368B3F5805F17D0036A5A1C026262
:104800001A7803685A60C38C9BB2013B9BB2C38485
:104810004BB90268D36823F08003D3600268D36881
:1048200043F04003D360002070470369002BE4D1BC
:10483000036A1B880268C3F308035360036A0233E8
:104840000362E0E710B504460268136923F440539D
:10485000C1680B431361836802691A4343691A43B1
:10486000C3691A430168CB6823F4164323F00C0391
:104870001343CB600268536923F4407381690B438F
:1048800053610368314A934206D002F58062934235
:1048900002D0FFF731FA01E0FFF73EFAE369B3F522
:1048A000004F29D00021031849411B1841F1000194
:1048B000C90041EA5371DB00181863684FEA8302AC
:1048C0004FEA937341F10001FBF77AFC204AA2FB07
:1048D00000314909642303FB11031B013233A2FB9E
:1048E00003235B0903F0F00202EB011203F00F0354
:1048F000216813448B6010BD0023021843EB0301B1
:10490000121841F10001C90041EA5271D200101899
:1049100041F10001626892185B41FBF751FC0C4ABF
:10492000A2FB00314909642303FB1103DB0032338E
:10493000A2FB03235B095A0002F4F87202EB011296
:1049400003F00703216813448B60D4E70010014093
:104950001F85EB5158B310B5044690F83D300BB3AA
:10496000242384F83D302268D36823F40053D360B5
:104970002046FFF767FF2268136923F49043136111
:104980002268536923F02A0353612268D36843F4F1
:104990000053D36000202064202384F83D3084F845
:1049A0003E3010BD80F83C30FCF7ACFED8E701206B
:1049B0007047000038B5134690F83D20D2B2202A47
:1049C00037D10446002936D0002B36D090F83C2051
:1049D000012A34D0012280F83C2001628384C38400
:1049E00000250564212280F83D20426B1548D063E4
:1049F000626B15481064626B1448D064626B156575
:104A000022680432606BFDF71FFB23686FF04002E1
:104A10001A6084F83C50226802F1140353E8003F06
:104A200043F08003143242E800310029F3D1002022
:104A300000E0022038BD0120FCE70120FAE7022057
:104A4000F8E700BF514A0008B94A0008C74A000801
:104A500008B50346806B1B681B6813F4807F1AD16E
:104A60000023C384026802F1140353E8003F23F0DB
:104A70008003143242E800310029F3D1026802F1C8
:104A80000C0353E8003F43F040030C3242E800318E
:104A90000029F3D108BDFCF7E5FFFBE708B5016885
:104AA000CA6822F04002CA60202280F83D20FCF74C
:104AB000D9FF002008BD704708B5806BFFF7FBFFEA
:104AC00008BD7047704710B5846B23685A6994F825
:104AD0003D30DBB2212B10D023685A6902F040022E
:104AE00094F83E30DBB2222B11D0236C43F010033C
:104AF00023642046FFF7E6FF10BD02F08002002A83
:104B0000EAD00023E3842046FFF72EFEE4E7002AE4
:104B1000EBD00023E3852046FFF736FEE5E708B536
:104B2000806B0023C385C384FFF7CCFF08BD7047AB
:104B300090F83E30DBB2222B67D18368B3F5805FFB
:104B40004DD0826AB3F5805F04D0002B54D1036945
:104B5000002B51D103685B681370836A0133836251
:104B6000C38D9BB2013B9BB2C385002B4FD100B5D7
:104B700083B00268D36823F02003D3600268D3684F
:104B800023F48073D3600268536923F001035361F7
:104B9000202380F83E30036B012B33D100230363C5
:104BA000026802F10C0353E8003F23F010030C32BB
:104BB00042E800310029F3D103681A6812F0100F9F
:104BC00006D0002201921A6801925B680193019B52
:104BD000818DFFF7ACFF002003B05DF804FB026994
:104BE000002AAED1826A03685B68C3F308031380AE
:104BF000836A02338362B3E703685B6803F07F0371
:104C00001370AAE7FCF720FFE5E7022070470020B9
:104C10007047000030B583B0044602681368D0685E
:104C2000516913F00F0505D113F0200F02D010F0D9
:104C3000200F19D12DB111F0010119D110F4907F7D
:104C400016D1216B01297DD013F0800F03D010F015
:104C5000800F40F0158113F0400F03D010F0400F8B
:104C600040F0128103B030BD2046FFF761FFF9E745
:104C700013F0010F06D010F4807F03D0226C42F0B5
:104C80000102226413F0040F04D019B1226C42F027
:104C90000202226413F0020F04D019B1226C42F018
:104CA0000402226413F0080F07D010F0200F00D187
:104CB00019B1226C42F008022264226C002AD1D081
:104CC00013F0200F02D010F0200F29D123685B6968
:104CD00003F04003226C12F0080F00D163B32046AA
:104CE000FFF752FD23685B6913F0400F20D0226864
:104CF00002F1140353E8003F23F04003143242E86A
:104D000000310029F3D1A36B73B1614A1A65A06B1E
:104D1000FDF719FA0028A5D0A06B036D9847A1E70D
:104D20002046FFF705FFD1E72046FFF7CBFE99E7C6
:104D30002046FFF7C7FE95E72046FFF7C3FE002396
:104D400023648FE713F0100F3FF47EAF10F0100FC5
:104D50003FF47AAF002301931368019353680193E2
:104D6000019B536913F0400F50D0A26B13685B682E
:104D70009BB2002B3FF476AFA18D99427FF672AFC4
:104D8000E385D369B3F5807F37D0226802F10C0345
:104D900053E8003F23F480730C3242E800310029CD
:104DA000F3D1226802F1140353E8003F23F001031A
:104DB000143242E800310029F3D1226802F11403D1
:104DC00053E8003F23F04003143242E80031002949
:104DD000F3D1202384F83E3000232363226802F1BC
:104DE0000C0353E8003F23F010030C3242E800317B
:104DF0000029F3D1A06BFDF75CF9A18DE38D9BB287
:104E0000C91A89B22046FFF792FE2BE7A18DE38DE8
:104E10009BB2C91A89B2E38D9BB2002B3FF422AF3B
:104E200000293FF41FAF226802F10C0353E8003F52
:104E300023F490730C3242E800300028F3D122684A
:104E400002F1140353E8003F23F00103143242E857
:104E500000300028F3D1202384F83E300023236360
:104E6000226802F10C0353E8003F23F010030C32D8
:104E700042E800300028F3D12046FFF758FEF1E663
:104E80002046FFF7AFFCEDE62046FFF707FEE9E618
:104E90001F4B000808B5806B036B012B02D0FFF796
:104EA00010FE08BD818D4908FFF741FEF9E708B5FE
:104EB0000346806B1B681B6813F4807F2BD1002393
:104EC000C385026802F10C0353E8003F23F48073AA
:104ED0000C3242E800310029F3D1026802F11403D8
:104EE00053E8003F23F00103143242E80031002967
:104EF000F3D1026802F1140353E8003F23F04003AA
:104F0000143242E800310029F3D1202380F83E30EA
:104F1000036B012B05D0036B012B0FD0FCF794FD25
:104F200008BD026802F10C0353E8003F23F01003B0
:104F30000C3242E800310029F3D1ECE7818DFFF714
:104F4000F6FDEDE730B583B00446134681628285F5
:104F500000250564222280F83E20826B2048D06321
:104F6000A26B20481064A26B1F48D064A26B156529
:104F700020680A46011DA06BFDF766F801952368BD
:104F80001A6801925B680193019B84F83C50236985
:104F90005BB1226802F10C0353E8003F43F48073D5
:104FA0000C3242E800310029F3D1226802F11403E7
:104FB00053E8003F43F00103143242E80031002976
:104FC000F3D1226802F1140353E8003F43F0400399
:104FD000143242E800310029F3D1002003B030BD83
:104FE000AF4E0008954E0008C74A000808B590F873
:104FF0003E30DBB2202B0DD171B17AB190F83C304C
:10500000012B0DD0012380F83C3000230363FFF710
:1050100099FF00E0022008BD0120FCE70120FAE72B
:105020000220F8E782B000230193019B0133019332
:10503000019A0F4B9A4215D80369002BF5DA002329
:105040000193036943F001030361019B0133019361
:10505000019A074B9A4208D8036913F0010FF4D163
:10506000002000E0032002B070470320FBE700BFF0
:10507000400D030084B010B5044603A880E80E007C
:10508000089B012B1FD1A36B23F48033A363E36838
:1050900023F4840323F04003E360E36823F4401324
:1050A000E3600F9B012B09D02046FFF7BBFF069B57
:1050B000012B1BD0BDE8104004B07047E36843F4F7
:1050C0008013E360F0E7E36843F04003E3602046C9
:1050D000FFF7A8FF0C9B23B9A36B43F48033A363B2
:1050E000E5E7A36B23F48033A363E0E7A36843F011
:1050F0000603A360A36843F02003A360DAE7836894
:1051000023F00103836000207047000082B0002379
:105110000193019B01330193019A0F4B9A4215D8D9
:105120000369002BF5DA00230193890141F0200186
:105130000161019B01330193019A074B9A4208D800
:10514000036913F0200FF4D1002000E0032002B027
:1051500070470320FBE700BF400D030082B000232F
:105160000193019B01330193019A0E4B9A4213D88C
:105170000369002BF5DA0023019310230361019BDF
:1051800001330193019A074B9A4208D8036913F03F
:10519000100FF4D1002000E0032002B0704703207C
:1051A000FBE700BF400D0300D0F800381943C0F8FA
:1051B000001800207047000084B02DE9F04104463B
:1051C00007A880E80E00002306E003F1400204EB8C
:1051D00082020021516001330E2BF6D9119F27BBAB
:1051E000D4F8043843F00203C4F80438A36B43F442
:1051F0000013A363A36B23F40023A363A36B23F423
:105200008023A3630023C4F8003E04F50065D4F8AE
:105210000038C4F800380C9B012B14D1099B6BB9E2
:1052200000212046FFF7C0FF11E0A36B23F4001319
:10523000A363A36B43F40023A363E3E701212046A8
:10524000FFF7B2FF03E003212046FFF7ADFF102177
:105250002046FFF75BFF804608B14FF0010820466B
:10526000FFF77CFF08B14FF0010800232B616B6151
:10527000EB610AE0C3B94FF00060C2F800090022F8
:105280000A614FF67F328A6001330799994210D93B
:1052900004EB431202F51061D2F800090028E9DBA3
:1052A0000020C2F80009EAE74FF09040C2F8000978
:1052B000E5E700230AE0C3B14FF0904CC2F800CB01
:1052C000002202614FF67F3282600133994211D988
:1052D00004EB431202F53060D2F8006B002EEADBDB
:1052E0004FF0000CC2F800CBEAE74FF0006CC2F8B8
:1052F00000CBE5E72B6923F480732B610023A361C6
:105300006FF0804363610A9B1BB9A36943F01003EC
:10531000A361A2690B4B1343A3610D9B1BB1A3694E
:1053200043F00803A361012F04D04046BDE8F041DB
:1053300004B07047A36943F0804343F00403A361C2
:10534000F3E700BF00383C80D0F8003E23F00303B1
:10535000C0F8003ED0F8043843F00203C0F8043827
:1053600000207047406900F00100704738B50546DD
:10537000C36823F0C043C360012913D019BBC368BD
:1053800043F08043C36000240120FCF7E7FC0134B4
:105390002846FFF7E7FF08B1312CF5D9322C14D09D
:1053A000002038BDC36843F00053C36000240120CF
:1053B000FCF7D4FC01342846FFF7D4FF0128EDD0D8
:1053C000312CF4D9EAE70120EBE70120E9E70000FE
:1053D00038B50B4C0025258065800A4B636001239E
:1053E00023816381204604F0FBFC074905230B80E1
:1053F00030234B808D80204604F07CFD38BD00BFFB
:1054000060150020FEFFFF7F5815002010B54C6886
:1054100024B3B1F80EC0ACF1080CA44421782144A7
:10542000CC8821444FF0000E06E082F800E01960BD
:10543000012012E00C78214461450DD24C78042CF7
:10544000F8D1CC78002CF5D18C788442EDD00EF1D7
:10545000010E5FFA8EFEEDE7002010BD0020FCE794
:105460002DE9F0410746884616461D46002414B132
:105470000020BDE8F08104EB84002B46324606494B
:1054800001EBC0013846FFF7C1FF10B90134E4B2A7
:10549000EDE788F80040ECE7AC1500200023B3B13D
:1054A00000207047257804EB050CBCF806E0E644C4
:1054B000645DA444F44517D29CF803408C4203D0A9
:1054C0009CF80040A444F5E71370012011E030B5CA
:1054D00003EB830C074C04EBCC0CDCF804401CB150
:1054E00094F802C08445DDD00133DBB2002BEFD04D
:1054F000002030BDAC15002030B4002414B10020D1
:1055000030BC704704EB84020F4B03EBC2035D68B1
:1055100015B90134E4B2F1E70B4B03EBC203B3F866
:105520000EC0ACF1080CAC442B4601E01A781344D1
:105530006345EED25A78042AF8D1AA788242F5D18E
:105540000C700120DCE700BFAC15002010B4002473
:105550001CB100205DF8044B704704EB8402104B33
:1055600003EBC2035B6813B90134E4B2F0E794467D
:105570000B4A02EBCC02B2F80EC09C441A781344DA
:10558000DA88134401E01A7813446345ECD25A7860
:10559000052AF8D19A788242F5D10C700120D9E71A
:1055A000AC1500200B7803F0E003202B01D0012084
:1055B000704730B583B005460C460B7803F01F03E7
:1055C000012B0CD0022B39D04FF0E023D3F8F03D63
:1055D00013F0010F00D000BE002003B030BD898859
:1055E000C8B2090A15D0244B002B3ED00DF107029A
:1055F000FFF754FF0028F0D09DF8073003EB83033A
:105600001E4A02EBC3031A6921462846FBF7C8FB72
:10561000E3E71B4B5BB30DF10701FFF76DFF0028BC
:10562000DBD09DF8073003EB8303144A02EBC3037E
:105630001A6921462846FBF7B1FBCEE78888C0B23D
:10564000104BB3B10DF10701FFF780FF0028C4D064
:105650009DF8073003EB8303084A02EBC3031A6982
:1056600021462846FBF798FBB7E70020B5E7002066
:10567000B3E70020B1E700BFA10D0008AC15002082
:105680009D0D0008990D00080246002008B1002079
:10569000704700EB8001044B03EBC1039342F7D04A
:1056A000431CD8B2F2E700BFAC15002030B583B080
:1056B00005460C4688886B460DF106020DF1070180
:1056C000C0B2FFF7CDFE034610B9184603B030BD97
:1056D0009DF8073003EB8303064A02EBC303996985
:1056E0009DF8062001230A442146284601F0D2FCF9
:1056F0000346EAE7AC1500202DE9F04184B00746E7
:105700000C460846FFF7C0FF064602AB0DF10F023C
:105710002146207BFFF77AFE844680B3A2699DF87C
:105720000F30D35C4BB3184A32B1227A3146384637
:10573000FBF760FC844610B304F11C08404600F0FF
:10574000F8FC6389984228BF184685B22B4642462A
:10575000217A384601F0AEF8844680B10B4B73B124
:10576000A2699DF80F30D35C0093237A3246294614
:105770003846FBF7C1FA844601E04FF0000C604662
:1057800004B0BDE8F08100BFF50F0008F90C000877
:105790002DE9F04F85B007460E468D88EDB2B1F881
:1057A000029002AB0DF10E020DF10F012846FFF73A
:1057B00057FE0090002800F099805FFA89F99DF863
:1057C0000F8008EB8802594B03EBC2031B7BAB42F3
:1057D0000ED008EB8802554B03EBC20399699DF884
:1057E0000E2001F802905C68DB89083B1C4486E0CF
:1057F000DFF838B14FEA88040BEBC20300221A73BA
:10580000197A384601F0D4FB04EB0803DB001833A7
:105810000BEB0300043000F0F8FC454B2BB1314694
:105820003846FBF701FC00287AD008EB88023F4B92
:1058300003EBC20300221A72CBE74FF0E022D2F84A
:10584000F02D12F0010F00D000BE00934EE00BF1DE
:10585000010B5FFA8BFB029B1A7813440293D3452A
:1058600037D2DDF80890A14533D299F80130052BE5
:10587000F1D14946384600F0B3FF03460028DCD09A
:1058800099F8023001931946384601F075F8019BEA
:10589000DB09DCD099F8033013F0300FD7D123495E
:1058A00008EB880301EBC303019A1A721D73B9F860
:1058B0000420C2F30A025A819DF80F3003EB8303E0
:1058C00001EBC3013846FFF717FF0028BFD1009056
:1058D0000CE0D34526D1174B23B131463846FBF7B0
:1058E0004BFA38B13146384601F0BAFB009805B0A2
:1058F000BDE8F08F0090F9E71A7813440293029BF9
:10590000A342EFD25A78042AF6D19A78AA42F3D168
:10591000DA784A45F0D193F804A04FF0000B9EE7E7
:105920000090E3E700230093E0E700BFAC15002000
:1059300029100008790D000830B583B005460C46E3
:105940000B7813F0600315D14B780A2B0BD00B2B7F
:105950000DD04FF0E023D3F8F03D13F0010F00D04D
:1059600000BE002001E0FFF7A1FE03B030BDFFF74D
:105970000FFFFAE7202B09D04FF0E023D3F8F03DDA
:1059800013F0010F5ED000BE0020EEE78988C8B298
:10599000237803F01F03012B0BD0022B2DD04FF0E7
:1059A000E023D3F8F03D13F0010F00D000BE00203B
:1059B000DBE7090A10D00DF10702FFF76FFD0028A1
:1059C000D3D094F90030002B21DA1F4BA3B321462A
:1059D0002846FBF743FAC8E70DF10701FFF78CFDF6
:1059E0000028C2D094F90030002B10DA174B2BB3EB
:1059F00021462846FBF730FAB7E70DF10701FFF71C
:105A0000A5FD0028B1D094F90030002B0DDB9DF8E6
:105A100007300F4A03EB830102EBC1010B7D0A69DA
:105A20002146284601F036FB9FE70A4B43B1214649
:105A30002846FBF70FFA98E7002096E7002094E746
:105A4000002092E7002090E75D0E0008590E000844
:105A5000AC150020550E000880B908B500EB800C8D
:105A6000084800EBCC00406850B16346DB001833B7
:105A700004481844043000F0BEFB08BD0020704705
:105A80000020FAE7AC15002010B582B028220021D2
:105A9000104804F0DFFC00240CB102B010BD0D482A
:105AA00004EB8402D30003440B4A1A6140221A75A6
:105AB0000A4A9A6104EB8402D30018331844012384
:105AC00000934FF4C2720649043000F01CFB01340D
:105AD000E4B2E1E7AC1500205C170020D4150020EB
:105AE000D815002010B5002404B110BD094804EBFE
:105AF0008403D90042180023435053609360D3605D
:105B00000B4618331844043000F07FFB0134E4B234
