:020000040800F2
:100000000000022025170008E5130008E713000888
:10001000E9130008EB130008ED13000800000000CE
:10002000000000000000000000000000EF130008C6
:10003000F113000800000000F3130008F513000896
:100040007517000875170008751700087517000860
:100050007517000875170008751700087517000850
:100060007517000875170008751700087517000840
:100070007517000875170008751700087517000830
:1000800075170008FD13000875170008751700089C
:100090007517000875170008751700087517000810
:1000A0007517000875170008751700087517000800
:1000B00075170008751700087517000875170008F0
:1000C00075170008751700087517000875170008E0
:1000D00075170008751700080D140008751700083B
:1000E00075170008751700087517000875170008C0
:1000F00075170008751700087517000875170008B0
:10010000751700087517000875170008751700089F
:10011000751700087517000875170008751700088F
:10012000751700087517000875170008751700087F
:10013000751700087517000875170008751700086F
:10014000751700087517000875170008751700085F
:10015000751700087517000875170008751700084F
:10016000751700087517000875170008751700083F
:1001700075170008751700087517000800000000C3
:0801800075170008751700084F
:1001C0004FF0FF0C1CEAD0521EBF1CEAD15392EA3A
:1001D0000C0F93EA0C0F6FD01A4480EA010C400216
:1001E00018BF5FEA41211ED04FF0006343EA501070
:1001F00043EA5111A0FB01310CF00040B1F5000FB2
:100200003EBF490041EAD3715B0040EA010062F160
:100210007F02FD2A1DD8B3F1004F40EBC25008BF4A
:1002200020F00100704790F0000F0CF0004C08BF68
:1002300049024CEA502040EA51207F3AC2BFD2F135
:10024000FF0340EAC250704740F400004FF0000343
:10025000013A5DDC12F1190FDCBF00F0004070477D
:10026000C2F10002410021FA02F1C2F1200200FABB
:1002700002FC5FEA310040F1000053EA4C0308BF82
:1002800020EADC70704792F0000F00F0004C02BFD3
:10029000400010F4000F013AF9D040EA0C0093F04E
:1002A000000F01F0004C02BF490011F4000F013BA8
:1002B000F9D041EA0C018FE70CEAD15392EA0C0F16
:1002C00018BF93EA0C0F0AD030F0004C18BF31F081
:1002D000004CD8D180EA010000F00040704790F057
:1002E000000F17BF90F0004F084691F0000F91F0FB
:1002F000004F14D092EA0C0F01D142020FD193EAC1
:100300000C0F03D14B0218BF084608D180EA010048
:1003100000F0004040F0FE4040F40000704740F024
:10032000FE4040F44000704781F0004102E000BF11
:1003300083F0004330B54FEA41044FEA430594EAA5
:10034000050F08BF90EA020F1FBF54EA000C55EAE0
:10035000020C7FEA645C7FEA655C00F0E2804FEAB1
:100360005454D4EB5555B8BF6D420CDD2C4480EA93
:10037000020281EA030382EA000083EA010180EAC3
:10038000020281EA0303362D88BF30BD11F0004F11
:100390004FEA01314FF4801C4CEA113102D0404247
:1003A00061EB410113F0004F4FEA03334CEA133382
:1003B00002D0524263EB430394EA050F00F0A7809A
:1003C000A4F10104D5F1200E0DDB02FA0EFC22FA95
:1003D00005F2801841F1000103FA0EF2801843FA89
:1003E00005F359410EE0A5F120050EF1200E012A7A
:1003F00003FA0EFC28BF4CF0020C43FA05F3C018B8
:1004000051EBE37101F0004507D54FF0000EDCF130
:10041000000C7EEB00006EEB0101B1F5801F1BD3D9
:10042000B1F5001F0CD349085FEA30004FEA3C0CDD
:1004300004F101044FEA445212F5800F80F09A80D3
:10044000BCF1004F08BF5FEA500C50F1000041EBD7
:10045000045141EA050130BD5FEA4C0C404141EBDB
:100460000101013C28BFB1F5801FE9D291F0000FD6
:1004700004BF01460020B1FA81F308BF2033A3F185
:100480000B03B3F120020CDA0C3208DD02F1140C7C
:10049000C2F10C0201FA0CF021FA02F10CE002F1B7
:1004A0001402D8BFC2F1200C01FA02F120FA0CFCB0
:1004B000DCBF41EA0C019040E41AA2BF01EB0451F9
:1004C000294330BD6FEA04041F3C1CDA0C340EDCF7
:1004D00004F11404C4F1200220FA04F001FA02F33A
:1004E00040EA030021FA04F345EA030130BDC4F1F8
:1004F0000C04C4F1200220FA02F001FA04F340EAED
:100500000300294630BD21FA04F0294630BD94F09D
:10051000000F83F4801306BF81F480110134013D84
:100520004EE77FEA645C18BF7FEA655C29D094EAF5
:10053000050F08BF90EA020F05D054EA000C04BF73
:100540001946104630BD91EA030F1EBF002100205E
:1005500030BD5FEA545C05D14000494128BF41F0FD
:10056000004130BD14F580043CBF01F5801130BD61
:1005700001F0004545F0FE4141F470014FF00000EC
:1005800030BD7FEA645C1ABF194610467FEA655C9D
:100590001CBF0B46024650EA013406BF52EA03353F
:1005A00091EA030F41F4002130BD00BF90F0000F2D
:1005B00004BF0021704730B54FF4806404F1320469
:1005C0004FF000054FF0000150E700BF90F0000F22
:1005D00004BF0021704730B54FF4806404F1320449
:1005E00010F0004548BF40424FF000013EE700BF19
:1005F00042004FEAE2014FEA31014FEA02701FBFA9
:1006000012F07F4393F07F4F81F06051704732F0DA
:100610007F4208BF704793F07F4F04BF41F4002131
:10062000704730B54FF4607401F0004521F000418F
:100630001CE700BF50EA010208BF704730B54FF019
:1006400000050AE050EA010208BF704730B511F01A
:10065000004502D5404261EB41014FF4806404F152
:1006600032045FEA915C3FF4D8AE4FF003025FEAD8
:10067000DC0C18BF03325FEADC0C18BF033202EB5C
:10068000DC02C2F1200300FA03FC20FA02F001FAB6
:1006900003FE40EA0E0021FA02F11444BDE600BF59
:1006A0004FEA4102B2F1E04324BFB3F5001CDCF194
:1006B000FE5C0DD901F0004C4FEAC0024CEA5070CC
:1006C000B2F1004F40EB830008BF20F001007047FB
:1006D00011F0804F21D113F13872BCBF01F00040FE
:1006E000704741F480114FEA5252C2F11802C2F130
:1006F000200C10FA0CF320FA02F018BF40F00100B1
:100700004FEAC1234FEAD32303FA0CFC40EA0C0062
:1007100023FA02F34FEA4303CCE77FEA625307D19F
:1007200050EA01331EBF4FF0FE4040F440007047D6
:1007300001F0004040F0FE4040F40000704700BF70
:1007400080F0004002E000BF81F0004142001FBF86
:100750005FEA410392EA030F7FEA226C7FEA236C8F
:100760006AD04FEA1262D2EB1363C1BFD218414084
:1007700048404140B8BF5B42192B88BF704710F01A
:10078000004F40F4000020F07F4018BF404211F0BD
:10079000004F41F4000121F07F4118BF494292EA25
:1007A000030F3FD0A2F1010241FA03FC10EB0C0051
:1007B000C3F1200301FA03F100F0004302D54942DE
:1007C00060EB4000B0F5000F13D3B0F1807F06D38B
:1007D00040084FEA310102F10102FE2A51D2B1F183
:1007E000004F40EBC25008BF20F0010040EA030078
:1007F0007047490040EB0000013A28BFB0F5000FF8
:10080000EDD2B0FA80FCACF1080CB2EB0C0200FAAD
:100810000CF0AABF00EBC25052421843BCBFD040FC
:100820001843704792F0000F81F4000106BF80F476
:1008300000000132013BB5E74FEA41037FEA226C39
:1008400018BF7FEA236C21D092EA030F04D092F004
:10085000000F08BF0846704790EA010F1CBF002038
:10086000704712F07F4F04D1400028BF40F0004095
:10087000704712F100723CBF00F50000704700F0B5
:10088000004343F0FE4040F4000070477FEA2262DC
:1008900016BF08467FEA23630146420206BF5FEAAD
:1008A000412390EA010F40F4800070474FF00003AD
:1008B00004E000BF10F0004348BF40425FEA000C74
:1008C00008BF704743F0964301464FF000001CE01C
:1008D00050EA010208BF70474FF000030AE000BF72
:1008E00050EA010208BF704711F0004302D54042B0
:1008F00061EB41015FEA010C02BF84460146002022
:1009000043F0B64308BFA3F18053A3F50003BCFA3C
:100910008CF2083AA3EBC25310DB01FA02FC6344E9
:1009200000FA02FCC2F12002BCF1004F20FA02F2F0
:1009300043EB020008BF20F00100704702F12002E3
:1009400001FA02FCC2F1200250EA4C0021FA02F244
:1009500043EB020008BF20EADC70704753B94AB984
:10096000002908BF00281CBF4FF0FF314FF0FF30B7
:1009700000F00CB8ADF1080C6DE904CE02F050FBAC
:10098000DDF804E0DDE9022304B07047704700BFE2
:100990000000000000000000000000000000000057
:1009A0000000000000000000000000000000000047
:1009B0000000000000000000000000000000000037
:1009C00090F800F06DE9024520F007016FF0000C8F
:1009D00010F0070491F820F040F049804FF0000437
:1009E0006FF00700D1E9002391F840F000F1080012
:1009F00082FA4CF2A4FA8CF283FA4CF3A2FA8CF34A
:100A00004BBBD1E9022382FA4CF200F10800A4FAB0
:100A10008CF283FA4CF3A2FA8CF3E3B9D1E9042304
:100A200082FA4CF200F10800A4FA8CF283FA4CF33B
:100A3000A2FA8CF37BB9D1E9062301F1200182FAF5
:100A40004CF200F10800A4FA8CF283FA4CF3A2FAFB
:100A50008CF3002BC6D0002A04BF04301A4612BA09
:100A6000B2FA82F2FDE8024500EBD2007047D1E90C
:100A7000002304F00305C4F100004FEAC50514F09B
:100A8000040F91F840F00CFA05F562EA05021CBF6C
:100A900063EA050362464FF00004A9E770B54FF022
:100AA000FF0C4CF4E06C1CEA11541DBF1CEA1355FA
:100AB00094EA0C0F95EA0C0F00F0DEF82C4481EA62
:100AC000030621EA4C5123EA4C5350EA013518BF82
:100AD00052EA033541F4801143F4801338D0A0FB6F
:100AE00002CE4FF00005E1FB02E506F00042E0FB1C
:100AF00003E54FF00006E1FB03569CF0000F18BF22
:100B00004EF0010EA4F1FF04B6F5007F64F54074C9
:100B100004D25FEA4E0E6D4146EB060642EAC6215C
:100B200041EA55514FEAC52040EA5E504FEACE2EC9
:100B3000B4F1FD0C88BFBCF5E06F1ED8BEF1004FCC
:100B400008BF5FEA500E50F1000041EB045170BD48
:100B500006F0004646EA010140EA020081EA03018C
:100B6000B4EB5C04C2BFD4EB0C0541EA045170BD88
:100B700041F480114FF0000E013C00F3AB8014F102
:100B8000360FDEBF002001F0004170BDC4F100044B
:100B9000203C35DA0C341BDC04F11404C4F12005CC
:100BA00000FA05F320FA04F001FA05F240EA020027
:100BB00001F0004221F0004110EBD37021FA04F65D
:100BC00042EB06015EEA430E08BF20EAD37070BD17
:100BD000C4F10C04C4F1200500FA04F320FA05F076
:100BE00001FA04F240EA020001F0004110EBD37078
:100BF00041F100015EEA430E08BF20EAD37070BDE8
:100C0000C4F1200500FA05F24EEA020E20FA04F3C0
:100C100001FA05F243EA020321FA04F001F000416F
:100C200021FA04F220EA020000EBD3705EEA430EE0
:100C300008BF20EAD37070BD94F0000F0FD101F00F
:100C40000046400041EB010111F4801F08BF013C48
:100C5000F7D041EA060195F0000F18BF704703F086
:100C60000046520043EB030313F4801F08BF013D0D
:100C7000F7D043EA0603704794EA0C0F0CEA1355C9
:100C800018BF95EA0C0F0CD050EA410618BF52EA83
:100C90004306D1D181EA030101F000414FF0000089
:100CA00070BD50EA410606BF1046194652EA430697
:100CB00019D094EA0C0F02D150EA013613D195EA0B
:100CC0000C0F05D152EA03361CBF104619460AD153
:100CD00081EA030101F0004141F0FE4141F470015D
:100CE0004FF0000070BD41F0FE4141F4780170BD4D
:100CF00070B54FF0FF0C4CF4E06C1CEA11541DBFB2
:100D00001CEA135594EA0C0F95EA0C0F00F0A7F8B3
:100D1000A4EB050481EA030E52EA03354FEA0131E0
:100D200000F088804FEA03334FF0805545EA1313F3
:100D300043EA12634FEA022245EA111545EA1065BB
:100D40004FEA00260EF000419D4208BF964244F152
:100D5000FD0404F5407402D25B084FEA3202B61A71
:100D600065EB03055B084FEA32024FF480104FF445
:100D7000002CB6EB020E75EB030E22BFB61A7546B9
:100D800040EA0C005B084FEA3202B6EB020E75EB4C
:100D9000030E22BFB61A754640EA5C005B084FEAB4
:100DA0003202B6EB020E75EB030E22BFB61A754681
:100DB00040EA9C005B084FEA3202B6EB020E75EB8C
:100DC000030E22BFB61A754640EADC0055EA060E4D
:100DD00018D04FEA051545EA16754FEA06164FEA90
:100DE000C30343EA52734FEAC2025FEA1C1CC0D13C
:100DF00011F4801F0BD141EA00014FF000004FF0C9
:100E0000004CB6E711F4801F04BF01430020B4F189
:100E1000FD0C88BFBCF5E06F3FF6AFAEB5EB030C41
:100E200004BFB6EB020C5FEA500C50F1000041EB3E
:100E3000045170BD0EF0004E4EEA113114EB5C040B
:100E4000C2BFD4EB0C0541EA045170BD41F48011DE
:100E50004FF0000E013C90E645EA060E8DE60CEAE6
:100E6000135594EA0C0F08BF95EA0C0F3FF43BAF03
:100E700094EA0C0F0AD150EA01347FF434AF95EABA
:100E80000C0F7FF425AF104619462CE795EA0C0F9E
:100E900006D152EA03353FF4FDAE1046194622E76B
:100EA00050EA410618BF52EA43067FF4C5AE50EA45
:100EB00041047FF40DAF52EA43057FF4EBAE12E735
:100EC0004FF0FF3C06E000BF4FF0010C02E000BF16
:100ED0004FF0010C4DF804CD4FEA40024FEA4103B8
:100EE0007FEA226C18BF7FEA236C11D001B052EA6E
:100EF000530C18BF90EA010F58BFB2EB030088BF34
:100F0000C81738BF6FEAE17018BF40F001007047A2
:100F10007FEA226C02D15FEA402C05D17FEA236C84
:100F2000E4D15FEA412CE1D05DF8040B704700BFCB
:100F3000844608466146FFE70FB5FFF7C9FF002862
:100F400048BF10F1000F0FBD4DF808EDFFF7F4FF9B
:100F50000CBF012000205DF808FB00BF4DF808ED34
:100F6000FFF7EAFF34BF012000205DF808FB00BF57
:100F70004DF808EDFFF7E0FF94BF012000205DF879
:100F800008FB00BF4DF808EDFFF7D2FF94BF01202A
:100F900000205DF808FB00BF4DF808EDFFF7C8FF23
:100FA00034BF012000205DF808FB00BF4FEA40027B
:100FB000B2F1FE4F0FD34FF09E03B3EB12620DD987
:100FC0004FEA002343F0004310F0004F23FA02F0F1
:100FD00018BF404270474FF00000704712F1610F98
:100FE00001D1420205D110F0004008BF6FF000406F
:100FF00070474FF0000070470348044B834202D013
:10100000034B03B1184770471C0000201C00002050
:10101000000000000548064B1B1AD90F01EBA30185
:10102000491002D0034B03B1184770471C00002041
:101030001C0000200000000010B5064C237843B9C6
:10104000FFF7DAFF044B13B10448AFF3008001232C
:10105000237010BD1C000020000000008C4200081E
:1010600008B5054B1BB105490548AFF30080BDE845
:101070000840FFF7CFBF00BF0000000020000020A5
:101080008C42000800B583B000210191094B1A6B16
:1010900042F400121A631B6B03F400130193019BCB
:1010A0000A46112000F0CCFB112000F001FC03B037
:1010B0005DF804FB003802402DE9F04F8DB00024AC
:1010C0000794089409940A940B9401947B4B1A6B2F
:1010D00042F010021A631A6B02F010020192019A98
:1010E00002941A6B42F004021A631A6B02F00402B3
:1010F0000292029A03941A6B42F080021A631A6BEE
:1011000002F080020392039A04941A6B42F00102E7
:101110001A631A6B02F001020492049A05941A6B86
:1011200042F002021A631A6B02F002020592059A5B
:1011300006941A6B42F008021A631B6B03F0080353
:101140000693069B224608215D4800F031FFDFF838
:10115000748101221146404600F02AFFDFF868A1A1
:1011600022464FF21001504600F022FF0825079555
:101170000126089609940A9407A9514800F01EFE1A
:101180000796089609940A9407A9404600F016FEAF
:1011900007950225089509940A944FF0050BCDF8A0
:1011A0002CB007A9404600F009FE07964FF49013B3
:1011B00008930994454F07A9384600F0FFFD102316
:1011C0000793089509940A9406220B9207A93846BA
:1011D00000F0F4FDE0230793089509940A94CDF8F4
:1011E0002CB007A9384600F0E9FD042107910894C6
:1011F0000994DFF8DC9007A80146484600F0DEFDC0
:101200004FF480630793089509940A94CDF82CB0A5
:1012100007A80146484600F0D1FD4FF2100307939E
:10122000089609940A9407A80146504600F0C6FDA6
:101230004FF4A4530793089509940A9406220B923D
:1012400007AA1146404600F0B9FD4FF4007307931A
:101250000894099407AA1146384600F0AFFD4FF4F0
:10126000E0530793089509940A940A230B9307AA5D
:101270001146384600F0A2FD2023079308940994F4
:1012800007AA1146504600F099FD4FF410730793DA
:101290001223089309960A9404210B9107A9484642
:1012A00000F08CFD07954FF490130893099407A95B
:1012B000034800F083FD0DB0BDE8F08F0038024018
:1012C0000010024000080240000C024000000240F2
:1012D0000004024072B6FEE700B595B0302200214E
:1012E00008A802F001F800230393049305930693E2
:1012F00007930193214A116C41F080511164126CE3
:1013000002F080520192019A02931D4B1A6842F436
:1013100080421A601B6803F480430293029B0123FE
:1013200008934FF48033099302230E934FF4800205
:101330000F92082210924FF4A87211921293072371
:10134000139308A800F03AFE98B90F2303930223E1
:101350000493002305934FF4A05306934FF4805356
:101360000793052103A801F093F820B915B05DF8A3
:1013700004FBFFF7AFFFFFF7ADFF00BF00380240EF
:101380000070004008B500F01DFAFFF7A5FFFFF759
:1013900093FEFFF777FE00F043F800F0B9F900F094
:1013A0003BF9FEE700B583B0002100910C4B5A6C6D
:1013B00042F480425A645A6C02F480420092009ACD
:1013C00001911A6C42F080521A641B6C03F0805336
:1013D0000193019B072000F021FA03B05DF804FBA4
:1013E00000380240FEE7FEE7FEE7FEE7FEE7704753
:1013F0007047704708B500F0FFF908BD08B502480E
:1014000000F0EEFB08BD00BF3800002008B5024820
:1014100001F0C6FC08BD00BF980000207047000026
:1014200008B50A480A4B03604FF4E13343600023D8
:101430008360C36003610C2242618361C36101F078
:1014400035FA00B908BDFFF745FFFBE7980000201B
:101450000044004030B589B0002303930493059302
:10146000069307930268284B9A4201D009B030BD19
:1014700004460025019503F5FA331A6C42F4003254
:101480001A641A6C02F400320192019A02951A6BE6
:1014900042F001021A631B6B03F001030293029BEB
:1014A0000C23039302230493032306930723079338
:1014B00003A9164800F082FC1548164B03604FF054
:1014C0000063436040238360C5604FF48063036121
:1014D000456185614FF48073C3614FF4003303624B
:1014E000456200F085FA58B9094B63639C6300229A
:1014F0001146262000F0A4F9262000F0D9F9B5E71E
:10150000FFF7E8FEF0E700BF0044004000000240A3
:1015100038000020A0600240002302E0FF22C254F5
:101520000133032BFADD40F6040302E0FF22C2542C
:10153000013340F607029342F8DD704700000000D7
:10154000F0B583B02E4B1B780BB104251AE040F6A2
:10155000080517E02B4B19680198FEF731FE019042
:10156000002305E0EA1801A9C85C27498854013323
:10157000032BF7D9254C264B19682068FFF7E6F8AE
:10158000206004351E4B1B783BB34FF400639D4233
:1015900026DA002301930024012CDBDC1D4B53F8D9
:1015A0002400FFF725F814A3D3E90023FFF776FA08
:1015B00006460F46154B1868FFF71AF832463B46A9
:1015C000FFF76CFAFFF76CF801F070FF0146019825
:1015D000FFF7BCF801900134DEE741F20803D6E7DB
:1015E000074A1378B3FA83F35B091370107803B0DA
:1015F000F0BD00BFAFF30080182D4454FB2119400B
:10160000040000200C000020E0000020DC0000208E
:1016100008000020CC42000810B5074C2046FFF718
:101620007BFFFFF78DFFFFF78BFF41F2080221469A
:10163000024801F0D7F910BDE0000020980000201A
:1016400010B5044602E0204601F01AFA054B1B785B
:10165000DBB2012BF7D1204601F068FAFFF770FFEB
:1016600010BD00BF0400002010B5044602E0204673
:1016700001F006FA044B1B78002BF8D1204601F04C
:1016800055FAFFF75DFF10BD0400002008B541F2D8
:101690000802002101F028FE08BD000038B505460B
:1016A0000D48FFF7F3FF002403E02A5D0A4B1A55AB
:1016B00001342846FFF784F9A042F6D8064C4FF0D3
:1016C000FF334FF480622146044801F01EF92046A2
:1016D000FFF7DCFF38BD00BFE000002098000020CD
:1016E00010B5084C4FF0FF3306220749204601F0A1
:1016F0000CF94FF0FF3304220449204601F005F9AC
:1017000010BD00BF98000020BC420008C442000881
:1017100008B5FFF7E5FF0248FFF7C0FF08BD00BFAF
:10172000D4420008DFF834D00D480E490E4A002399
:1017300002E0D458C4500433C4188C42F9D30B4A85
:101740000B4C002301E013600432A242FBD3FFF7ED
:1017500065FE01F01BFEFFF715FE7047000002203A
:10176000000000201C000020E04600081C000020B3
:1017700084120020FEE7000010B504460E4B1A78D4
:101780004FF47A73B3FBF2F30C4A1068B0FBF3F03A
:1017900000F09CF868B90F2C01D901200AE0002262
:1017A00021464FF0FF3000F04BF8054B1C60002045
:1017B00000E0012010BD00BF10000020000000204C
:1017C0001400002008B50B4B1A6842F400721A602E
:1017D0001A6842F480621A601A6842F480721A60D1
:1017E000032000F01BF80020FFF7C6FFFFF7DAFD2B
:1017F000002008BD003C0240034A1168034B1B78DF
:101800000B441360704700BFE81000201000002058
:10181000014B1868704700BFE8100020074AD368E2
:1018200023F4E0631B041B0C000200F4E06003439C
:1018300043F0BF6343F40033D360704700ED00E032
:1018400000B5194BDB68C3F30223C3F1070CBCF1ED
:10185000040F28BF4FF0040C03F1040EBEF1060F75
:1018600018D9033B4FF0FF3E0EFA0CFC21EA0C01A5
:1018700099400EFA03FE22EA0E020A4300280BDB0F
:101880001201D2B200F1604000F5614080F80023FF
:101890005DF804FB0023E5E700F00F001201D2B26F
:1018A000024B1A54F4E700BF00ED00E014ED00E035
:1018B000002807DB00F01F02400901239340024A81
:1018C00042F82030704700BF00E100E00138B0F17D
:1018D000807F0BD24FF0E0235861054AF02182F857
:1018E00023100020986107221A6170470120704779
:1018F00000ED00E030B405682C6824F480242C60EE
:10190000046863608368402B05D0036899600368AE
:10191000DA6030BC704703689A600368D960F8E702
:1019200010B40368D9B210390B4AA2FB0142120964
:101930000A4CA25CC2655F2908D923F47F7323F0A7
:10194000030304338365806D10BC704723F47F73F9
:1019500023F003038365F6E7ABAAAAAAF4420008C2
:10196000836A826992B9012B0AD0022B02D00BB193
:1019700000207047C36A13F0807F28D10020704791
:10198000C36AB3F1C07F24D000207047B2F5005F76
:1019900009D0022B25D9032B25D1C36A13F0807FF0
:1019A00023D100207047032B03D8DFE803F0140491
:1019B000140A00207047C36A13F0807F0DD1002005
:1019C0007047C36AB3F1C07F09D00020704701207F
:1019D00070470120704701207047012070470120A7
:1019E00070470120704700207047012070470000B9
:1019F00070B50446FFF70CFF002C5BD005460223B0
:101A000084F83530002384F834302268136823F0DA
:101A10000103136023681A6812F0010F0AD0FFF760
:101A2000F7FE431B052BF5D920236365032084F8BB
:101A3000350070BD1A68204911406268A0680243F1
:101A4000E06802432069024360690243A0690243DF
:101A5000E0690243206A02430A43616A04291ED0F6
:101A60001A602668756925F00705636A1D43042B13
:101A700007D1A36A1D43E36A1BB12046FFF770FF3D
:101A800090B975612046FFF74BFFE26D3F2393400D
:101A9000836000206065012384F83530C9E7E16A7E
:101AA000206B01430A43DBE740236365012084F890
:101AB0003500BEE70120BCE73F8010F038B5044692
:101AC000856D90F8340001282BD0012084F8340073
:101AD00094F83500C0B2012804D0002384F83430D3
:101AE000022038BD022084F83500002060652046C1
:101AF000FFF700FFE26D3F239340AB60226813685D
:101B000043F016031360236C23B12268136843F07B
:101B1000080313602268136843F001031360002078
:101B2000DFE70220DDE770B50446866DFFF770FE43
:101B300094F83530DBB2022B06D080236365002396
:101B400084F83430012070BD05462268136823F004
:101B5000160313602268536923F080035361236CDA
:101B6000E3B12268136823F0080313602268136846
:101B700023F00103136023681B6813F0010F11D0D9
:101B8000FFF746FE431B052BF5D920236365032091
:101B900084F83500002384F83430D4E7A36C002B9C
:101BA000DFD1E3E7E26D3F239340B360012384F884
:101BB0003530002084F83400C5E790F83530DBB2CA
:101BC000022B03D08023436501207047052380F852
:101BD00035300268136823F001031360002070475A
:101BE000F0B583B0044600230193724B1D68724B1D
:101BF000A3FB0535AD0A876D3E68C26D082393408F
:101C0000334210D003681A6812F0040F0BD01A6820
:101C100022F004021A60C26D08239340BB60436D3A
:101C200043F001034365E26D01239340334209D041
:101C30002268526912F0800F04D0BB60636D43F0DC
:101C400002036365E26D04239340334209D02268A6
:101C5000126812F0020F04D0BB60636D43F00403FE
:101C60006365E26D10239340334224D022681268EA
:101C700012F0080F1FD0BB6023681A6812F4802F7F
:101C80000DD01B6813F4002F04D1236C9BB12046A8
:101C9000984710E0A36C73B1204698470BE01A6890
:101CA00012F4807F03D11A6822F008021A60236CB4
:101CB0000BB120469847E26D20239340334255D024
:101CC0002268126812F0100F50D0BB6094F83530C3
:101CD000DBB2052B0ED023681A6812F4802F33D0A4
:101CE0001B6813F4002F2AD1636C002B3ED02046D2
:101CF00098473BE02268136823F0160313602268BC
:101D0000536923F080035361236CA3B122681368E5
:101D100023F008031360E26D3F239340BB6001236F
:101D200084F83530002384F83430236D002B3FD005
:101D3000204698473CE0A36C002BE7D1EBE7E36B30
:101D4000A3B12046984711E01A6812F4807F09D1A8
:101D50001A6822F010021A60012384F8353000233B
:101D600084F83430E36B0BB120469847636DFBB1C8
:101D7000636D13F0010F17D0052384F83530226806
:101D8000136823F001031360019B01330193AB42FD
:101D900004D823681B6813F0010FF5D1012384F8E0
:101DA0003530002384F83430E36C0BB1204698477B
:101DB00003B0F0BD00000020B5814E1B00230F2BA7
:101DC00000F2EC8030B583B068E085684FEA430EDE
:101DD000032404FA0EF425EA0405CC6804FA0EF490
:101DE0002C438460446824EA02044A68C2F3001267
:101DF0009A40224342605FE0DC08083450F8242017
:101E000003F00705AD004FF00F0E0EFA05FE22EAB3
:101E10000E0E0A69AA4042EA0E0240F824205FE052
:101E2000072200E0002202FA0EF22A4302345C4D3F
:101E300045F824205B4A94686FEA0C0224EA0C05FA
:101E4000D1F804E01EF4801F01D04CEA0405554C83
:101E5000A560E46802EA0405D1F804E01EF4001F5E
:101E600001D04CEA04054F4CE560646802EA0405C1
:101E7000D1F804E01EF4003F01D04CEA0405494CBF
:101E80006560246822404D6815F4803F01D04CEA1B
:101E90000402444C226001330F2B7DD801229A406A
:101EA0000C6804EA020C32EA0404F4D14C6804F031
:101EB0000304013C012C88D94A6802F00302032A7A
:101EC00009D0C4685D000322AA4024EA02048A689B
:101ED000AA402243C2604A6802F00302022A8BD061
:101EE00004684FEA430E032202FA0EF224EA0204C7
:101EF0004A6802F0030202FA0EF2224302604A68C4
:101F000012F4403FC7D000220192274A546C44F497
:101F100080445464526C02F480420192019A9C08FD
:101F2000A51C1F4A52F8255003F0030E4FEA8E0EEF
:101F30000F2202FA0EF225EA02051C4A90423FF4F3
:101F400071AF02F5806290421AD002F58062904231
:101F500018D002F58062904216D002F5806290425D
:101F600014D002F58062904212D002F58062904255
:101F700010D002F5806290423FF452AF082252E73F
:101F8000012250E702224EE703224CE704224AE7EF
:101F9000052248E7062246E703B030BD704700BF80
:101FA00000380140003C014000380240000002407F
:101FB0000AB181617047090481617047002800F00F
:101FC000E08170B582B00446036813F0010F3BD086
:101FD0009F4B9B6803F00C03042B2CD09C4B9B68FD
:101FE00003F00C03082B21D06368B3F5803F4FD07A
:101FF000B3F5A02F52D0964B1A6822F480321A60A3
:102000001A6822F480221A606368002B50D0FFF710
:10201000FFFB05468E4B1B6813F4003F14D1FFF7FE
:10202000F7FB401B6428F5D90320B1E1884B5B68BE
:1020300013F4800FD8D0864B1B6813F4003F03D0F5
:102040006368002B00F09F81236813F0020F54D0C7
:102050007F4B9B6813F00C0F3ED07D4B9B6803F0C9
:102060000C03082B33D0E368002B68D0794B012296
:102070001A60FFF7CDFB0546754B1B6813F0020F86
:1020800054D1FFF7C5FB401B0228F5D903207FE19F
:102090006F4A136843F480331360B5E76C4B1A68DA
:1020A00042F480221A601A6842F480321A60ABE768
:1020B000FFF7AEFB0546664B1B6813F4003FC3D029
:1020C000FFF7A6FB401B6428F5D9032060E1604BB5
:1020D0005B6813F4800FC6D15D4B1B6813F0020FD1
:1020E00003D0E368012B40F05081594A136823F074
:1020F000F803216943EAC1031360236813F0080F52
:1021000042D063696BB3534B0122C3F8802EFFF7B3
:102110007FFB05464E4B5B6F13F0020F34D1FFF788
:1021200077FB401B0228F5D9032031E1484A1368A8
:1021300023F0F803216943EAC1031360DDE7454B4F
:1021400000221A60FFF764FB0546414B1B6813F041
:10215000020FD2D0FFF75CFB401B0228F5D9032009
:1021600016E13C4B0022C3F8802EFFF751FB0546D9
:10217000374B5B6F13F0020F06D0FFF749FB401B94
:102180000228F5D9032003E1236813F0040F77D068
:102190002F4B1B6C13F0805F33D1002301932C4B2A
:1021A0001A6C42F080521A641B6C03F08053019346
:1021B000019B0125284B1B6813F4807F23D0A36863
:1021C000012B34D0052B38D0214B1A6F22F001029D
:1021D0001A671A6F22F004021A67A368002B3DD019
:1021E000FFF716FB06461A4B1B6F13F0020F46D182
:1021F000FFF70EFB801B41F288339842F3D903208E
:10220000C6E00025D6E7144A136843F480731360D0
:10221000FFF7FEFA0646104B1B6813F4807FCED101
:10222000FFF7F6FA801B0228F5D90320B0E0084A30
:10223000136F43F001031367CFE7054B1A6F42F0AA
:1022400004021A671A6F42F001021A67C5E700BF5D
:10225000003802400000474200700040FFF7D8FA03
:102260000646524B1B6F13F0020F08D0FFF7D0FA4F
:10227000801B41F288339842F3D9032088E0EDB9FE
:10228000A369002B00F08380484A926802F00C0298
:10229000082A51D0022B17D0454B00221A66FFF7AF
:1022A000B7FA0446414B1B6813F0007F42D0FFF79A
:1022B000AFFA001B0228F5D9032069E03B4A136CF2
:1022C00023F080531364DBE7394B00221A66FFF7D3
:1022D0009FFA0546354B1B6813F0007F06D0FFF7C9
:1022E00097FA401B0228F5D9032051E0E369226ADE
:1022F0001343626A43EA8213A26A5208013A43EA2C
:102300000243E26A43EA0263284A5360284B0122EF
:102310001A66FFF77DFA0446244B1B6813F0007F12
:1023200006D1FFF775FA001B0228F5D903202FE02C
:1023300000202DE000202BE0012B2BD01B4B5B68F5
:1023400003F48001E269914226D103F03F02216A41
:102350008A4223D1616A47F6C0721A40B2EB811FEC
:102360001ED103F44031A26A5208013AB1EB024F88
:1023700018D103F07063E26AB3EB026F14D100204E
:1023800006E001207047012002E0012000E000206B
:1023900002B070BD0120FBE70120F9E70120F7E75B
:1023A0000120F5E70120F3E70120F1E700380240C2
:1023B0000000474208B5334B9B6803F00C03042B25
:1023C0005BD0082B5BD12F4B5A6802F03F025B6851
:1023D00013F4800F2CD02B4B5868C0F388104FEAB1
:1023E000401CBCEB000C6EEB0E0E4FEA8E1343EA62
:1023F0009C634FEA8C11B1EB0C0163EB0E03DB0025
:1024000043EA5173C90011EB000C43F10003590278
:1024100000234FEA4C2041EADC51FEF79FFA194BAA
:102420005B68C3F3014301335B00B0FBF3F027E0CB
:10243000144B5868C0F388104FEA401CBCEB000CEA
:102440006EEB0E0E4FEA8E1343EA9C634FEA8C113B
:10245000B1EB0C0163EB0E03DB0043EA5173C900DF
:1024600011EB000C43F10003990200234FEA8C208A
:1024700041EA9C51FEF772FAD1E7034800E00348B5
:1024800008BD00BF0038024000127A000024F400AA
:10249000002800F09B8070B50D4604464F4B1B682A
:1024A00003F007038B4208D2CBB24C4A1370136877
:1024B00003F007038B4240F08B80236813F0020F78
:1024C00017D013F0040F04D0454A936843F4E05347
:1024D0009360236813F0080F04D0414A936843F4D3
:1024E000604393603E4A936823F0F003A1680B4376
:1024F0009360236813F0010F32D06368012B21D061
:102500009A1E012A25D9364A126812F0020F61D0AC
:1025100033498A6822F0030213438B60FFF778F98E
:1025200006462F4B9B6803F00C036268B3EB820FE7
:1025300016D0FFF76DF9801B41F288339842F0D92D
:10254000032042E0264A126812F4003FE0D1012045
:102550003BE0234A126812F0007FD9D1012034E019
:102560001E4B1B6803F00703AB4207D9EAB21B4BB3
:102570001A701B6803F00703AB422DD1236813F0D8
:10258000040F06D0164A936823F4E053E1680B4326
:102590009360236813F0080F07D0114A936823F45F
:1025A0006043216943EAC1039360FFF703FF0C4BCB
:1025B0009B68C3F303130B4AD35CD8400A4B1860E3
:1025C0000A4B1868FFF7D8F8002070BD012070474B
:1025D0000120FAE70120F8E70120F6E7003C02407D
:1025E00000380240A442000800000020140000202F
:1025F000014B1868704700BF0000002008B5FFF7C6
:10260000F7FF044B9B68C3F38223034AD35CD84093
:1026100008BD00BF00380240B442000808B5FFF70B
:10262000E7FF044B9B68C3F34233034AD35CD840B3
:1026300008BD00BF00380240B4420008026802F141
:102640000C0353E8003F23F0C0030C3242E8003192
:102650000029F3D1202380F83D307047026802F151
:102660000C0353E8003F23F490730C3242E800312E
:102670000029F3D1026802F1140353E8003F23F06C
:102680000103143242E800310029F3D1036B012B1E
:1026900005D0202380F83E30002303637047026892
:1026A00002F10C0353E8003F23F010030C3242E820
:1026B00000310029F3D1ECE790F83D30DBB2212B5B
:1026C00001D0022070478368B3F5805F17D0036A9A
:1026D0005A1C02621A7803685A60C38C9BB2013B91
:1026E0009BB2C3844BB90268D36823F08003D360E4
:1026F0000268D36843F04003D36000207047036949
:10270000002BE4D1036A1B880268C3F308035360FB
:10271000036A02330362E0E710B5044602681369F6
:1027200023F44053C1680B431361836802691A4361
:1027300043691A43C3691A430168CB6823F41643FB
:1027400023F00C031343CB600268536923F44073F6
:1027500081690B4353610368314A934206D002F505
:102760008062934202D0FFF749FF01E0FFF756FF76
:10277000E369B3F5004F29D00021031849411B1824
:1027800041F10001C90041EA5371DB001818636888
:102790004FEA83024FEA937341F10001FEF7DEF83E
:1027A000204AA2FB00314909642303FB11031B01EA
:1027B0003233A2FB03235B0903F0F00202EB0112A8
:1027C00003F00F03216813448B6010BD002302182F
:1027D00043EB0301121841F10001C90041EA5271B3
:1027E000D200101841F10001626892185B41FEF7B7
:1027F000B5F80C4AA2FB00314909642303FB11031D
:10280000DB003233A2FB03235B095A0002F4F872A7
:1028100002EB011203F00703216813448B60D4E735
:10282000001001401F85EB512DE9F84305460F4686
:1028300016469946DDF820802B681C6837EA0404A8
:102840000CBF01240024B4422DD1B8F1FF3FF3D0D6
:10285000B8F1000F05D0FEF7DBFFA0EB0900404503
:10286000EAD92A6802F10C0353E8003F23F4D0733D
:102870000C3242E800310029F3D12A6802F1140336
:1028800053E8003F23F00103143242E800310029ED
:10289000F3D1202385F83D3085F83E30002385F8BC
:1028A0003C30032000E00020BDE8F88358B310B5A9
:1028B000044690F83D300BB3242384F83D30226861
:1028C000D36823F40053D3602046FFF725FF226826
:1028D000136923F4904313612268536923F02A0398
:1028E00053612268D36843F40053D360002020640E
:1028F000202384F83D3084F83E3010BD80F83C3011
:10290000FEF7A8FDD8E7012070472DE9F04182B01D
:102910001E4690F83D30DBB2202B54D104460D46C4
:102920009046002953D0002A53D090F83C30012B18
:1029300051D0012380F83C3000230364212380F828
:102940003D30FEF765FF0746A4F82480A4F82680F2
:10295000A368B3F5805F05D04FF00008002384F82A
:102960003C3012E0236913B14FF00008F6E7A846A7
:102970000025F3E738F8023B2268C3F308035360ED
:10298000E28C92B2013A92B2E284E38C9BB273B1D0
:1029900000963B46002280212046FFF745FFE0B924
:1029A000002DE7D015F8012B23685A60E8E7009660
:1029B0003B46002240212046FFF736FF78B920230E
:1029C00084F83D3000E0022002B0BDE8F081012033
:1029D000FAE70120F8E70220F6E70320F4E70320F6
:1029E000F2E7000038B5134690F83D20D2B2202A15
:1029F00037D10446002936D0002B36D090F83C2041
:102A0000012A34D0012280F83C2001628384C384EF
:102A100000250564212280F83D20426B1548D063D3
:102A2000626B15481064626B1448D064626B156564
:102A300022680432606BFFF741F823686FF04002B0
:102A40001A6084F83C50226802F1140353E8003FF6
:102A500043F08003143242E800310029F3D1002012
:102A600000E0022038BD0120FCE70120FAE7022047
:102A7000F8E700BFDF2B0008452C0008532C0008A6
:102A8000034690F83C20012A4ED0012280F83C20D9
:102A90000268516901F0800190F83D20D2B2212AEC
:102AA0000CD01A68516901F0400193F83E20D2B26F
:102AB000222A12D0002083F83C0070470029F0D071
:102AC000196801F1140252E8002F22F0800214313B
:102AD00041E800200028F3D1E3E70029EAD0196893
:102AE00001F10C0252E8002F22F480720C3141E80F
:102AF00000200028F3D1196801F1140252E8002FD8
:102B000022F00102143141E800200028F3D11968B5
:102B100001F1140252E8002F22F04002143141E882
:102B200000200028F3D1C5E70220704790F83C2030
:102B3000012A52D00346012280F83C2090F83D2023
:102B4000D2B2212A08D093F83E20D2B2222A10D045
:102B5000002083F83C007047196801F1140252E824
:102B6000002F42F08002143141E800200028F3D108
:102B7000E9E782B0002201921A6811680191526857
:102B80000192019A1A695AB1196801F10C0252E8CE
:102B9000002F42F480720C3141E800200028F3D16C
:102BA000196801F1140252E8002F42F001021431B9
:102BB00041E800200028F3D1196801F1140252E81D
:102BC000002F42F04002143141E800200028F3D1E8
:102BD000002083F83C0002B070470220704708B51F
:102BE0000346806B1B681B6813F4807F1AD1002397
:102BF000C384026802F1140353E8003F23F080030A
:102C0000143242E800310029F3D1026802F10C03CA
:102C100053E8003F43F040030C3242E80031002902
:102C2000F3D108BDFEF720FDFBE708B50168CA68CF
:102C300022F04002CA60202280F83D20FEF714FDF9
:102C4000002008BD08B5806BFEF7FAFC08BD704790
:102C5000704710B5846B23685A6994F83D30DBB235
:102C6000212B10D023685A6902F0400294F83E30BC
:102C7000DBB2222B11D0236C43F0100323642046D7
:102C8000FFF7E6FF10BD02F08002002AEAD0002321
:102C9000E3842046FFF7D2FCE4E7002AEBD00023D0
:102CA000E3852046FFF7DAFCE5E708B5806B0023F3
:102CB000C385C384FFF7CCFF08BD704790F83E3052
:102CC000DBB2222B67D18368B3F5805F4DD0826A77
:102CD000B3F5805F04D0002B54D10369002B51D190
:102CE00003685B681370836A01338362C38D9BB290
:102CF000013B9BB2C385002B4FD100B583B0026866
:102D0000D36823F02003D3600268D36823F4807370
:102D1000D3600268536923F001035361202380F8D4
:102D20003E30036B012B33D100230363026802F1B1
:102D30000C0353E8003F23F010030C3242E800314B
:102D40000029F3D103681A6812F0100F06D0002290
:102D500001921A6801925B680193019B818DFFF7D4
:102D6000ACFF002003B05DF804FB0269002AAED17D
:102D7000826A03685B68C3F308031380836A0233C3
:102D80008362B3E703685B6803F07F031370AAE70D
:102D9000FFF75DFFE5E70220704700207047000065
:102DA00030B583B0044602681368D068516913F0E7
:102DB0000F0505D113F0200F02D010F0200F19D10C
:102DC0002DB111F0010119D110F4907F16D1216BB2
:102DD00001297DD013F0800F03D010F0800F40F058
:102DE000158113F0400F03D010F0400F40F0128116
:102DF00003B030BD2046FFF761FFF9E713F0010F84
:102E000006D010F4807F03D0226C42F001022264CD
:102E100013F0040F04D019B1226C42F002022264B4
:102E200013F0020F04D019B1226C42F004022264A4
:102E300013F0080F07D010F0200F00D119B1226C49
:102E400042F008022264226C002AD1D013F0200F35
:102E500002D010F0200F29D123685B6903F04003F2
:102E6000226C12F0080F00D163B32046FFF7F6FB87
:102E700023685B6913F0400F20D0226802F114032D
:102E800053E8003F23F04003143242E800310029A8
:102E9000F3D1A36B73B1614A1A65A06BFEF78DFE87
:102EA0000028A5D0A06B036D9847A1E72046FFF747
:102EB00005FFD1E72046FFF7CBFE99E72046FFF755
:102EC000C7FE95E72046FFF7C3FE002323648FE784
:102ED00013F0100F3FF47EAF10F0100F3FF47AAFF5
:102EE000002301931368019353680193019B536975
:102EF00013F0400F50D0A26B13685B689BB2002B9D
:102F00003FF476AFA18D99427FF672AFE385D36926
:102F1000B3F5807F37D0226802F10C0353E8003FFD
:102F200023F480730C3242E800310029F3D1226887
:102F300002F1140353E8003F23F00103143242E886
:102F400000310029F3D1226802F1140353E8003F55
:102F500023F04003143242E800310029F3D120234A
:102F600084F83E3000232363226802F10C0353E807
:102F7000003F23F010030C3242E800310029F3D166
:102F8000A06BFEF7D0FDA18DE38D9BB2C91A89B26B
:102F90002046FFF792FE2BE7A18DE38D9BB2C91A65
:102FA00089B2E38D9BB2002B3FF422AF00293FF49E
:102FB0001FAF226802F10C0353E8003F23F4907323
:102FC0000C3242E800300028F3D1226802F11403E9
:102FD00053E8003F23F00103143242E80030002898
:102FE000F3D1202384F83E3000232363226802F1CA
:102FF0000C0353E8003F23F010030C3242E800308A
:103000000028F3D12046FFF758FEF1E62046FFF7EF
:1030100053FBEDE62046FFF708FEE9E6AB2C00087F
:103020002DE9F047089E0D4604460F46002B4AD175
:103030008A42944665D9B2FA82F343B102FA03FC9C
:10304000C3F120029F4020FA02F217439C404FEA4E
:103050001C4E1FFA8CF5B7FBFEF1220C0EFB11770C
:1030600042EA074201FB05F090420AD91CEB02023A
:1030700001F1FF3780F01B81904240F21881023944
:103080006244121AA4B2B2FBFEF00EFB102244EA14
:10309000024400FB05F5A5420AD91CEB040400F12B
:1030A000FF3280F00681A54240F203816444023879
:1030B00040EA0140641B00211EB1DC400023C6E948
:1030C0000043BDE8F0878B4208D9002E00F0EC8069
:1030D0000021C6E900050846BDE8F087B3FA83F190
:1030E000002949D1AB4202D3824200F2F780841A10
:1030F00065EB030201201746002EE2D0C6E9004727
:10310000DFE702B9FFDEB2FA82F3002B40F08F80D6
:103110008A1A4FEA1C471FFA8CFE0121B2FBF7F511
:1031200007FB1520220C42EA00420EFB05F09042FC
:1031300008D91CEB020205F1FF3802D2904200F2DE
:10314000CA804546121AA4B2B2FBF7F007FB102260
:1031500044EA02440EFB00FEA64508D91CEB040419
:1031600000F1FF3202D2A64500F2BA801046A4EB6D
:103170000E0440EA05409FE7C1F120078B4022FA88
:1031800007FC4CEA030C05FA01F420FA07F3FD40B2
:10319000234300FA01F94FEA1C401FFA8CFEB5FBED
:1031A000F0F81C0C00FB185544EA054408FB0EF52A
:1031B000A54202FA01F20BD91CEB040408F1FF3A14
:1031C00080F08780A54240F28480A8F10208644420
:1031D000641B9DB2B4FBF0F300FB134445EA0444C6
:1031E00003FB0EFEA64508D91CEB040403F1FF30D7
:1031F0006BD2A64569D9023B644443EA0840A0FB70
:103200000283A4EB0E049C42C6461D4655D352D001
:1032100056B1B9EB0E0364EB050404FA07F7CB4093
:10322000CC401F43C6E900740021BDE8F087C3F11C
:10323000200102FA03FC20FA01F225FA01F19D4077
:103240002A434FEA1C471FFA8CFEB1FBF7F007FB3D
:103250001015110C41EA054100FB0EF58D4204FAF0
:1032600003F408D91CEB010100F1FF382FD28D4285
:103270002DD902386144491B92B2B1FBF7F507FB27
:10328000151142EA014205FB0EF1914208D91CEBEF
:10329000020205F1FF3816D2914214D9023D624470
:1032A000521A45EA004139E73146304609E73946C6
:1032B000E7E61046FCE6C145AAD2B8EB020E63EB86
:1032C0000C050138A4E74546EAE7034695E7404682
:1032D000D1E7D0467CE7023D624433E708460BE77E
:1032E0006444023843E700BF830730B548D0541E1A
:1032F000002A3FD0CAB2034601E0013C3AD303F8AA
:10330000012B9D07F9D1032C2DD9CDB245EA052516
:103310000F2C45EA054536D9A4F1100222F00F0C16
:1033200003F1200EE6444FEA121C03F1100242E9B9
:10333000045542E9025510327245F8D10CF10102F0
:1033400014F00C0F03EB021204F00F0C13D0ACF1CD
:10335000040323F003030433134442F8045B934251
:10336000FBD10CF003042CB1C9B21C4403F8011BBF
:103370009C42FBD130BD64461346002CF4D1F9E7E2
:1033800003461446BFE71A46A446E0E770B50D4E63
:103390000D4D761BB61006D0002455F8043B0134C1
:1033A0009847A642F9D1094E094D761B00F06EFFF1
:1033B000B61006D0002455F8043B01349847A642C5
:1033C000F9D170BDD4460008D4460008DC46000898
:1033D000D4460008704700BF704700BF024B13B1CE
:1033E000024800F005B8704700000000FD330008F7
:1033F000002301461A46184600F014B838B5074DA8
:10340000074C2C1BA41005D0013C55F8043D9847EF
:10341000002CF9D1BDE8384000F03EBFE04600087E
:10342000DC4600082DE9F047DFF874A00646DAF81C
:10343000000098460F469146FFF7CCFF194B1C68D9
:1034400024B365681F2D24DC5EB96B1C0235DAF8E5
:103450000000636044F82570FFF7BEFF0020BDE860
:10346000F08704EB85010123C1F88890D4F8882106
:10347000AB401A43022EC4F88821C1F80881E4D178
:10348000D4F88C211A43C4F88C21DEE7064C1C606A
:10349000D7E7DAF80000FFF79FFF4FF0FF30DEE7D5
:1034A00018000020F0100020F4100020174A20F02F
:1034B000004393421ADD00B5B3F1FF4F83B005DB43
:1034C0000146FDF741F903B05DF804FB694600F0E1
:1034D0005BF900F00302012A0199009809D0022A41
:1034E0000FD05AB1012200F0D9F8ECE7002100F02A
:1034F0000FB800F0D3F800F10040E4E700F008F85E
:10350000E1E700F005F800F10040DCE7D80F493FA3
:103510002DE9F84320F00045B5F1485F064688469E
:103520004ADAFDF743FD002800F09F80314630461F
:10353000FCF746FE4F490446FCF742FE4E49FDF7B4
:1035400005F92146FCF73CFE4C49FDF7FDF8214604
:10355000FCF736FE4A49FDF7F9F82146FCF730FE44
:103560004849FDF7F1F82146FCF72AFE4649FDF7E8
:10357000EDF82146FCF724FE07464FF07C5120462B
:10358000FCF71EFE3946034620461C46FCF718FE93
:10359000414605463046FCF713FE01462846FDF736
:1035A000D3F801462046FDF7CFF801464FF07E5094
:1035B000FDF7CAF8BDE8F8830146FCF701FE2D4986
:1035C0000446FCF7FDFD2C49FDF7C0F82146FCF749
:1035D000F7FD2A49FDF7B8F82146FCF7F1FD284927
:1035E000FDF7B4F82146FCF7EBFD2649FDF7ACF8F2
:1035F0002146FCF7E5FD2449FDF7A8F82146FCF734
:10360000DFFD224B9D420746B7DD214B9D4228DC62
:1036100005F17F454FF07E502946FDF795F881462C
:103620004FF07C512046FCF7CBFD2946FDF78CF886
:103630003946034620461C46FCF7C2FD4146054676
:103640003046FCF7BDFD01462846FDF77DF80146F2
:103650002046FDF779F801464846FDF775F8BDE8C4
:10366000F883DFF830900C4DDAE74FF07E50BDE87C
:10367000F88300BF4ED747ADF6740F317CF2933418
:10368000010DD037610BB63AABAA2A3D9999993E04
:103690000000483F0000383F0000903E2DE9F8430D
:1036A00020F00043B3F1485F04460E46904603DA2B
:1036B000FDF77CFC002858D021462046FCF780FD11
:1036C000054601462046FCF77BFD294981462846F0
:1036D000FCF776FD2749FDF737F82946FCF770FD22
:1036E0002549FDF733F82946FCF76AFD2349FDF724
:1036F0002BF82946FCF764FD2149FDF727F807461A
:10370000B8F1000F22D04FF07C513046FCF758FD45
:10371000394680464846FCF753FD01464046FDF7D2
:1037200013F82946FCF74CFD3146FDF70DF8154915
:1037300005464846FCF744FD01462846FDF706F8D5
:1037400001462046FDF700F8BDE8F883014628460B
:10375000FCF736FD0B49FCF7F7FF4946FCF730FD57
:103760002146FCF7F3FFBDE8F8832046BDE8F88367
:10377000D3C92E2F342FD7321BEF3836010D5039D5
:103780008988083CABAA2A3E2DE9F04FAB4A20F0CD
:103790000044944289B00D466CDDA94A9442074624
:1037A0001CDC0028A74940F31E81FCF7CDFFA64B87
:1037B00024F00F049C4206466BD0A449FCF7C4FFDA
:1037C000014628603046FCF7BFFFA049FCF7BCFF6C
:1037D00001266860304609B0BDE8F08F9C4A9442EB
:1037E0006CDDB4F1FF4F4DDAE615863EA4EBC6540E
:1037F0002046FDF7DBFBFDF75DF80146204605910D
:10380000FCF7A2FF4FF08741FCF7DAFC8046FDF79A
:10381000CDFBFDF74FF80446214640460694FCF7E1
:1038200093FF4FF08741FCF7CBFC00210790FDF799
:103830008BFB002800F0B88000212046FDF784FBB8
:10384000002814BF01230223824A0192022200921F
:103850002946324605A800F00FF9002F0646B9DACE
:10386000D5E9002302F1004203F100432A606B60B6
:103870004642AFE700262860002230464A6009B081
:10388000BDE8F08F0146FCF75FFF00266860286006
:10389000A0E77149FCF758FF70490446FCF754FF54
:1038A000014628602046FCF74FFF6C49FCF74CFFAF
:1038B00001266860304609B0BDE8F08F00F0D8F806
:1038C00067498046FCF77CFC4FF07C51FCF73EFFDB
:1038D000FDF76CFB0646FCF7EDFF5A498346FCF703
:1038E0006FFC01464046FCF72FFF58498246584678
:1038F000FCF766FC1F2E81460146504620DC721EF6
:10390000584B53F8223024F0FF029A4218D0FCF7AB
:103910001BFF8046C5F8008041465046FCF714FF67
:103920004946FCF711FF002F6860BFF653AF08F15E
:10393000004800F10040C5F800806860764249E721
:10394000FCF702FFC0F3C753C3EBD453082B8046E8
:103950004FEAE452DEDD404903925846FCF730FC62
:10396000804601465046FCF7EFFE0446214650468D
:10397000FCF7EAFE4146FCF7E7FE38498046584628
:10398000FCF71EFC4146FCF7DFFE0146814620465F
:10399000FCF7DAFE039AC0F3C753D21A192A8046FD
:1039A00004DC2860A246B7E703234DE72E495846BA
:1039B000FCF706FC014680462046FCF7C5FE824621
:1039C00051462046FCF7C0FE4146FCF7BDFE2749A4
:1039D00004465846FCF7F4FB2146FCF7B5FE814649
:1039E0000146504693E7FCF7B1FE174B24F00F0455
:1039F0009C4206460ED01549FCF7A8FE01462860F9
:103A00003046FCF7A1FE1149FCF7A0FE4FF0FF364F
:103A10006860DFE61049FCF799FE10490446FCF7A0
:103A200095FE014628602046FCF78EFE0B49FCF708
:103A30008DFE4FF0FF366860CCE600BFD80F493FDF
:103A4000E3CB1640800FC93FD00FC93F4344353701
:103A5000800F49437C4300080044353708A3852E76
:103A600084F9223FFC42000800A3852E32318D24C8
:103A700020F00040704700BF2DE9F04FDDB01C463C
:103A800006930991A64B66990B9253F82130039344
:103A9000111D04F1FF3305460193C0F2EC82D31EE1
:103AA00048BF131DDB1005930133DB000A93DDE9EA
:103AB0000A239B1A0493059A019BD61A039A12EBC8
:103AC000030818D408F10108DDF89C91B0440024E3
:103AD00020AF08E059F82600FCF7ECFE0136464519
:103AE00047F8040B07D0002EF4DA0136204646458D
:103AF00047F8040BF7D1039B002BC0F21183069B00
:103B0000019E20AA02EB83079A000092039A291FC4
:103B100002910DF5907802EB030901EB8305019BFF
:103B2000002BB8BF002410DBDDF808A0BB46002442
:103B30005BF8041D5AF8040FFCF742FB01462046CF
:103B4000FCF704FEAA450446F2D101364E4548F87A
:103B5000044B07F10407E2D1029B009D039A1D4428
:103B60000CAB03EB8203043B07930CAB03EB820328
:103B7000089390465CAB03EB8803B8F1000F53F851
:103B800050AC4FEA880921DD48AF07EB88040CAE42
:103B90004FF06E515046FCF713FBFDF707FAFCF7A8
:103BA00089FE4FF087418346FCF70AFB01465046E9
:103BB000FCF7CAFDFDF7FAF954F8041D46F8040BAA
:103BC0005846FCF7C3FDBC428246E1D1049E5046F4
:103BD000314600F0C1FA4FF078510446FCF7F0FA94
:103BE00000F012FB4FF08241FCF7EAFA0146204652
:103BF000FCF7AAFD0446FDF7D9F98246FCF75AFE08
:103C000001462046FCF7A0FD002E0446314640F355
:103C1000898008F1FF360CAAC1F1080352F826206A
:103C200042FA03F000FA03F3D21AC1F107010CAB18
:103C300042FA01F7002F43F8262082447CDC002161
:103C40002046FDF781F9002800F0D380039B08F19E
:103C5000FF34A34208F1804010DC0CABDDF820C03B
:103C60004FEA880603EB8803002253F8041D6345DE
:103C700042EA0102F9D1002A40F01181039B0CAA0B
:103C8000013B52F82330002B40F00581079B0126B1
:103C900053F8042D0136002AFAD008EB06030093EE
:103CA00008F10107059A02EB0709069A6FF04043F5
:103CB00099441344679A434402EB890920AA02EB12
:103CC000830848AB03EB800A59F8040FFCF7F2FDB8
:103CD000019B48F8040F002B19DBDDF808B04446BF
:103CE000002601E054F8040D5BF8041FFCF768FAA5
:103CF00001463046FCF72AFDAB450646F2D1009B53
:103D00004AF8046F01379F42DEDD984632E7009B98
:103D1000013700269F424AF8046FD5DDF5E700BF62
:103D2000C046000840F09F8008F1FF330CAA52F80B
:103D30002370FF11002F82DDB8F1000F0AF1010A94
:103D400040F39E810C9E002E40F08580B8F1010F5B
:103D500020D00CAB012253F8046F002E7ED0531CF0
:103D60000CA9C6F58076984541F8226011DD09F16D
:103D700030020DEB02010CAA0CA852F8232000EB34
:103D8000830300E01A68C2F1FF0243F8042B8B4260
:103D9000F8D10126049B002B0EDD012B00F0608181
:103DA000022B09D108F1FF320CAB0CA953F82230D9
:103DB00003F03F0341F82230022F7FF440AF214649
:103DC0004FF07E50FCF7C0FC0446002E3FF437AFA6
:103DD00004994FF07E5000F0BFF901462046FCF7F1
:103DE000B3FC044600212046FDF7AEF800287FF41E
:103DF0002DAFDDE90A322046991A009700F0ACF9A0
:103E00004FF087410446FDF7BDF8002800F06481BB
:103E1000049B4FF06E51083320460493FCF7D0F911
:103E2000FDF7C4F8FCF746FD4FF087410546FCF767
:103E3000C7F901462046FCF787FCFDF7B7F80CAB45
:103E400008F1010443F828002846FDF7AFF80CAB51
:103E500043F8240036E00123002281E70132424585
:103E60007FF479AF96E74FF07C51FDF78BF807466A
:103E700000283FF4E4AEB8F1000F0AF1010AC8BF10
:103E800002273FF75FAF21464FF07E50FCF75CFC06
:103E900002270446D3E608F10107009702E7049BD6
:103EA0000097A3F108020CAB049253F824304BB9ED
:103EB000331F0CA90B4453F8041D013C083A002998
:103EC000F9D0049204994FF07E5000F045F9002C8F
:103ED0000746C0F22B81631C9A0001920CAA02EBE8
:103EE000830848AA02934FF06E5602EB830558F8F8
:103EF000040DFCF7DFFC3946FCF762F9314645F862
:103F0000040D3846FCF75CF90CAB98450746EED13A
:103F1000019BDDF80C90CDF810A0083B48AA02EBFD
:103F200003080027A346B9F1000FB8BF002515DB31
:103F3000874C8848C2460025002603E0B7420DDBC7
:103F400054F8040F5AF8041FFCF73AF901462846C2
:103F5000FCF7FCFB0136B1450546EFDA5CAB03EB41
:103F600087035F4543F8A05CA8F104084FEA870681
:103F700007F1010301D01F46D5E7669BDDF810A0CD
:103F8000022B5C4617DC002B7CDC0FD1019C34AD8E
:103F90002C44002054F8041DFCF7D8FBA542F9D1AD
:103FA000009B0BB100F10040099B18600AF007006C
:103FB0005DB0BDE8F08F669B032BF7D1002C00F0BD
:103FC000C28034AF07EB060858F804BC28465946AF
:103FD000FCF7BCFBA946054629465846FCF7B4FB4E
:103FE0004946FCF7B3FBC8F8000048F8045D4745B4
:103FF000EAD1012C40F3A78006F5B8736B44BD19D4
:1040000053F8A04C0DF1D40855F804BC204659468D
:10401000FCF79CFBA146044621465846FCF794FB5E
:104020004946FCF793FB286045F8044DA845EBD1C1
:10403000341D3C440020083754F8041DFCF786FB6F
:10404000A742F9D1009B002B4ED10999349A359B98
:1040500088600AF007000A604B605DB0BDE8F08F31
:1040600008F1FF320CAB0CA953F8223003F07F03A8
:1040700041F82230A0E608230A930023059316E5B1
:10408000002687E6029B34AD05EB8306002056F838
:10409000041DFCF75BFBB542F9D1009B002B34D12A
:1040A000099B014618603498FCF74EFB002C0CDD90
:1040B00034AE012556F8041F0135FCF747FBAC422E
:1040C000F8DA009B0BB100F10040099B58600AF040
:1040D00007005DB0BDE8F08F2046FCF767FF0CAB32
:1040E000444643F82800EDE6DDE93423099900F160
:1040F000004002F1004203F1004388600AF007002B
:104100000A604B605DB0BDE8F08F099A00F1004392
:10411000014613603498FCF717FB002CC8DCD2E78B
:104120002B1F0293069B9B00009315E5669B022BB9
:1041300005DC002B09DC7FF439AF002030E7669BFB
:10414000032B7FF433AF00207CE70020A5E700BFFE
:10415000944600080000C93F10B50C4630F00041FD
:1041600003461DD0B1F1FF4F1BD210F0FF4F0246A6
:104170001BD14FF09841FCF723F8204A94420346A4
:104180002CDBC0F3C75102464CF250308442A1F1FF
:10419000190110DD1A49184661F31E00FCF710F8EA
:1041A00010BD0146FCF7D2FA10BD4CF250308442EB
:1041B0004FEAD151EEDC2144FE29EBDC002911DC71
:1041C00011F1160F13DB01F1190022F0FF424FF03D
:1041D0004C5142EAC050FBF7F3FF10BD0949FBF711
:1041E000EFFF10BD22F0FF4242EAC15010BD054969
:1041F000184661F31E00FBF7E3FF10BDB03CFFFF64
:10420000CAF249716042A20D2DE9F041C0F3C755D1
:104210007F3D162D044620F0004725DC002D80460A
:1042200014DB174F2F4138421BD01649FCF78EFA8A
:104230000021FCF7B1FEA0B1002C03DA4FF400031B
:104240002B41984428EA0700BDE8F0810D49FCF7AE
:104250007DFA0021FCF7A0FE18B1002C0CDB002039
:1042600000E02046BDE8F081B7F1FF4FF9D30146E9
:10427000FCF76CFABDE8F081002FF2D00248F1E7BC
:10428000FFFF7F00CAF24971000080BFF8B500BF90
:10429000F8BC08BC9E467047F8B500BFF8BC08BC27
:0442A0009E4670477F
:1042A40000000000000000000102030406070809E2
:1042B40000000000010203041B5B481B5B4A000072
:1042C4001B5B324A0000000000D0024400901B44F3
:1042D40057656C636F6D6520746F20446562756704
:1042E40020496E74657266616365210A0A0D0000D7
:1042F4000006101600061016000FC93F000F4940B3
:1043040000CB9640000FC9400053FB4000CB164140
:1043140000ED2F41000F49410031624100537B41C0
:10432400003A8A4100CB9641005CA34100EDAF41C5
:10433400007EBC41000FC94100A0D5410031E241DB
:1043440000C2EE410053FB4100F20342003A0A422C
:104354000083104200CB164200141D42005C23422D
:1043640000A5294200ED2F4200363642007E3C4231
:1043740000C74242000F4942A2000000F9000000B9
:10438400830000006E0000004E00000044000000A6
:104394001500000029000000FC00000027000000B8
:1043A40057000000D1000000F500000034000000B8
:1043B400DD000000C0000000DB000000620000001F
:1043C40095000000990000003C000000430000003C
:1043D4009000000041000000FE00000051000000B9
:1043E40063000000AB000000DE000000BB00000022
:1043F400C500000061000000B700000024000000B8
:104404006E0000003A000000420000004D00000071
:10441400D2000000E0000000060000004900000097
:104424002E000000EA00000009000000D100000096
:10443400920000001C000000FE0000001D000000AF
:10444400EB0000001C000000B10000002900000087
:10445400A70000003E000000E80000008200000009
:1044640035000000F50000002E000000BB00000035
:104474004400000084000000E90000009C000000EB
:104484007000000026000000B40000005F0000007F
:104494007E0000004100000039000000910000008F
:1044A400D600000039000000830000005300000023
:1044B40039000000F40000009C00000084000000AB
:1044C4005F0000008B000000BD000000F900000048
:1044D400280000003B0000001F000000F80000005E
:1044E40097000000FF000000DE000000050000004F
:1044F400980000000F000000EF0000002F000000F3
:10450400110000008B0000005A0000000A000000A7
:104514006D0000001F0000006D0000003600000068
:104524007E000000CF00000027000000CB00000048
:1045340009000000B70000004F0000004600000022
:104544003F000000660000009E0000005F000000C5
:10455400EA0000002D0000007500000027000000A4
:10456400BA000000C7000000EB000000E5000000F6
:10457400F10000007B0000003D0000000700000087
:1045840039000000F70000008A000000520000001B
:1045940092000000EA0000006B000000FB00000035
:1045A4005F000000B10000001F0000008D0000004B
:1045B4005D00000008000000560000000300000039
:1045C4003000000046000000FC0000007B000000FA
:1045D4006B000000AB000000F0000000CF00000002
:1045E400BC000000200000009A000000F40000005D
:1045F400360000001D000000A9000000E3000000D8
:1046040091000000610000005E000000E600000070
:104614001B00000008000000650000009900000075
:10462400850000005F00000014000000A0000000EE
:1046340068000000400000008D000000FF00000042
:10464400D8000000800000004D000000730000004E
:1046540027000000310000000600000006000000F2
:104664001500000056000000CA000000730000009E
:10467400A8000000C900000060000000E200000083
:104684007B000000C00000008C0000006B000000F4
:104694000000C93F0000F0390000DA370000A233FF
:1046A4000000842E0000502B0000C2270000D022FE
:1046B4000000C41F0000C61B0000441704000000D3
:0846C4000700000009000000DE
:0846CC0054E9FF7F010000002A
:0846D400DD330008611000084D
:0446DC003910000889
:1046E0000024F4000100000017B7D1380000A040FA
:0C46F0000100000010000000EC10002091
:0400000508001725B3
:00000001FF
