:020000040800F2
:1000000000000220FD4200081135000815350008E7
:10001000193500081D3500082135000800000000D2
:10002000000000000000000000000000918D0008AA
:100030002535000800000000218E0008DD8A000838
:100040004D4300084D4300084D4300084D43000850
:100050004D4300084D4300084D4300084D43000840
:100060004D4300084D4300084D4300084D43000830
:100070004D43000829350008353500084D43000878
:10008000413500084D3500084D4300084D43000838
:100090004D4300084D4300084D4300084D43000800
:1000A0004D4300084D4300084D4300084D430008F0
:1000B000593500084D4300084D4300084D430008E2
:1000C0004D4300084D4300084D4300084D430008D0
:1000D000653500084D430008713500084D430008A0
:1000E0004D4300084D4300084D4300084D430008B0
:1000F0004D4300084D4300084D4300087D3500087E
:100100004D4300084D4300084D4300088935000861
:100110004D4300084D4300084D4300084D4300087F
:100120004D4300084D4300084D4300084D4300086F
:100130004D4300084D4300084D4300084D4300085F
:100140004D4300084D4300084D4300089535000815
:100150004D4300084D4300084D4300084D4300083F
:100160004D4300084D4300084D4300084D4300082F
:100170004D4300084D4300084D43000800000000B7
:080180004D4300084D43000847
:1001C000F0B400EB4003DFF8880000EBC30000F15F
:1001D00018063069F7687568874232D3B368DC1B4C
:1001E000631E934214D37D19D01900BF11F8013B4F
:1001F00005F8013B013A05D011F8013B05F8013B38
:10020000013AF3D1BFF35F8FF0600120F0BC70477B
:10021000C018904219D37819121B11F8013B00F84D
:10022000013B013CF9D1141C05D011F8013B05F844
:10023000013B013AF9D1BFF35F8FF4600120F0BCBC
:100240007047C01B01389042CDD20020F0BC7047EF
:10025000AC6D002081F0004102E000BF83F000435C
:1002600030B54FEA41044FEA430594EA050F08BF51
:1002700090EA020F1FBF54EA000C55EA020C7FEA15
:10028000645C7FEA655C00F0E2804FEA5454D4EB92
:100290005555B8BF6D420CDD2C4480EA020281EA5C
:1002A000030382EA000083EA010180EA020281EA94
:1002B0000303362D88BF30BD11F0004F4FEA0131E6
:1002C0004FF4801C4CEA113102D0404261EB4101F5
:1002D00013F0004F4FEA03334CEA133302D052427B
:1002E00063EB430394EA050F00F0A780A4F1010437
:1002F000D5F1200E0DDB02FA0EFC22FA05F2801871
:1003000041F1000103FA0EF2801843FA05F3594156
:100310000EE0A5F120050EF1200E012A03FA0EFCD5
:1003200028BF4CF0020C43FA05F3C01851EBE371FF
:1003300001F0004507D54FF0000EDCF1000C7EEB1C
:1003400000006EEB0101B1F5801F1BD3B1F5001F5A
:100350000CD349085FEA30004FEA3C0C04F1010479
:100360004FEA445212F5800F80F09A80BCF1004FA2
:1003700008BF5FEA500C50F1000041EB045141EA24
:10038000050130BD5FEA4C0C404141EB0101013CED
:1003900028BFB1F5801FE9D291F0000F04BF0146DC
:1003A0000020B1FA81F308BF2033A3F10B03B3F1AE
:1003B00020020CDA0C3208DD02F1140CC2F10C023E
:1003C00001FA0CF021FA02F10CE002F11402D8BF9C
:1003D000C2F1200C01FA02F120FA0CFCDCBF41EA68
:1003E0000C019040E41AA2BF01EB0451294330BD37
:1003F0006FEA04041F3C1CDA0C340EDC04F1140414
:10040000C4F1200220FA04F001FA02F340EA0300EA
:1004100021FA04F345EA030130BDC4F10C04C4F130
:10042000200220FA02F001FA04F340EA0300294610
:1004300030BD21FA04F0294630BD94F0000F83F45A
:10044000801306BF81F480110134013D4EE77FEA3D
:10045000645C18BF7FEA655C29D094EA050F08BF89
:1004600090EA020F05D054EA000C04BF194610466A
:1004700030BD91EA030F1EBF0021002030BD5FEAAE
:10048000545C05D14000494128BF41F0004130BDD6
:1004900014F580043CBF01F5801130BD01F000452A
:1004A00045F0FE4141F470014FF0000030BD7FEA9D
:1004B000645C1ABF194610467FEA655C1CBF0B4698
:1004C000024650EA013406BF52EA033591EA030FAF
:1004D00041F4002130BD00BF90F0000F04BF0021A7
:1004E000704730B54FF4806404F132044FF00005DA
:1004F0004FF0000150E700BF90F0000F04BF002153
:10050000704730B54FF4806404F1320410F00045B8
:1005100048BF40424FF000013EE700BF42004FEAB3
:10052000E2014FEA31014FEA02701FBF12F07F4330
:1005300093F07F4F81F06051704732F07F4208BFE7
:10054000704793F07F4F04BF41F40021704730B5EE
:100550004FF4607401F0004521F000411CE700BF3A
:1005600050EA010208BF704730B54FF000050AE0BD
:1005700050EA010208BF704730B511F0004502D5BE
:10058000404261EB41014FF4806404F132045FEAC0
:10059000915C3FF4D8AE4FF003025FEADC0C18BF69
:1005A00003325FEADC0C18BF033202EBDC02C2F15B
:1005B000200300FA03FC20FA02F001FA03FE40EAED
:1005C0000E0021FA02F11444BDE600BF4FEA4102D9
:1005D000B2F1E04324BFB3F5001CDCF1FE5C0DD9A1
:1005E00001F0004C4FEAC0024CEA5070B2F1004FEB
:1005F00040EB830008BF20F00100704711F0804FEE
:1006000021D113F13872BCBF01F00040704741F4B2
:1006100080114FEA5252C2F11802C2F1200C10FAB6
:100620000CF320FA02F018BF40F001004FEAC1239A
:100630004FEAD32303FA0CFC40EA0C0023FA02F33E
:100640004FEA4303CCE77FEA625307D150EA013314
:100650001EBF4FF0FE4040F44000704701F00040E4
:1006600040F0FE4040F40000704700BF53B94AB963
:10067000002908BF00281CBF4FF0FF314FF0FF30AA
:1006800000F00CB8ADF1080C6DE904CE13F0FEFBE0
:10069000DDF804E0DDE9022304B07047704700BFD5
:1006A00001F0FF01102A2BDB10F0070F08D010F823
:1006B000013B013A8B422DD010F0070F42B3F6D127
:1006C000F0B441EA012141EA014122F007047FF040
:1006D00000070023F0E80256083C85EA010586EA97
:1006E000010685FA47F5A3FA87F586FA47F6A5FAD3
:1006F00087F68EB9EED1F0BC01F0FF0102F00702DF
:1007000032B110F8013B013A83EA010313B1F8D189
:100710000020704701387047002D06BF354603386A
:10072000073815F0010F07D1013015F4807F02BFA3
:10073000013015F4C03F0130F0BC0138704700BFF4
:10074000844641EA000313F003036DD1403A41D3DC
:1007500051F8043B40F8043B51F8043B40F8043B9B
:1007600051F8043B40F8043B51F8043B40F8043B8B
:1007700051F8043B40F8043B51F8043B40F8043B7B
:1007800051F8043B40F8043B51F8043B40F8043B6B
:1007900051F8043B40F8043B51F8043B40F8043B5B
:1007A00051F8043B40F8043B51F8043B40F8043B4B
:1007B00051F8043B40F8043B51F8043B40F8043B3B
:1007C00051F8043B40F8043B51F8043B40F8043B2B
:1007D000403ABDD2303211D351F8043B40F8043BCB
:1007E00051F8043B40F8043B51F8043B40F8043B0B
:1007F00051F8043B40F8043B103AEDD20C3205D3DB
:1008000051F8043B40F8043B043AF9D2043208D0D2
:10081000D2071CBF11F8013B00F8013B01D30B8844
:1008200003806046704700BF082A13D38B078DD022
:1008300010F003038AD0C3F10403D21ADB071CBFF4
:1008400011F8013B00F8013B80D331F8023B20F85E
:10085000023B7BE7043AD9D3013A11F8013B00F897
:10086000013BF9D20B7803704B7843708B7883701F
:10087000604670470000000000000000000000001B
:1008800090F800F06DE9024520F007016FF0000CD0
:1008900010F0070491F820F040F049804FF0000478
:1008A0006FF00700D1E9002391F840F000F1080053
:1008B00082FA4CF2A4FA8CF283FA4CF3A2FA8CF38B
:1008C0004BBBD1E9022382FA4CF200F10800A4FAF2
:1008D0008CF283FA4CF3A2FA8CF3E3B9D1E9042346
:1008E00082FA4CF200F10800A4FA8CF283FA4CF37D
:1008F000A2FA8CF37BB9D1E9062301F1200182FA37
:100900004CF200F10800A4FA8CF283FA4CF3A2FA3C
:100910008CF3002BC6D0002A04BF04301A4612BA4A
:10092000B2FA82F2FDE8024500EBD2007047D1E94D
:10093000002304F00305C4F100004FEAC50514F0DC
:10094000040F91F840F00CFA05F562EA05021CBFAD
:1009500063EA050362464FF00004A9E770B54FF063
:10096000FF0C4CF4E06C1CEA11541DBF1CEA13553B
:1009700094EA0C0F95EA0C0F00F0DEF82C4481EAA3
:10098000030621EA4C5123EA4C5350EA013518BFC3
:1009900052EA033541F4801143F4801338D0A0FBB0
:1009A00002CE4FF00005E1FB02E506F00042E0FB5D
:1009B00003E54FF00006E1FB03569CF0000F18BF63
:1009C0004EF0010EA4F1FF04B6F5007F64F540740B
:1009D00004D25FEA4E0E6D4146EB060642EAC6219E
:1009E00041EA55514FEAC52040EA5E504FEACE2E0B
:1009F000B4F1FD0C88BFBCF5E06F1ED8BEF1004F0E
:100A000008BF5FEA500E50F1000041EB045170BD89
:100A100006F0004646EA010140EA020081EA0301CD
:100A2000B4EB5C04C2BFD4EB0C0541EA045170BDC9
:100A300041F480114FF0000E013C00F3AB8014F143
:100A4000360FDEBF002001F0004170BDC4F100048C
:100A5000203C35DA0C341BDC04F11404C4F120050D
:100A600000FA05F320FA04F001FA05F240EA020068
:100A700001F0004221F0004110EBD37021FA04F69E
:100A800042EB06015EEA430E08BF20EAD37070BD58
:100A9000C4F10C04C4F1200500FA04F320FA05F0B7
:100AA00001FA04F240EA020001F0004110EBD370B9
:100AB00041F100015EEA430E08BF20EAD37070BD29
:100AC000C4F1200500FA05F24EEA020E20FA04F302
:100AD00001FA05F243EA020321FA04F001F00041B1
:100AE00021FA04F220EA020000EBD3705EEA430E22
:100AF00008BF20EAD37070BD94F0000F0FD101F051
:100B00000046400041EB010111F4801F08BF013C89
:100B1000F7D041EA060195F0000F18BF704703F0C7
:100B20000046520043EB030313F4801F08BF013D4E
:100B3000F7D043EA0603704794EA0C0F0CEA13550A
:100B400018BF95EA0C0F0CD050EA410618BF52EAC4
:100B50004306D1D181EA030101F000414FF00000CA
:100B600070BD50EA410606BF1046194652EA4306D8
:100B700019D094EA0C0F02D150EA013613D195EA4C
:100B80000C0F05D152EA03361CBF104619460AD194
:100B900081EA030101F0004141F0FE4141F470019E
:100BA0004FF0000070BD41F0FE4141F4780170BD8E
:100BB00070B54FF0FF0C4CF4E06C1CEA11541DBFF3
:100BC0001CEA135594EA0C0F95EA0C0F00F0A7F8F5
:100BD000A4EB050481EA030E52EA03354FEA013122
:100BE00000F088804FEA03334FF0805545EA131335
:100BF00043EA12634FEA022245EA111545EA1065FD
:100C00004FEA00260EF000419D4208BF964244F193
:100C1000FD0404F5407402D25B084FEA3202B61AB2
:100C200065EB03055B084FEA32024FF480104FF486
:100C3000002CB6EB020E75EB030E22BFB61A7546FA
:100C400040EA0C005B084FEA3202B6EB020E75EB8D
:100C5000030E22BFB61A754640EA5C005B084FEAF5
:100C60003202B6EB020E75EB030E22BFB61A7546C2
:100C700040EA9C005B084FEA3202B6EB020E75EBCD
:100C8000030E22BFB61A754640EADC0055EA060E8E
:100C900018D04FEA051545EA16754FEA06164FEAD1
:100CA000C30343EA52734FEAC2025FEA1C1CC0D17D
:100CB00011F4801F0BD141EA00014FF000004FF00A
:100CC000004CB6E711F4801F04BF01430020B4F1CB
:100CD000FD0C88BFBCF5E06F3FF6AFAEB5EB030C83
:100CE00004BFB6EB020C5FEA500C50F1000041EB80
:100CF000045170BD0EF0004E4EEA113114EB5C044D
:100D0000C2BFD4EB0C0541EA045170BD41F480111F
:100D10004FF0000E013C90E645EA060E8DE60CEA27
:100D2000135594EA0C0F08BF95EA0C0F3FF43BAF44
:100D300094EA0C0F0AD150EA01347FF434AF95EAFB
:100D40000C0F7FF425AF104619462CE795EA0C0FDF
:100D500006D152EA03353FF4FDAE1046194622E7AC
:100D600050EA410618BF52EA43067FF4C5AE50EA86
:100D700041047FF40DAF52EA43057FF4EBAE12E776
:100D80004FF0FF3C06E000BF4FF0010C02E000BF57
:100D90004FF0010C4DF804CD4FEA410C7FEA6C5C3A
:100DA0004FEA430C18BF7FEA6C5C1BD001B050EADD
:100DB000410C0CBF52EA430C91EA030F02BF90EAC8
:100DC000020F0020704710F1000F91EA030F58BF87
:100DD000994208BF90422CBFD8176FEAE37040F0E9
:100DE000010070474FEA410C7FEA6C5C02D150EA87
:100DF000013C07D14FEA430C7FEA6C5CD6D152EA42
:100E0000033CD3D05DF8040B704700BF8446104606
:100E100062468C461946634600E000BF01B5FFF705
:100E2000B7FF002848BF10F1000F01BD4DF808EDD5
:100E3000FFF7F4FF0CBF012000205DF808FB00BFA6
:100E40004DF808EDFFF7EAFF34BF012000205DF800
:100E500008FB00BF4DF808EDFFF7E0FF94BF01204D
:100E600000205DF808FB00BF4DF808EDFFF7CEFF4E
:100E700094BF012000205DF808FB00BF4DF808ED8D
:100E8000FFF7C4FF34BF012000205DF808FB00BF5E
:100E90004FEA410C7FEA6C5C02D150EA013C0AD176
:100EA0004FEA430C7FEA6C5C02D152EA033C02D168
:100EB0004FF0000070474FF0010070474FEA4102C9
:100EC00012F5001215D211D56FF47873B3EB62529C
:100ED00012D94FEAC12343F0004343EA505311F0C3
:100EE000004F23FA02F018BF404270474FF0000055
:100EF000704750EA013005D111F0004008BF6FF093
:100F0000004070474FF00000704700BF0348044B9B
:100F1000834202D0034B03B118477047781B00206F
:100F2000781B0020000000000548064B1B1AD90F53
:100F300001EBA301491002D0034B03B118477047DE
:100F4000781B0020781B00200000000010B5064C24
:100F5000237843B9FFF7DAFF044B13B10448AFF32A
:100F600000800123237010BD791B002000000000C9
:100F700010BB010808B5054B1BB105490548AFF387
:100F80000080BDE80840FFF7CFBF00BF00000000B1
:100F90007C1B002010BB0108054808B5054B036009
:100FA00003F0DEFA00B908BDBDE8084001F038BE24
:100FB000941B0020003002400B4B02689A4200D084
:100FC000704782B000200190D3F8301803F5006C10
:100FD00041F48052C3F83028DCF8303003F48050FC
:100FE0000190019B02B070470030024000B583B011
:100FF00000221A4B0192186B40F4001018631B6B0F
:1010000003F40010019005210D20019B03F04AFA22
:101010000D2003F091FA002205210E2003F042FA80
:101020000E2003F089FA00220521102003F03AFA7D
:10103000102003F081FA00220521112003F032FA7A
:10104000112003F079FA00222F20052103F02AFA5B
:101050002F2003B05DF804EB03F06EBA00380240B5
:10106000F8B5234F234D3E6823494FF4E67406FB41
:10107000044022462844FFF763FBB01C04FB0050E9
:1010800022461E49FFF75CFBF11C04FB015022467F
:101090001B49FFF755FB321D053604FB0250194969
:1010A00004FB06552246FFF74BFB224616493E60DD
:1010B0002846FFF745FB154B15481E60224629467A
:1010C000FFF73EFB1348144F0468144940F23445BF
:1010D000013404602A4605FB0470FFF731FB104B16
:1010E00010481C6005FB06712A46FFF729FBF8BD76
:1010F00000040020DC23002008040020D40B002082
:10110000A00D00206C0F0020D4050020D82C00205A
:101110009C1B002004040020E02C0020A0070020DD
:10112000DC2C0020681D0020274B197810B5002901
:101130003AD0264B26491C680A682648944234BF98
:101140000134002401681C60234B24484FF4E672EC
:1011500002FB0131FFF7F4FA2149224840F2344200
:1011600002FB0411FFF7ECFA602200211E4815F083
:101170004DF8602200211D4815F048F8602200213A
:101180001B4815F043F8602200211A4815F03EF87C
:1011900060220021184815F039F8BDE810401748C2
:1011A0006022002115F032B80A4B15481A6804680D
:1011B000A24204D20548511C04681960C4E70348E0
:1011C00019600468C0E700BF044400200404002044
:1011D000DC2C002000040020DC2300209C1B0020CD
:1011E000E02C0020681D00205C2200209C210020B3
:1011F0001C230020FC210020BC2200207C23002096
:10120000D82C0020044B054A18780549002814BF43
:1012100010460846704700BF04440020681D0020A7
:101220009C1B002088492DE9F84FD1E91067874DB4
:10123000834674424FF0000E002ED8BF002140F3C9
:10124000EC80AEEB040111F0070181487246A5F174
:10125000BE094FF0000300F0C88001295ED00229CA
:101260004ED003293ED004292ED005291ED00629B0
:101270000ED0BEF1000FACBFB9F80020B9F8C02005
:101280000388A9F1020913FB02F302300EF1FF32C9
:10129000002AB0F800C0ACBFB9F80010B9F8C0100F
:1012A000013A1CFB01330230A9F10209002AB0F80F
:1012B0000080ACBFB9F80010B9F8C010013A18FBB3
:1012C00001330230A9F10209002AB0F800A0ACBF36
:1012D000B9F80010B9F8C010013A1AFB0133023016
:1012E000A9F10209002AB0F800C0ACBFB9F800109B
:1012F000B9F8C010013A1CFB01330230A9F1020910
:10130000002AB0F80080ACBFB9F80010B9F8C010DE
:10131000013A18FB01330230A9F10209002AACBFDF
:10132000B9F80010B9F8C010B0F800A0013AA24214
:101330001AFB013300F10200A9F1020955D16AE05C
:10134000408839F8023C10FB03A0A1F10208012AF1
:10135000A1F1040A54BF31F8028CB8F8C080BCF87F
:101360000230022A54BF31F804ACBAF8C0A013FB13
:101370000800A1F10608BCF80430032A54BF31F874
:10138000068CB8F8C08013FB0A00A1F1080ABCF86B
:101390000630042A54BF31F808ACBAF8C0A013FBD9
:1013A0000800A1F10A08BCF80830052A13FB0A005E
:1013B00058BF31F80A8CBCF80A3048BFB8F8C08072
:1013C000A1F10C0A062A13FB080054BF31F80CAC3B
:1013D000BAF8C0A0BCF80C30073AA24213FB0A03CB
:1013E000A1F10E090CF10E0015D0002AB4BFB9F816
:1013F000C010B9F80010B0F800C0013A1CFB013A67
:1014000000F1020CA9F102019AD54088B1F8C03070
:1014100010FB03A099E73B4119B20EF1010EBEF19A
:10142000300F25F8021F04F101047FF405AF0949CC
:1014300060225846FFF784F9074960228818FFF7B1
:101440007FF9BDE8F88F00BF9C1B00205A220020C6
:10145000A61C00205C2200209C210020CE4B2DE900
:10146000F047D3E91067CD4DC6F1000E0024002EE1
:10147000D8BF002340F3EE80A4EB0E0818F0070855
:10148000C7492246A5F1BE0C4FF0000300F0CB8007
:10149000B8F1010F61D0B8F1020F50D0B8F1030FCD
:1014A0003FD0B8F1040F2ED0B8F1050F1DD0B8F120
:1014B000060F0CD0002CACBFBCF80020BCF8C0203C
:1014C0000B88ACF1020C13FB02F30231621E002AFE
:1014D000B1F80090ACBFBCF80080BCF8C080013A05
:1014E00019FB08330231ACF1020C002AB1F800A05C
:1014F000ACBFBCF80080BCF8C080013A1AFB0833CE
:101500000231ACF1020C002AB1F80090ACBFBCF87B
:101510000080BCF8C080013A19FB08330231ACF1FD
:10152000020C002AB1F800A0ACBFBCF80080BCF8E7
:10153000C080013A1AFB08330231ACF1020C002AD8
:10154000B1F80090ACBFBCF80080BCF8C080013A94
:1015500019FB08330231ACF1020C002AACBFBCF815
:101560000080BCF8C080B1F80090013A724519FBC8
:10157000083301F10201ACF1020C54D183E04B8835
:101580003CF8021C13FB01AAA8F10201012A54BF76
:1015900038F8021CB1F8C010B9F8023013FB01AAE8
:1015A000A8F10401022A54BF38F8041CB1F8C01095
:1015B000B9F8043013FB01AAA8F10601032A54BFAD
:1015C00038F8061CB1F8C010B9F8063013FB01AAB0
:1015D000A8F10801042A54BF38F8081CB1F8C0105B
:1015E000B9F8083013FB01AAA8F10A01052A54BF73
:1015F00038F80A1CB1F8C010B9F80A3013FB01AA78
:10160000A8F10C01062A54BF38F80C1CB1F8C01020
:10161000B9F80C30073A724513FB01A3A8F10E0C80
:1016200009F10E012FD0002AB4BFBCF8C080BCF86D
:101630000080B1F800A0013A1AFB083A01F1020952
:10164000ACF102089BD5B1F802C0B8F8C0301CFB61
:1016500003AA99E701343B41302C25F8023F0EF1F3
:10166000010E7FF404AF4F496022FFF769F84D493E
:1016700060228818FFF764F84B4960228818FFF74A
:101680005FF8BDE8F087012EE4DD621EA2EB0E08D4
:1016900018F003084549AC4663D0B8F1010F22D0D9
:1016A000B8F1020F0FD0002AB1F800A0ACBFB5F816
:1016B0000080B5F8C0801AFB08FCA3EB0C03013ACC
:1016C0000231A5F1020C002AB1F80080ACBFBCF8D1
:1016D0000090BCF8C09018FB09FAA3EB0A03013A8A
:1016E0000231ACF1020C002AACBFBCF80090BCF88F
:1016F000C090B1F80080013A18FB09F87245A3EBDD
:10170000080301F10201ACF1020C2AD1A2E74B88D7
:101710003CF8021C13FB01FCAAEB0C03A8F1020A23
:10172000012AA8F1040C54BF38F802ACBAF8C0A0E2
:10173000B9F80210022A54BF38F804CCBCF8C0C073
:1017400011FB0AF1B9F804A0033A5B1A72451AFBBF
:101750000CF1A3EB0103A8F1060C09F106013FF41B
:1017600079AF002AB4BFBCF8C080BCF80080B1F8E3
:101770000090013A19FB08FAA3EB0A0A01F10209E9
:10178000ACF10208C3D54B88B8F8C01013FB01FCBC
:10179000AAEB0C03C2E700BF9C1B00205A220020CA
:1017A000A61C00205C2200209C210020E81B0020B9
:1017B0002DE9F04FB74BB84CD3E9106B83B004F16F
:1017C000600A07EE900A75420022CDF804A0012EAF
:1017D000A44634F9023F40F35381511E481B10F0D8
:1017E0000300DFF8C8E20CF5C07865D0012821D0ED
:1017F00002280FD00029BEF80090B4BFB8F8C0701E
:10180000BCF8807119FB07F01B1A01390EF1020EAA
:10181000A8F102080029BEF800A0ACBFB8F800701B
:10182000B8F8C0701AFB07F01B1A01390EF1020E4E
:10183000A8F102080029ACBFB8F80070B8F8C07071
:10184000BEF80090013919FB07F0A942A3EB000391
:101850000EF1020EA8F102082ED148E0BEF80230C7
:1018600038F8027C13FB07FEAAEB0E0A831E01293F
:101870004DBFB3F8C08030F8028CB9F80230B9F827
:101880000230A0F1040E022913FB08F755BFB9F886
:1018900004E0BEF8C08030F8048CB9F804E00339E5
:1018A0001EFB08F3AAEB070AA942AAEB030309F1FE
:1018B000060EA0F106081AD00029B4BFB8F8C0007F
:1018C000B8F80000BEF80070013917FB00F0A3EB78
:1018D000000A0EF10209A8F10200BFD5BEF80230DD
:1018E000B0F8C07013FB07FEAAEB0E0ABEE743FA7E
:1018F0000BF0A4F88001731E002A68480CF5C1772C
:101900004FF000084FF0000903F00301C0F2AF8070
:10191000BCF882A10388C3FB8A89CA46C146012359
:101920009E4200F1020EA7F102087CDD002960D082
:10193000994220D002290ED0012A48BFB8F8C01021
:10194000408858BF37F8021C0133C0FB819A0EF162
:10195000020EA8F10208D11A0029BEF800C0ACBFDF
:10196000B8F80010B8F8C0100133CCFB819A0EF122
:10197000020EA8F10208D11A0029ACBFB8F8001075
:10198000B8F8C010BEF8000001339E42C0FB819A37
:101990000EF1020EA8F102082BDC44E0BEF802E0D2
:1019A00038F8027CCEFB879ADF43A1F1020ED742C2
:1019B0004DBFBEF8C070B0F802E031F8027CB0F85C
:1019C00002E0A1F10408CEFB879AD71A022F4BBF81
:1019D000B8F8C070B0F80480B0F8048031F8047C26
:1019E00003339E42C8FB879A00F1060EA1F1060858
:1019F00019DDD71A002FB4BFB8F8C070B8F800705E
:101A0000BEF800100133C1FB879AD71A002F0EF1E0
:101A10000200A8F10201C1DABEF80280B1F8C0C02C
:101A2000C8FB8C9AC0E70FFA89F9019BA4F8C09013
:101A30009C4202F1010205F101057FF4C8AE17EEE8
:101A4000900A17496022FEF77BFE1549602288182C
:101A5000FEF776FE134960228818FEF771FE1249E0
:101A600060228818FEF76CFE03B0BDE8F08FB0F876
:101A700000C0B7F8C0E0CCFB8E89CA46C1464EE72D
:101A800043FA0BF9A4F8809118BF4FF00009CCD1AC
:101A900031E700BF9C1B00209A210020A61C0020DB
:101AA0005C2200209C2100201C230020E81B002039
:101AB0002DE9F0473D4D2F6C002F70DD3C4BDFF8DA
:101AC0000091D3E9104607EB470005EB4007A9F169
:101AD000C00838496FF001004FF0FF321EE0B1F846
:101AE000BE30B5F8DE2113FB02F3AEEB0303022C8C
:101AF0000ADD0028B5F8E021B4BFB1F87CE1B1F807
:101B0000BCE012FB0EF29B1A624633412F2AA1F869
:101B1000C03000F1010001F1020133D0002C2DDDB5
:101B200012F1010C54BFB1F800E0B1F8C0E0B5F813
:101B30000833012C13FB0EF3E6D0002AACBF31F8BA
:101B400002ACB1F8BEA0B5F80AE3022C1EFB0A3EB7
:101B500009D00028B4BFB1F8BC3031F8043CB5F866
:101B60000CA31AFB03EE002AB9DAB1F87E31B5F8FE
:101B7000DE2113FB02F3AEEB0303B8E7002302F10F
:101B8000010CC1E7602249460B48FEF7D9FD063536
:101B90000A4860224146FEF7D3FDBD4299D105496E
:101BA00060228818FEF7CCFDBDE8F087681D002094
:101BB0009C1B00209C210020BC220020FC21002036
:101BC0005C22002008B5012007F010F8FBE700BFF9
:101BD00008B50F4802F0C8F80E4802F0C5F80E48E4
:101BE00002F0C2F802F0DAF801F04AF901F000F967
:101BF00001F028F9FFF734FA01F056F8074B18689E
:101C000009F040FFBDE80840002009F045BE00BFD4
:101C100060BB010804BF010830BE010888430020F2
:101C200080B5094C094F0A4E0A4D4FF0FF31012093
:101C30000AF002FB217828460CF0A8FB33782078C4
:101C400057F823108847F0E7BC50002028140020E4
:101C50008D4300206CBB010808B5144C144D4FF0A7
:101C6000FF3101200AF0E8FA28460CF08FFB2178BA
:101C700011F0070118BF0121082001F097FE22781A
:101C80000420C2F3801101F091FE237813F0300F8D
:101C900014BF012100210C2001F088FE21780020D2
:101CA000C1F3C00101F082FED9E700BF8C430020E0
:101CB0007CBB010870B5114E114C124D30684FF0CD
:101CC000FF3321464FF4007209F00CF80346214619
:101CD00028469AB26BB105F0F1FF4FF0FF310120B9
:101CE0000AF0AAFA4FF400720021204614F08EFA8E
:101CF000E4E74FF4FA7009F06BFEDFE7F4430020ED
:101D0000C0500020785000202DE9F84F1B4CDFF820
:101D10008090DFF88080DFF880B0194F194EDFF82F
:101D20007CA0194D1AE098F8001059F8212090472E
:101D300020780023400619464FF0020207D5386884
:101D40000AF068FB4FF0FF3101200AF075FA3068A5
:101D50004FF0FF336022294608F002FF2078820707
:101D6000E1D4C307E5D5094B1878524629460BEB59
:101D7000400012F031F82078DBE700BF8C430020F0
:101D8000F0410020FC43002090430020BC4500208F
:101D9000D8120020EC130020C84200202C7800202C
:101DA0002DE9F047DFF86C90DFF86C80154FDFF815
:101DB0006CA0154E154D164C4FF0FF3101200AF066
:101DC0003BFA98F800002A46214609EB400012F041
:101DD00003F838780023400619464FF0020208D570
:101DE000DAF800000AF016FB4FF0FF3101200AF08C
:101DF00023FA30684FF0FF336022214608F0B0FE2E
:101E0000DAE700BF8C430020FC4300202C78002040
:101E100090430020C8420020BC450020F041002033
:101E200080B5DFF85890114FDFF85480104E114CF8
:101E3000114D07E0FFF73CFE0023306802221946EF
:101E40000AF0E8FA4FF0FF3101200AF0F5F92146D7
:101E500060222846FEF774FC3B782046002BE9D12F
:101E600098F8481059F821209047E5E704440020ED
:101E7000BC420020904300209C210020381100200B
:101E80009C1B002008B501F0A1FD00214FF0FF30A0
:101E90000DF0FAFDF9E700BF10B5044649480CF013
:101EA00075FAA4F13000072800F28680DFE800F020
:101EB0004D58616971777E04434C237883F040016B
:101EC000217001F06BFF2378404C13F0010F14BF19
:101ED00078212D2113F0020F0CBF2D22782213F050
:101EE000040F0CBF2D20782013F0080F84F8522027
:101EF0000CBF2D22782213F0100F84F83A100CBF7B
:101F00002D21782113F0200F84F87B200CBF2D2287
:101F1000782213F0400F0CBF2D23782384F886100D
:101F200084F89A2084F8C03084F85D00284801F0D5
:101F30001BFF2046274C01F017FF002320680222D8
:101F4000BDE8104019460AF065BA234C204800212C
:101F5000217001F009FF21481B4C01F005FFB0E79B
:101F6000194C94F800C08CF0010E2EF0060323707B
:101F7000A7E7154C217881F0020222F005002070BD
:101F80009FE7114C207880F0040E2EF0030323709D
:101F900097E70D4C217881F00802227091E70A4CF6
:101FA00094F800C08CF0100323708AE7064C227866
:101FB00082F02000207084E70948034C01F0D4FE31
:101FC0007FE700BF90BB01088C430020F011002088
:101FD00060BB0108C44200208D43002030BE0108D0
:101FE000C4BE010830B5044683B028480CF0CEF9D1
:101FF000312C33D0322C43D0302C35D0244801F052
:10200000B3FE244A13782448244D254C002B08BFE6
:102010000546032220462E2100F004FBAB782888D9
:1020200084F8303020226421E085204600F0FAFA5E
:10203000FFF7E8F80190FEF723FC0199024604F14E
:102040006400FEF77DFB174801F08EFE204601F08C
:102050008BFE03B0BDE8304001F0A0BE0D4A1378FE
:1020600083F001031370CEE70F490E48094C002599
:102070000D7001F079FE0D4801F076FE2378C2E77D
:10208000FFF752F803480378BDE700BFACBB010877
:10209000C4BE010804440020A8BB0108A4BB010879
:1020A0004411002060BB01088D43002030BE0108B0
:1020B0002DE9F047DFF864814D4B98F800204D4F33
:1020C00053F82210DFF858A182B008460191FEF7BC
:1020D000D7FB019902464848FEF732FB464608F115
:1020E00028090024B6F90230002B06F102053FDD75
:1020F0005246C4F1C801381913F062FE002872DBA1
:10210000B5F90230002B044432DD5246C4F1C80157
:10211000381913F055FE002865DBB6F90630002BA0
:10212000044425DD5246C4F1C801381913F048FEB5
:10213000002858DBB6F90830002B04EB000517DD4A
:102140005246C5F1C801781913F03AFE041E4ADB65
:1021500036F90A3F002B2C440ADD5246C4F1C8016F
:10216000381913F02DFE00283DDBB1450444B9D1E8
:10217000204B01931846FEF783FB019902461F4846
:10218000FEF7DEFA1E480422912100F04BFAD8F83F
:102190002C301C4A1C48062113F012FE1A48FEF788
:1021A0006FFB194902461948FEF7CAFA144805227E
:1021B000C02100F037FAD8F83430124A124806210C
:1021C00013F0FEFD1048FEF75BFB0F490246104876
:1021D000FEF7B6FA0F4801F0C7FD094802B0BDE8A6
:1021E000F04701F0C1BD0C480CF0D0F80023C0E767
:1021F000F0BE0108F4410020201300203A13002013
:10220000EC120020E0BB0108E44100207D13002017
:10221000AC13002060BB0108C8BB0108EC13002010
:10222000C0BB010810B504462E480CF0AFF8A4F16D
:10223000300009280DD8DFE800F0152405440538E2
:102240000C0C0C0600BFFFF733FFBDE8104001F097
:10225000A5BD254801F088FDFFF72AFFBDE8104025
:1022600001F09CBD214B224800221A7001F07CFD38
:10227000204801F079FDFFF71BFFBDE8104001F099
:102280008DBD1D4C1D49207804281ABF0130C0B2F5
:1022900000202070086808F01BFC00F0F1FDFFF73B
:1022A00007FFBDE8104001F079BD00F091FD124B31
:1022B000586300F0E5FDFFF7FBFEBDE8104001F0BC
:1022C0006DBD00F075FD0C4A01460D48D1620CF061
:1022D0005DF800F0D5FDFFF7EBFEBDE8104001F022
:1022E0005DBD00BFE4BB0108C4BE01088D430020F2
:1022F00060BB010830BE0108EC130020FC43002045
:10230000F8BB010830B5044683B03B480CF03EF8FA
:10231000A4F13000092806D8DFE800F00D1B2933AE
:10232000050505050562354801F01EFD03B0BDE851
:10233000304001F033BD324D32480021297001F0A8
:1023400013FD314801F010FD03B0BDE8304001F04D
:1023500025BD2B4C2B480123237001F005FD2B4894
:1023600001F002FD03B0BDE8304001F017BD244983
:1023700002220A70FFF79CFE03B0BDE8304001F076
:102380000DBD234B23491A78234D244C1C48002AA9
:1023900008BF0D46032202702E21204600F042F9AC
:1023A000AB78288884F8303020226421E0852046EC
:1023B00000F038F9FEF726FF0190FEF761FA019967
:1023C000024604F16400FEF7BBF90E4801F0CCFCB4
:1023D000204601F0C9FC03B0BDE8304001F0DEBC8E
:1023E000084801F0C1FC0E4801F0BEFC03B0BDE896
:1023F000304001F0D3BC00BF08BC0108C4BE0108D6
:102400008D43002060BB010830BE0108F0110020A0
:1024100004440020A8BB0108A4BB0108441100200B
:10242000DCBC010800BFFDE700BFFDE700B55F4A67
:102430005F49604883B01023CDE9003201234FF497
:10244000807209F0F5F9012804D05B484FF4DC7183
:1024500000F0E8FB594A5A495A484FF0100CCDE9B0
:1024600000C201234FF4807209F0E2F9012804D080
:1024700051484FF4E07100F0D5FB534A534954489A
:102480004FF0090ECDE900E201234FF4807209F00C
:10249000CFF9012804D0484840F2C91100F0C2FB2E
:1024A0004C4A4D494D482823CDE9003201234FF4D1
:1024B000807209F0BDF9012804D03F484FF4E9715A
:1024C00000F0B0FB464A474947484FF0200CCDE9A1
:1024D00000C201234FF4807209F0AAF9012804D048
:1024E000354840F2DB1100F09DFB404A404941482D
:1024F0004FF0280ECDE900E201234FF4807209F07D
:1025000097F9012804D02C484FF4F27100F08AFBAF
:10251000394A3A493A482123CDE9003201234FF4A0
:10252000807209F085F9012804D0234840F2ED11AA
:1025300000F078FB334A344934484FF0210CCDE9A0
:1025400000C201234FF4807209F072F9012804D00F
:1025500019484FF4FB7100F065FB012100224FF494
:10256000007008F053FA2A49086090B10022012156
:102570004FF4F07008F04AFA264B186078B1264AFA
:102580002648002106F0E4FA254A106003B05DF801
:1025900004FB094840F2F91100F044FBE6E7064865
:1025A0004FF4FE7100F03EFBE9E700BFF04300206E
:1025B0001CBC0108211C000828BC0108F8430020AD
:1025C00068BC0108B51C0008C442002074BC0108A6
:1025D000591C0008C042002080BC0108D11B000823
:1025E000BC4200208CBC0108091D000800440020EA
:1025F000A0BC0108851E0008F0410020A8BC01080D
:10260000211E000888430020B4BC0108A11D000859
:10261000F4430020FC4300200CBE0108C51B000849
:10262000EC4100200B4611448B4203D22021184478
:1026300013F0ECBD704700BF2DE9F04100248CB0D1
:10264000CDE90644CDE908444A4B00940A941A6B3C
:10265000494EDFF8348142F010001863196B01F025
:1026600010050095009A01941F6B47F004021A634D
:10267000186B00F004010191019A02941D6B45F062
:1026800080071F631A6B02F080000290029A039485
:10269000196B41F001051D631F6B07F001020392E6
:1026A000039A0494186B40F0020119631D6B05F046
:1026B00002070497049A05941A6B304F42F0080001
:1026C00018631B6B03F00801059122463046082170
:1026D000059B02F0E9FB01221146404602F0E4FBB3
:1026E00022463846102102F0DFFB0125082206A908
:1026F00030460692CDE90844079502F049FA404673
:1027000006A9CDE90655CDE9084402F041FA06A92B
:1027100001224FF490131A480894CDE9062302F0E1
:1027200037FA042206A9002316480894CDE90623A7
:1027300002F02EFA06A9384610230693CDE9084484
:10274000079502F025FA384606A920220023CDE994
:102750000623089402F01CFA02224FF4901306A9F3
:102760003046CDE90623089402F012FA0CB0BDE819
:10277000F08100BF0038024000100240000C02400F
:10278000000002400004024000080240194B1A6891
:1027900010B50C462AB91848184A1949101A086089
:1027A000186009F039FC154B6A46012808BF13462A
:1027B000EFF3118C4FF0500282F31188BFF36F8F4B
:1027C000BFF34F8F0F4A1068011999420BD811605F
:1027D0000B4A1368191B11600B4A136823441360DA
:1027E0008CF3118810BD8CF31188FFF71DFE4FF09C
:1027F000FF3010BD084400204080002000FC012074
:102800000C4400203814002014440020EFF31182FF
:102810004FF0500383F31188BFF36F8FBFF34F8FD7
:10282000014B1A60704700BF10440020024B18682B
:1028300080F31188704700BF1044002011F08ABC5B
:1028400011F090BC10B50B480B4C0C4900234FF411
:102850008042C0E90041C0E90233C0E90423C0E975
:102860000633036202F03AFB00B910BDBDE8104028
:1028700000F0D6B91844002000540040801A060029
:1028800030B5184B026889B000249A42CDE9024461
:10289000CDE90444069401D009B030BD124D009436
:1028A000286B40F002032B632A6B02F002000090B9
:1028B0004FF410721223CDE9022302A9009A0B48AB
:1028C000012304220493069202F062F90194296C18
:1028D00041F400142C642D6C05F400100190019B50
:1028E00009B030BD005400400038024000040240EE
:1028F0000D480E490E4A10B500234FF440744FF0B6
:10290000100C4FF0080EC0E9014CC0E90333C0E9D8
:10291000051EC0E90733026002F030FC00B910BDAB
:10292000BDE8104000F07CB92C45002000EE02000C
:102930000038004010B50B480B4C0C4900234FF4F5
:102940000072C0E90042C0E90233C0E90421C0E9D5
:102950000633036202F012FC00B910BDBDE810405E
:1029600000F05EB974450020003C00400077010093
:10297000F0B50368664A8DB000249342CDE9064461
:10298000CDE9084405460A9404D0624883425DD0EC
:102990000DB0F0BD604E0094376C47F48042326455
:1029A000306C00F480430093009A0194316B41F045
:1029B00004073763326B02F004000190019A02941D
:1029C000336B564843F002013163366B06F0020761
:1029D000029708220527022306A9CDE906230A97B4
:1029E000029B4F4E02F0D4F84FF4A05202234D4800
:1029F0000A9706A9CDE90623CDE9084402F0C8F8F4
:102A000049487462C6E900044FF400334FF4807003
:102A1000C6E907034FF480614FF400674FF400529A
:102A20003046C6E90244C6E90572316101F0BAFDDB
:102A3000002867D100220521EE632420B56301F050
:102A400031FD242001F078FD0DB0F0BD3249039432
:102A50000E6C46F400470F640B6C03F400420392C3
:102A6000039A0494086B40F001060E630F6B07F0A5
:102A700001030493049A05940A6B42F0040008636E
:102A8000096B2A4801F00406059610220627022346
:102A900006A9CDE906230A97059B254E02F078F892
:102AA0004FF4A45202231D480A9706A9CDE9062334
:102AB000CDE9084402F06CF81E484021C6E9000444
:102AC0004FF480734FF40050C6E90603B1604FF431
:102AD00080674FF400624FF400313046C6E9034787
:102AE000C6E90814726101F05DFD70B9AE630022A1
:102AF00005213320B56301F0D5FC332001F01CFD26
:102B00000DB0F0BD00F08CF894E700F089F8EDE727
:102B100000380040003C00400038024000080240FD
:102B20006C44002000040240586002400000024053
:102B3000CC440020B860024030B5002395B0CDE908
:102B40000A33CDE90C33CDE90333CDE9053322490E
:102B500001930793086C214A40F080540C640D6C7B
:102B600005F08051019101990293136843F4804468
:102B70001460126801204FF48031CDE9080102F49D
:102B80008040082102900298109102200721CDE98F
:102B9000120102244FF480054FF4A87308A8CDE970
:102BA0000E45119302F0CCFF08B172B6FEE78446E1
:102BB0004FF00F0E4FF4A0554FF4805203A805219B
:102BC000CDE903E4CDE905C5079203F069FA08B140
:102BD00072B6FEE715B030BD00380240007000400C
:102BE00000B59FED097B85B00022022368468DED7C
:102BF000007BCDE9023203F0A9FB08B172B6FEE713
:102C000005B05DF804FB00BF01000000C00000003B
:102C10000368B3F1804F00D0704701F001BC00BFE2
:102C200072B6FEE708B505460C4672B6034E22465C
:102C3000294630460BF0AAFBF9E700BF48C001085F
:102C400008B501F0D3FBFFF777FFFFF7C9FFFFF7E8
:102C5000F3FCFEF7CBF9FFF7F5FDFFF76BFE00F095
:102C600081FB00F07DF800F0E3FF00F0BDFDFEF712
:102C700093F90BF0BBFDFFF73BFE01F0BDFA00F04E
:102C80006BFD0BF0B9FC06480BF080FB05F034FF40
:102C9000FFF7CCFB05F042FF02488621FFF7C2FF99
:102CA00074C001088CC0010802490348602202F088
:102CB0007FBB00BFC84200202C450020104B02689B
:102CC0009A4200D0704710B582B0002401940AF0F7
:102CD000B3FE0C480C4B00681C7001A909F036FCCF
:102CE0000BF026FA019949B14FF0E02C4FF08052D9
:102CF000CCF8042DBFF34F8FBFF36F8F02B010BD20
:102D00000038004088430020BC450020114B026879
:102D10009A4200D0704700B583B0002001900AF0BD
:102D20008BFE0D490D4B0868302201A91A7009F07D
:102D30000DFC0BF0FDF9019848B14FF0E02C4FF07D
:102D40008051CCF8041DBFF34F8FBFF36F8F03B0DA
:102D50005DF804FB0038004088430020BC4500209B
:102D6000054808B5054B036003F01AFC00B908BD1F
:102D7000BDE80840FFF754BFC045002000080650DA
:102D8000094B02689A4200D0704782B00748002180
:102D90000191436B43F040024263406B00F04001FD
:102DA0000191019B02B070470008065000380240B4
:102DB000054A0648136801330A2BC8BF0023136075
:102DC00050F82300704700BFD0450020604D002020
:102DD000054A0648136801330A2BC8BF0023136055
:102DE00050F82300704700BF544D00208C4D002048
:102DF0000F4B10481049114A10B4114CC3E900019F
:102E00006FF0C70C0020C3E90242C3E904C0C82424
:102E10004FF4C8724FF4167C4FF448714FF47A7037
:102E2000C3E90642C3E908C15DF8044B98627047E4
:102E30008C4D002018FCFFFFE0FCFFFF70FEFFFF41
:102E4000A8FDFFFF0C4900230122022009E0013305
:102E50000A2B0FD041F8230001330A2B4FF0040254
:102E600008D0012A41F82320F1D001330A2B02F1C6
:102E70000202F6D1704700BF604D00200000000044
:102E80002DE9F84F984BDFF87882D3ED0B7A93ED6C
:102E90000D0A2DED068BF8EEE79AB8EEC09AD3ED49
:102EA0000CAADFED928A9FED92AA08F5F06B03F170
:102EB000280518EE900AFDF731FB89A3D3E900231A
:102EC000FDF74CFDDFF820929FED888A06460F46FD
:102ED0004C46B4F90200002857DDFDF70DFB3246E1
:102EE0003B46FDF73BFDFDF771FB00EE100A17F0C6
:102EF0004BFCB4F90400002838EE008A45DDFDF7EC
:102F0000FBFA32463B46FDF729FDFDF75FFB00EE7D
:102F1000100A17F039FCB4F90600002838EE008AD0
:102F200033DDFDF7E9FA32463B46FDF717FDFDF7C5
:102F30004DFB00EE100A17F027FCB4F9080000283A
:102F400038EE008A21DDFDF7D7FA32463B46FDF721
:102F500005FDFDF73BFB00EE100A17F015FC34F9F8
:102F60000A0F002838EE008A0FDDFDF7C5FA324659
:102F70003B46FDF7F3FCFDF729FB00EE100A17F0C6
:102F800003FCA54238EE008AA3D1F0EE490AE9EE2F
:102F9000880A78EEAA8A20EE8A1AFDEEC11A11EE8E
:102FA000900A28F8020FC34583D1A5EB0902911EB0
:102FB0004F08504E013717F00704B6F900A043D070
:102FC000012C2CD0022C23D0032C1AD0042C11D08D
:102FD000052C08D0062C7BD139F9022F002A22DDDE
:102FE0009245A8BF924639F9021F00291BDD8A4588
:102FF000A8BF8A4639F9027F002F14DDBA45A8BF61
:10300000BA4639F9024F002C0DDDA245A8BFA246F1
:1030100039F9020F002806DD8245A8BF824639F93A
:10302000022F002A47DC47F6FF75AA45A6F800A044
:1030300047D0BDEC068B304E4BF6803797FBFAF449
:1030400023B23360BDE8F88FB9F902100029EADD38
:10305000B9F904208A45A8BF8A46002AE3DDB9F9F8
:1030600006709245A8BF9246002FDCDDB9F90840F2
:10307000BA45A8BFBA46002C0FFA8AFAD3DDB9F9CF
:103080000A30A245A8BFA246002BCCDDB9F90C003E
:103090009A45A8BF9A460028C5DDB9F90E108245A9
:1030A000A8BF82460029BEDD39F9102F8A45A8BF86
:1030B0008A46002AB7DD9245A8BF92464D45C3D146
:1030C000B1E70E484E21FFF7ADFDB6F900A0B0E71D
:1030D00039F9020F0028A6DD8245A8BF82467BE7AA
:1030E000182D4454FB211940EC130020000000006F
:1030F00000007A443C1400205C4D0020C8C0010848
:10310000D245002038B5094D09492C68094801EB22
:1031100044016022FDF714FB074B186830348442E9
:10312000A8BF00202C60A8BF286038BD584D0020E3
:10313000D4450020904300205C4D00202E4B986B1E
:103140002DE9F04300EB40012C4F00220B01511CF4
:10315000D51C141D02F1050E02F1060CD01D961CA3
:1031600092FBF3F891FBF3F903FB182803FB191109
:1031700096FBF3F903FB196695FBF3F903FB19556D
:1031800094FBF3F903FB19449EFBF3F903FB19EEDF
:103190009CFBF3F903FB19CC90FBF3F903FB19003B
:1031A00008EB880801EB810106EB860605EB850537
:1031B00004EB84040EEB8E0E0CEB8C0C00EB800009
:1031C00008324FEA88098900B600AD00A4004FEA32
:1031D0008E0E4FEA8C088000302AA7F80290B98042
:1031E000FE803D817C81A7F80CE0A7F80E8027F8CF
:1031F000100FACD1BDE8F083EC1300208E4300200B
:103200002DE9F04F324D334F4FF0000C0CF101001F
:10321000A7FB0C31A7FB003A0CF103090CF10408E1
:103220000CF102048908A7FB0436A7FB093201EB65
:103230004101A7FB08B34FEA9A0B0BEB4B0AB60808
:10324000ACEB41010CF1050EA0EB4A00033906EB93
:10325000460B9208A7FB0EA6033802EB4202002998
:103260004FEA9303A4EB4B04A4F1030403EB4303E1
:10327000B8BF4942B6080028A9EB4209A9F10302E8
:10328000B8BF404206EB460A002CA8EB4308A8F161
:103290000303B8BF6442AEEB4A0E002AAEF1030E40
:1032A000B8BF5242002BB8BF5B420CF1060CBEF116
:1032B000000FB8BFCEF1000EBCF1300F6980A880BE
:1032C000EC802A816B8125F80CEF9FD1BDE8F08F4F
:1032D0008E430020ABAAAAAA0E490F4810B50324BA
:1032E0000C8001224FF0000EA0FB02C39B0803EBF1
:1032F000430CA2EB4C03022B02F1010204DC302A46
:1033000021F8024FF0D110BD302A21F802EFEBD1A5
:1033100010BD00BF90430020ABAAAAAA0F4A104BD1
:10332000B2F92C10002261F30F0261F31F4203F186
:1033300060009C4620334CF8042B984243F81C2C28
:10334000CCF8042043F8142C43F8102C43F80C2C30
:1033500043F8082C43F8042CEBD17047EC13002001
:103360009043002010B50E480E4C4FF4827200239B
:10337000C0E900424FF400710A24C0E90233C0E9F9
:103380000433C0E90613C0E90833C0E90A3403F086
:103390002FF900B910BDBDE81040FFF741BC00BFD8
:1033A000B84D00200030014000B51D4A016889B0C9
:1033B00000239142CDE90233CDE90433069302D0D4
:1033C00009B05DF804FB02F5843C0093DCF844008E
:1033D00040F48052CCF84420DCF8440000F48052E1
:1033E000009200980193DCF8303043F00100CCF8F3
:1033F0003000DCF830200B489FED077B02F0010322
:10340000019302A905238DED027B019A069301F039
:10341000BFFB09B05DF804FBE00000000200000003
:10342000003001400000024082B00E4B00220092AA
:10343000596C41F480405864586C00F4804000900E
:1034400000980192186C40F0805018641B6C03F0D7
:1034500080500190019B0F216FF0010002B001F03C
:1034600021B800BF0038024070B588B0244B00225C
:103470000292196C054641F0010018641C6C04F0BE
:103480000106029601A903A8029B02F03DFF069BDC
:10349000E3B902F015FF01461A4A1B4CA2FB0120BA
:1034A000860C002206F1FF3C4FF0804340F2E731EA
:1034B0002046C4E9003C2261A260A261E16003F001
:1034C000D1FA064630B1304608B070BD02F0F8FEC1
:1034D0004100E1E7204603F0C5FB06460028F2D193
:1034E0001C2001F029F80F2D01D90126EBE7074C2C
:1034F000324629461C2000F0D5FF2560E3E700BFD7
:103500000038024083DE1B43104E00205C14002074
:10351000FEE700BFFEE700BFFEE700BFFEE700BF1B
:10352000FEE700BF704700BF014801F059BA00BF75
:10353000584E0020014801F053BA00BF6C440020EF
:10354000014801F04DBA00BFB84F0020014801F01A
:1035500047BA00BF18500020014803F02DBF00BF3C
:10356000104E0020014801F09DBF00BF2C450020F7
:10357000014804F043BD00BF78500020014801F02D
:103580002FBA00BFCC440020014801F08BBF00BF20
:103590007445002000200DF083BE00BF012070475D
:1035A00008B512F043FF162303604FF0FF3008BD4B
:1035B00008B512F03BFF16230360FEE7F8B5161EB0
:1035C0004EDD16F007030C4601EB060725D0012B54
:1035D0001DD0022B17D0032B11D0042B0BD0052BA1
:1035E00005D0062B3ED1AFF3008004F8010BAFF3FA
:1035F000008004F8010BAFF3008004F8010BAFF377
:10360000008004F8010BAFF3008004F8010BAFF366
:10361000008004F8010BA74222D0AFF300802546BA
:10362000083405F8010BAFF300802870AFF3008079
:1036300004F8060CAFF3008004F8050CAFF300802B
:1036400004F8040CAFF3008004F8030CAFF300801F
:1036500004F8020CAFF30080A74204F8010CDCD19F
:103660003046F8BDAFF3008004F8010BBBE700BFA4
:10367000F8B5151E4EDD15F007030C4601EB0507E6
:1036800025D0012B1DD0022B17D0032B11D0042BDA
:103690000BD0052B05D0062B3ED114F8010BAFF350
:1036A000008014F8010BAFF3008014F8010BAFF3A6
:1036B000008014F8010BAFF3008014F8010BAFF396
:1036C000008014F8010BAFF30080BC4222D02646E4
:1036D000083416F8010BAFF300803078AFF30080A8
:1036E00014F8060CAFF3008014F8050CAFF300805B
:1036F00014F8040CAFF3008014F8030CAFF300804F
:1037000014F8020CAFF3008014F8010CAFF3008042
:10371000BC42DCD12846F8BD14F8010BAFF30080A1
:10372000BBE700BF4FF0FF30704700BF4FF40053BE
:103730004B600020704700BF012070470020704799
:10374000034AD2F8883043F47000C2F8880070470A
:1037500000ED00E00000000000B52148214A0260B1
:103760008BB0002348F23F3141F2873CCDE9003372
:10377000CDE90233CDE90433CDE90633C0E9023C9B
:10378000089341600361836103F0E8FAC0B9002245
:10379000002313486946CDE9002304F0C7F8B8B9FF
:1037A0009FED0D7B002204230D48049202A98DEDAC
:1037B000027B069303F02AFF28B90BB05DF804FBE7
:1037C000FFF72EFAE3E7FFF72BFA0BB05DF804FBE7
:1037D000FFF726FAE4E700BF60000000C40900001C
:1037E000B84E00200004004010B5414C414A226010
:1037F00092B048F23F300023606041F2873180226E
:103800002046CDE90233CDE90A33CDE90C33CDE9C9
:103810000E33C4E9023110932361A26103F09EFAD2
:10382000002834D100220023314802A9CDE9022327
:1038300004F07CF8002839D1602040F6C411CDE9AD
:103840000A0100222A480C920AA90E9203F0DEFE19
:1038500048BB274804220AA903F0D8FE00BB24482D
:1038600008220AA903F0D2FEB8B921480C220AA9FD
:1038700003F0CCFE70B91F48246800238442CDE9D0
:103880000433CDE90633089313D012B010BDFFF70F
:10389000C7F9C7E7FFF7C4F9EDE7FFF7C1F9E4E7B8
:1038A000FFF7BEF9DBE7FFF7BBF9D2E7FFF7B8F99F
:1038B000C2E700F50C3C0193DCF8301041F008023F
:1038C000CCF83020DCF830009FED077B00F00804D6
:1038D000019402230848019A089304A98DED047B02
:1038E00001F056F912B010BD00F000000200000017
:1038F000004F002000080040000C024030B5264A6E
:103900000368934283B012D02448834201D003B0AD
:1039100030BD2349002401940D6C45F004020A6473
:103920000B6C03F004000190019B03B030BD02F565
:103930000D3C00230093DCF840101A4D41F00202C8
:10394000CCF840200446DCF84000AB6000F00201F7
:103950000091154900984FF0206E4FF48060C5E942
:10396000001EC5E903304FF400624FF4005C4FF4D1
:1039700080714FF4803E2846C5E906C1C5E908E3D9
:103980006A6100F00FFE20B925632562AC6303B0C5
:1039900030BDFFF745F9F7E700040040000800409C
:1039A00000380240584E00204060024008B50B46E7
:1039B000014605481BB103F0D1FA002008BD03F011
:1039C0000DFC002008BD00BF004F002008B50020FE
:1039D0000BF0CCFF054B0BB1AFF30080044B054956
:1039E00001224FF4FA401A70086008BD0000000080
:1039F000494F0020504F002008B5094B094918686D
:103A000060224FF0FF3307F06DF908B9012008BDBF
:103A100082B2044900200AF065FF012008BD00BF02
:103A2000FC430020544F0020704700BF704700BF88
:103A3000704700BF704700BF4B88D8B210B1024931
:103A400002220A7001207047484F00200020704772
:103A50000020704791F801C0BCF1010F0DD100B5F5
:103A60008B88B1F802E01B0A022B4FEA1E2006D019
:103A7000042B21D000205DF804FB002070470128B2
:103A80005FFA8EFEC3B220D0022B0BD1C888022869
:103A9000F0D113785178144A43EA012022F81E002D
:103AA0006046E8E74FF0E02CDCF8F03D13F0010051
:103AB000E1D000BE0020DEE70128F3D1C988042947
:103AC000D8D10A4B12681A60D5E7C8880128D1D12D
:103AD00092F90010064AB1F1000C18BF4FF0010C2A
:103AE00002F80EC0C7E700BFB44F0020504F0020BF
:103AF0004C4F0020002070470020704770B58A8826
:103B0000150A4A88012D8AB04FEA12261CD0022DD0
:103B10000C46F3B25FFA85FE05D0BEF1040F34D037
:103B200000200AB070BD012E5FFA82FC25D0022B66
:103B300015D04FF0E020D0F8F03D13F00100F0D0A8
:103B400000BE00200AB070BD022EF2D1002606236E
:103B50006A460095ADF804600BF090F9E1E74E7805
:103B6000012E19D0022EE4D1294C2A4D08236A4691
:103B7000CDE900450BF082F9D3E7274A334662448A
:103B80000AB0BDE870400CF09DBD012E08D0022B9C
:103B9000CFD1224A0123F3E7214A02EB4C02EFE79F
:103BA0004B78012B30D0022BC3D105461E220021B9
:103BB00002A812F02BFB00234FF4FA420321ADF8C8
:103BC0000010ADF802202146ADF804304BF68034E9
:103BD000ADF80620ADF80830ADF81030ADF814306F
:103BE000284626234FF4EE456A46ADF80E40ADF860
:103BF0001240ADF81A50ADF81C60ADF81E50ADF88B
:103C000020600BF03BF98CE7064A7346B8E700BF2B
:103C10000100A6FF1E0001004C4F0020494F00206C
:103C2000B44F0020504F0020012070470120704702
:103C300010B50B480B4C00234FF4E1310C22C0E9C6
:103C40000041C0E90233C0E90432C0E9063303F0A1
:103C5000A3FF00B910BDBDE81040FEF7E1BF00BFF3
:103C6000785000200044004070B5394B026888B09D
:103C700000249A42CDE90244CDE90444069401D0DF
:103C800008B070BD054603F5FA300094066C46F4A2
:103C900000330364026C02F400360096009A01942B
:103CA000036B43F001020263006B0C2200F001067B
:103CB0000223CDE90223019607222648264E0692CA
:103CC00002A903230593019B00F062FF234974625C
:103CD0004FF00060C6E900104FF480624FF480336B
:103CE0003046C6E90244C6E90424C6E90644336204
:103CF00000F058FC28BB1A4C1A49AE630023402040
:103D0000B5634FF00066C4E90016C4E902034FF43E
:103D100080624FF480312046C4E90533C4E907319D
:103D20002261636200F03EFC70B96C6300220521E1
:103D30002620A56300F0B6FB262000F0FDFB08B0AE
:103D400070BDFEF76DFFD6E7FEF76AFFEDE700BF37
:103D50000044004000000240B84F0020886002404C
:103D600018500020A060024000B583B001460190C9
:103D700008480AF00BFB0198FCF782FD0649024651
:103D8000086801994FF4FA7303B05DF804EB06F08C
:103D9000E7BE00BF28C10108F443002008B5094967
:103DA00009480AF0F3FA094B0649186802224FF451
:103DB000FA7306F0D5FEBDE8084005490548012222
:103DC00004F0FCBA44C1010828C10108F4430020F2
:103DD000BC50002078500020104B02689A4200D05E
:103DE000704700B583B00020019009F025FE0C4B10
:103DF00001A9186808F0AAFB0AF09AF9019949B1DB
:103E00004FF0E02C4FF08052CCF8042DBFF34F8FD1
:103E1000BFF36F8F03B05DF804FB00BF00440040A8
:103E2000F0430020104B02689A4200D0704700B562
:103E300083B00020019009F0FFFD0C4B01A9186828
:103E400008F084FB0AF074F9019949B14FF0E02CB5
:103E50004FF08052CCF8042DBFF34F8FBFF36F8F1C
:103E600003B05DF804FB00BF00440040F8430020AD
:103E70000048704738C20108004870477CC10108FB
:103E80002DE9F04F8FB0002800F08280032800F069
:103E90008B80042800F29781D34CDFF850B354F89C
:103EA00020703846FCF7ECFC2028014628BF202172
:103EB000002800F090813A46DA4612F8013B2AF8D1
:103EC000023FD61B01F1FF39B14209F00700BC46A1
:103ED00052D960B3012821D002281BD0032815D065
:103EE00004280FD0052809D006281CBF1CF8010F94
:103EF0002AF8020F1CF8014F2AF8024F1CF8015F44
:103F00002AF8025F1CF8018F2AF8028F1CF801EFD3
:103F10002AF802EF1CF8019F2AF8029F604602303F
:103F2000C21B1CF8013F2AF8023F914224D99CF899
:103F30000160AAF802609CF80240AAF804409CF8CC
:103F40000350AAF806509CF80480AAF808809CF850
:103F500005E0AAF80AE09CF80690AAF80C909CF8F4
:103F60000700AAF80E000CF10902D31B1CF8086F19
:103F70002AF8106F9942DAD84F1C790041F4407446
:103F8000A5B200959948ABF800500FB0BDE8F08F8E
:103F9000954BDFF858B218684FF4417201880092CF
:103FA000ABF802101546EDE7914C002C00F0FE80B6
:103FB0000DF1180910214846AFF30080102806467D
:103FC00028BF10260196002800F0FF80B0000230C4
:103FD00040F4407291B2009119F8018B019D854C1B
:103FE000DFF808B208F00F0A0AF138036F1E07F075
:103FF00003050DEB030794E80F000DF1280C8CE886
:104000000F000EAE06EB1816019917F8100C16F8F3
:10401000102CABF804004FF0010A8A450BF104089C
:10402000ABF8022080F0C080002D57D0012D37D092
:10403000022D1AD019F8013B03F00F0505F13807DE
:104040000EAE0DEB070506EB131794E80F008CE896
:104050000F0015F8100C17F8102CA8F80400A8F899
:1040600002204FF0020A08F1040819F8011B01F0C0
:104070000F0303F138050EAE0DEB050706EB111526
:1040800094E80F008CE80F0017F8100C15F8102CAE
:10409000A8F80400A8F802200AF1010A08F10408AF
:1040A00019F8011B01F00F0303F138070EAE0DEBF9
:1040B000070506EB111794E80F008CE80F00019933
:1040C00015F8100C17F8102CA8F804000AF1010AD2
:1040D0008A4508F1040828F8022C65D2CDF814B0FE
:1040E0004E4699F8015016F801BB0DF1380E05F057
:1040F0000F030EEB15100BF00F020EAD38330DEB66
:10410000030702F1380105EB1B13039704900DEB35
:104110000107029394E80F008CE80F0008F10405F2
:1041200008F1080B08F10C0E08F1100817F8100C34
:1041300028F80C0C029A7078039F049E12F8101C49
:1041400017F8103C16F8102C28F80E1C09F1040979
:10415000AB806A8000F00F0505F138010EAB19F84D
:10416000015C0DEB010703EB101005F00F0110F8D7
:10417000102C17F8106CABF802203831ABF8046043
:104180000EAF0DEB010B07EB15101BF8103CAEF852
:10419000043010F8106C019AAEF802600AF1040ABB
:1041A00092459DD3DDF814B0009DEBE60CA6D6E950
:1041B000005640F222370823CDE90073CDE90656B8
:1041C0000DF1180908E70020DFE640F20235DFF8BC
:1041D0001CB00095D6E640F202350095D2E600BF4D
:1041E0000123456789ABCDEF44140020C452002061
:1041F0000000000048C101089FED0F7B9FED100BF0
:10420000114810B504224FF0A0440023C0E9004239
:104210000221012480ED067B80ED080BC160C462A1
:104220000361036301F03CFB00B910BDBDE8104021
:10423000FEF7F6BCAFF300800200000001000000B2
:1042400000000000000000000853002070B5036863
:1042500088B00024B3F1A04FCDE90244CDE9044475
:10426000069401D008B070BD224D0094286B40F038
:10427000010129632A6B204802F0010602234FF452
:104280008072CDE90223009602A90A260323059332
:104290000696009B00F07CFC002302A94FF40072FC
:1042A00015480494CDE9022300F072FC02224FF479
:1042B000E050CDE9020202A90F480696CDE9044478
:1042C00000F066FC696B41F080066E6301946B6CD4
:1042D000224643F480446C646D6C05F480460521ED
:1042E00001964320019B00F0DDF8432000F024F903
:1042F00008B070BD0038024000000240DFF834D042
:104300000D480E490E4A002302E0D458C45004332D
:10431000C4188C42F9D30B4A0B4C002301E0136004
:104320000432A242FBD3FFF70BFA12F085F8FEF736
:1043300087FC70470000022000000020781B00204E
:1043400090D00108781B002040800020FEE700008C
:1043500010B568B104460C200FF0FCFE0346206047
:1043600058B10022002000211A72C3E9000110BDDB
:1043700012F05CF81621016010BD72B6FEF750FC19
:10438000FEE700BF0FF0EEBE08B5A8B1037A012B1F
:104390000ED85A1C0272EFF311824FF0500181F3D4
:1043A0001188BFF36F8FBFF34F8F40F8232008BDF4
:1043B00072B6FEF735FCFEE772B6FEF731FCFEE79B
:1043C00008B570B1037A591ECAB2012A027204D824
:1043D00050F8220080F3118808BD72B6FEF720FC69
:1043E000FEE772B6FEF71CFCFEE700BF08B50B4BFC
:1043F0001A6842F4007119601A6842F48061196009
:104400001A6842F480711960032000F02DF80F2023
:10441000FFF72AF8FFF708F8002008BD003C02402B
:10442000034A044B1168187808441060704700BFB5
:104430002C58002058140020014B1868704700BF0A
:104440002C58002038B50446FFF7F6FF631C0546DC
:1044500002D0044B18780444FFF7EEFF411BA14241
:10446000FAD338BD58140020C31E042B10B50446DF
:104470000ED80A49CA6824024FF6FF0004F4E0632C
:104480000240134343F0BF6444F40032CA6010BDDD
:1044900003489021FEF7C6FBEBE700BF00ED00E00C
:1044A0004CC201080F2A70B5164605460C4638D88E
:1044B0000F2C31D81D4BD868C0F30223C3F107017C
:1044C000042903F1040228BF0421062A18D9D81EA2
:1044D0004FF0FF33834026EA030C4FF0FF368E4047
:1044E00024EA06048440002D44EA0C010CDB05F1AB
:1044F000604C0E010CF56144F1B284F8001370BDFC
:104500004FF0000C6046E8E7094805F00F050A0186
:104510002844D3B2037670BD0648A921FEF782FB7A
:10452000C8E70448A821FEF77DFBC1E700ED00E0E5
:10453000FCEC00E04CC20108002808DB4109064AF7
:1045400000F01F000123834042F8213070470348E8
:10455000BC21FEF767BB00BF00E100E04CC20108D0
:10456000C8B10E4B02689A4210B5044603D00C48FD
:104570006821FEF757FB607900F0FF0118B10123B5
:104580006371002010BD20462171FCF715FD012349
:104590006371002010BD0120704700BF0030024051
:1045A000B0C2010838B50446FFF746FF002C00F002
:1045B00016812368AA4A9342054631D018329342A5
:1045C0002ED0183293422BD01832934228D0183272
:1045D000934225D01832934222D0183293421FD0F2
:1045E000183293421CD002F55670834218D018300E
:1045F000834215D01830834212D0183083420FD036
:10460000183083420CD01830834209D018308342CE
:1046100006D01830834203D09248B721FEF702FB40
:10462000616831F0C06C06D0BCF1006F03D08D48DA
:10463000B821FEF7F7FAA36833F0400240F0998002
:10464000E26832F4007340F0A080206930F48063A7
:1046500040F0A480616931F4006203D0B1F5805F5D
:1046600040F0A980A36933F4005203D0B3F5804F22
:1046700040F0AB80E06930F0200206D0B0F5807FDA
:1046800003D07848BE21FEF7CDFA226A32F44033D7
:1046900003D07448BF21FEF7C5FA616AD9B1042975
:1046A00005D07048C021FEF7BDFA636A9BB1A06ACD
:1046B000032800F2B680E26A32F0C07303D0694882
:1046C000C621FEF7AFFA216B31F4C00303D0654871
:1046D000C721FEF7A7FA236802204FF0000E84F8E6
:1046E000350084F834E01A6822F00101196005E011
:1046F000FFF7A2FE401B052855D823681868C1079C
:10470000F6D4D4E90125E168A0692A430A43D4E933
:1047100004512A430A43E1691D6802430A4352498E
:104720002940256A2A430A43616A042959D01A603C
:104730005A6922F0070001435FFA83FE4B4D59612D
:10474000AEF11000A5FB00524949150923F47F7C06
:104750004D5DE5652CF003035F2888BF04333F22DD
:104760000020AA400121A3659A60606584F8351095
:1047700038BD802B3FF464AF3A48B921FEF752FAB6
:10478000E26832F400733FF460AF3648BA21FEF7B6
:1047900049FA206930F480633FF45CAF3148BB21B3
:1047A000FEF740FA56E74FF0030E2022626584F8C8
:1047B00035E0704638BD2B48BC21FEF733FAA369BB
:1047C00033F400523FF456AF50E72648BD21FEF7C0
:1047D00029FAE06930F020023FF457AF4EE701209C
:1047E00038BDD4E90B512943114319605A6922F0AD
:1047F0000701A26A114341F00401002D9CD0A8B129
:10480000B0F5005F1DD0022A03D9032A94D1EA0132
:1048100092D54FF0010C4023636584F835C06046A3
:1048200038BD1048C521FEF7FDF944E7012A03D041
:1048300032F0020280D1EAE7B5F1C07F7FF47CAFAD
:10484000E7E7032A3FF678AF01A050F822F000BF57
:10485000134800080F4800081348000839480008AA
:104860001060024010C301083F8010F0ABAAAAAA52
:1048700070C301082DE9F843D0F8588004461E465D
:10488000581E4FF6FE739842894617463BD894F857
:104890003410012940D094F835500122954284F813
:1048A000342005D0002684F834600220BDE8F88367
:1048B00021680220002384F8350063650D6825F423
:1048C00080220A604E60A668402E0EBF8F60C1F83D
:1048D0000890CF60E76D08BFC1F80C903F20B8404A
:1048E000C8F808000B68246C43F016050D601CB175
:1048F0000A6842F008060E600F6847F001030020C6
:104900000B60BDE8F88340F2CB110548FEF78AF949
:1049100094F834100129BED10220BDE8F88300BF0D
:1049200010C3010870B50446866DFFF785FD94F845
:104930003530022B06D00025802084F83450606585
:10494000012070BD23681A68054622F01600186021
:104950005969206C21F080025A6150B31A6822F024
:1049600008001860196821F001021A6005E0FFF7DD
:1049700063FD411B052911D823681B6813F0010C46
:10498000F5D1E56D3F20A8404FF0010E0025B06045
:1049900084F835E084F83450604670BD4FF0030C65
:1049A00020220025626584F8345084F835C06046C2
:1049B00070BDA16C0029D1D1D4E700BF90F835308B
:1049C000022B03D080224265012070470268052136
:1049D00080F83510136823F0010100201160704742
:1049E000F0B583B0684A876D166800230193C36DE4
:1049F0003D6808229A402A42044603D001680868AC
:104A0000400779D401229A402A4203D020684169A4
:104A100008066BD404229A402A4203D02168086811
:104A200081075DD410229A402A4203D02168086889
:104A3000000742D420229A402A4214D025682868D0
:104A4000C00610D5BA6094F83510052964D02F68D7
:104A50002B6817F4802F7FD0190340F18B80E76B10
:104A60000FB12046B847636D2BB3606DC2071BD5ED
:104A70002268464F052184F835101568A7FB0616F5
:104A800025F00103B00A136002E01568EB0704D5B6
:104A90000199013181420191F7D94FF0010C0022B7
:104AA00084F835C084F83420E36C23B1204603B089
:104AB000BDE8F040184703B0F0BDBA600A68086866
:104AC00012F4802F22D1C20503D40A6822F0080014
:104AD0000860216C0029ADD020468847E36DA9E726
:104AE000BA60626D42F0040161659BE7BA60626D75
:104AF00042F0020060658DE7086820F0040008605D
:104B0000BA60626D42F0010161657BE70103E0D5A7
:104B1000A16C0029E0D18DE72E6826F016002860F0
:104B20006969266C21F080026A6146B3296821F028
:104B300008022A603F25216D05FA03F3BB600126B8
:104B4000002784F8356084F834700029B3D02046FB
:104B500003B0BDE8F040084713F480707FF47FAFE6
:104B60002A6822F010012960012584F8355084F864
:104B7000340074E7676C002F7FF473AF73E7A06CA9
:104B80000028D3D1D6E700BF40140020B5814E1BCA
:104B90002DE9F04FB74B984283B00746884623D0A3
:104BA00003F5806087421FD000F580618F421BD0E3
:104BB00001F58062974217D002F58064A74213D0B6
:104BC00004F58065AF420FD005F58066B7420BD083
:104BD00006F580694F4507D009F5806A574503D02F
:104BE000A548AC21FEF71EF8D8F8003098B200288E
:104BF00000F0D080190C0A04002A40F0CB80D8F8CD
:104C00000440012C0DD9B4F5041F0AD000F2E28053
:104C1000B4F5881F05D040F2D080B4F5901F40F065
:104C2000D4800026DFF874A2354605E00135102D4A
:104C300006F1020600F0AB80D8F800300124AC4049
:104C400004EA030934EA0303F0D1D8F8042002F09F
:104C50000303581E012840F2CC80032101FA06F418
:104C60006FEA040B032B23D0D8F80810022900F2B6
:104C7000D980FC68B14004EA0B000143022BF960C3
:104C800016D1D8F8100010B10D2800F28880E9087C
:104C900007EB810405F00701D4F820C089004FF02C
:104CA0000F0E88400EFA01F12CEA01010843206240
:104CB0003868B34000EA0B04234312F4403F3B60E2
:104CC000B4D06E4B00210191586C40F480445C6478
:104CD0005B6C25F0030B0BF1804C03F480410CF569
:104CE0009C33019105F003008400019999680F201D
:104CF000A04021EA00015F4887421DD0574500F0DF
:104D0000A5805F48874200F0A5805E48874200F09A
:104D1000A5805D48874200F0A5805C48874200F08E
:104D2000A5805B48874200F0BB805A4887420CBF91
:104D300007200820A04001439960574B9C68D0028F
:104D40006FEA0901544854BF0C4049EA04048460E6
:104D5000C3689402504C54BF0B4049EA0303E3601C
:104D6000636890034C4854BF0B4049EA0303436017
:104D70000468D20305F10105474A54BF0C4049EAD3
:104D80000404102D146006F102067FF455AF03B041
:104D9000BDE8F08F3848AD21FDF744FF2FE70F281D
:104DA0003FF475AF3448DE21FDF73CFFD8F804200E
:104DB000D8F8100002F0030369E7032C7FF631AF47
:104DC000A4F11106012E7FF62CAF2B48AE21FDF782
:104DD00029FF26E7B4F5441F3FF423AF24F48015E0
:104DE000B5F5081F3FF41DAF2348AE21FDF71AFFAC
:104DF00017E7D8F80C1003291DD8B8684FF0030B3B
:104E00000BFA06FC20EA0C00B1400143B960796856
:104E1000C2F3001021EA0404A84020436FEA0C0BFF
:104E200078601FE7D1211448FDF7FCFED8E9012185
:104E300002F003031DE7C0210F48FDF7F3FED8F889
:104E40000420D8F80C1002F00303D6E70120A0409C
:104E5000014371E70220A04001436DE70320A04019
:104E6000014369E70420A040014365E70520A04015
:104E7000014361E70000024078C3010800380240A6
:104E800000080240000C02400010024000140240E2
:104E900000180240001C0240003C01400004024097
:104EA0000620A040014347E770B5064615460C466C
:104EB00061B1012D03D805B92404B46170BD064861
:104EC0004FF4CF71FDF7AEFEB46170BD024840F201
:104ED0009D11FDF7A7FEECE778C30108002800F05C
:104EE0003B8103689D4A934270B504460CD002F59D
:104EF0008060834208D000F580618B4204D09848DE
:104F00004FF4DF71FDF78EFE6568964E05F1FF3CAC
:104F1000B44500F20881A36833F4804340F0DE809A
:104F2000E26822F47F7020F00301002940F0E38062
:104F3000256925F40046B6F5804F04D088484FF423
:104F4000E171FDF76FFE6369012B00F2DA80A2695F
:104F500032F0FE0340F0DF80E06930F0400304D01F
:104F60007F4840F2C511FDF75DFE216A31F08003F4
:104F700040F0A28094F83D5005F0FF06002D00F0AF
:104F8000A78023684FF0240E84F83DE01A6822F0D1
:104F900001001860196841F400451D601E6826F480
:104FA00000421A6001F08CF965686F4B9D4251D840
:104FB0006E4A904240F2B58022686D49A1FB003EE6
:104FC00051686E000138B0FBF6F321F03F0040EA73
:104FD0009E415160106A4FEA9E4C0CF1010520F091
:104FE0003F0E4EEA05051562D16940F6FC760133A5
:104FF00021F44F40334220F0FF0140F09A80042317
:105000000B43D361D4E907501668054326F0C0016D
:105010000D4315609668D4E9035326F4034020F04D
:10502000FF012B430B439360D4E90553D6681D431E
:1050300026F0FF000543D5601168002641F0010508
:1050400020231560266484F83D30266384F83E6092
:10505000304670BD4749884263D92268444E516842
:10506000A6FB003C21F03F0E4EEA9C415160424EAF
:105070004FEA9C434FF4967101FB03F3A6FB0363D5
:10508000116A9E09013621F03F031E431662D6695C
:10509000A36826F44F4C2CF0FF01002B4CD105EBFC
:1050A00045060138B0FBF6F30133C3F30B05002DC1
:1050B00050D045F40043A3E729484FF4E371FDF7CE
:1050C000B1FD94F83D5005F0FF06002D7FF459AF77
:1050D00084F83C602046FDF7D3FB52E720484FF4AC
:1050E000E071FDF79FFDE26822F47F7020F003017C
:1050F00000293FF41DAF1A4840F2C111FDF792FD9F
:1051000016E7174840F2C311FDF78CFDA26932F093
:10511000FE033FF421AF12484FF4E271FDF782FD28
:105120001AE7012070BD0E4840F2BF11FDF77AFD6D
:10513000F1E6C3F30B0363E705EB850505EB850695
:105140000138B0FBF6F30133C3F30B0515B145F499
:10515000404355E7012353E70120704700540040C6
:10516000D8C301087F1A0600A08601007F841E00B4
:1051700083DE1B43FF083D00D34D6210002800F082
:10518000038138B5834A03689342044608D002F588
:105190008060834204D0804840F21B11FDF742FD3D
:1051A000616831F4407304D07B484FF48E71FDF791
:1051B00039FDA56835F0300206D0B02D04D0764810
:1051C00040F21D11FDF72EFDE368052B00F2C680AD
:1051D0006FF02B0C4CFA03F2D30700F1BF8020696B
:1051E00030F4007340F0C48065696C4BA5F5FA514A
:1051F000994206D9022D04D067484FF49071FDF70B
:1052000011FDA26932F0080304D0634840F2211175
:10521000FDF708FDE069012804D95F484FF491715A
:10522000FDF700FD94F8415005F0FF01002D00F05E
:105230008D8025686069022284F84120E96921F4A3
:105240007B6C2CF00F039042EB612A627CD0D4E996
:10525000025100290BBF20224022102120210120D1
:10526000202D8CBF0D46154601F074F92269B2F568
:10527000007F00F08380B0FBF5FE0EEB8E00430054
:1052800047486169B3FBF1F50535A0FB0513180923
:10529000811EFD29C3F3C00C50D8256840EA0C20BC
:1052A00002432A62D4E90130EA6922F47B610343B4
:1052B00021F00F02E068A16913430343206A0B4306
:1052C00043F400630128EB6105D9334840F2BD1176
:1052D000FDF7A8FC206A01282AD125682D4A31490A
:1052E0003148954218BF4FF040210225CB696063D9
:1052F00023F47B6222F00F00C8610D626368CD6900
:10530000B3F5007FAAB2D4E902051CBFB3FA83F358
:105310005B0940EA050014BF1B024FF4807303438E
:10532000A069034313431FFA83FC4CF40063CB6171
:1053300000200121606484F8411038BD626C42F0A5
:1053400010050120656438BD2269A9E7174B84F870
:10535000401063632046FDF70BFB6AE70E484FF4ED
:105360008F71FDF75FFC206930F400733FF43CAFB0
:10537000094840F21F11FDF755FC35E7E3682BB1F2
:10538000AD00B0FBF5FE78E701207047E900B0FB07
:10539000F1FE72E70038004038C40108C0CE0200B8
:1053A000CDCCCCCC0034004025560008E154000898
:1053B00000294ED0002A4CD030B590F84030012B57
:1053C00083B004464CD0012084F8400094F841504A
:1053D000012D4CD1002325684FF0040C84F841C006
:1053E0006364E869E16200F007002823C340D8073E
:1053F00038D422866286E06B274AC263EA69274B6B
:10540000036402F4407E264BC364BEF5407F06D1A0
:1054100000230193EA680192AB680193019BB4F801
:1054200030C00A461FFA8CF305F10C01FFF722FA8F
:1054300018BB2568E969490503D4EA6942F4806329
:10544000EB616968CA0706D5002584F8405003B0AF
:1054500030BD012070476A6842F001036B60F3E7DA
:105460000220F4E7520090B220866086C3E7002154
:10547000022084F8401003B030BD606C4FF0010E84
:1054800040F008024FF0000C7046626484F841E07E
:1054900084F840C003B030BDB9540008AD540008D2
:1054A000F5550008436B1847704700BF08B5806B7F
:1054B000FDF704FC08BD00BF08B5C369806B4BB99C
:1054C00001684A684FF0010C22F001024A604386ED
:1054D00080F841C0FDF71AFC08BD00BF704700BF4F
:1054E00010B5036884B09A68019290F841100429BD
:1054F000044605D094F84100032833D004B010BD11
:10550000019AD10711D559684A060ED5C16ADA68E1
:1055100021F8022BB0F832C0C1620CF1FF318AB21F
:105520004286418E8AB2002A4DD001984106E1D5CB
:1055300023685A689206DDD55868002120F0600281
:105540005A600291D86802909B6802930121029AE6
:1055500084F84110626C42F0020320466364FFF756
:10556000BDFFC7E701998B0711D523685A6810065C
:105570000DD5606A30F8021BD960B4F82AC06062A9
:105580000CF1FF3290B26085618D8AB232B3019B1B
:105590001907B3D5206842689206AFD54368002149
:1055A00023F0A00242600391806803904FF0010C49
:1055B000039A84F841C0636C43F00401204661649F
:1055C000FFF78CFF9AE75A684FF0010E22F0600156
:1055D000596080F841E0FDF799FBA6E758684FF065
:1055E000010E20F0A0015960204684F841E0FFF749
:1055F0005BFFCCE7806B016808B54B6800224FF079
:10560000010C23F003034B604285428680F841C0C1
:10561000426C42F008014164FFF760FF08BD00BF23
:10562000704700BF10B50168854A8B6886B0044694
:105630000093844B914218BF4FF040239A68019227
:105640004A6802925A680392426832F400727CD02F
:1056500001998A071CD5039A110619D5426A911C33
:1056600012884162DA60B0F82AC00CF1FF318AB2C8
:105670004285418D8AB25AB9596821F0A0025A6018
:10568000438E99B221B9012280F84120FFF7C8FF6B
:105690000098C2071ED5029B5B061BD5E36A2268F1
:1056A000981CD168E0621980B4F832C00CF1FF3365
:1056B00098B26086618E8BB263B9506820F0600149
:1056C0005160628D93B22BB9012084F841002046CD
:1056D000FFF7A6FF009948061BD5029A910618D538
:1056E000226857485168574B21F06001824218BF29
:1056F0004FF0402351605A68012022F0A001596008
:1057000084F84100636C43F0020220466264FFF7B4
:10571000E5FE0198020772D503998B066FD52268C2
:105720004748484B824218BF4FF040234FF0010ECC
:10573000596821F0A0005860536823F0600151605F
:1057400084F841E0626C204651E0009B9A0702D544
:10575000029A130655D40198C00702D5039B590637
:1057600072D40198420623D5039A930620D5236864
:105770003349344A8B4218BF4FF040220020516811
:1057800021F0600151605A6822F0A0015960049034
:10579000D86804909B6804934FF0010E049B84F832
:1057A00041E0626C42F0020120466164FFF796FE20
:1057B0000098000723D5029B990620D5236820482E
:1057C0005968204A21F0A001834218BF4FF04022BF
:1057D00059605168002021F06001516005909B687C
:1057E00005930120059A84F84100626C204642F03E
:1057F0000402626406B0BDE81040FFF76FBE06B059
:1058000010BD436A9A1C1B884262CB60B0F82AC064
:105810000CF1FF3293B24385428D93B2002B9AD1A3
:105820004A6822F0A0034B60418E8AB2002A92D1CE
:105830004FF0010E80F841E0FFF7F2FE8BE700BF6A
:10584000003800400034004020681349134AE36ADE
:10585000884218BF4FF04022981CD168E06219803E
:10586000B4F832C00CF1FF3399B26186608E83B216
:10587000002B7FF476AF516821F060005060628D9C
:1058800093B2002B7FF46DAF012184F841102046C4
:10589000FFF7C6FE65E700BF003800400034004057
:1058A0002DE9F0418AB0002800F040810568B5F18B
:1058B000A04F044607D0A04B9D4204D09F488721AB
:1058C000FDF7B0F9256894F8BD0400F0FF02002848
:1058D00000F025812846032184F8BD14EE6B16F4F0
:1058E0008077264608BF276102F006FE56F810EBC7
:1058F000B446BCE80F00E846A8E80F00BCE80F007B
:10590000A8E80F009CE80300C8E90001271D97E8FC
:105910000E00704602F06EFD054638B102200126E9
:1059200084F8BD0430460AB0BDE8F0810146206825
:1059300002F0EAFD6068002800F0D3804FF0010E0D
:10594000431E8645C4E9125584F83C50A4F84450DF
:1059500084F84050656584F83DE003EA0E02714624
:1059600033D26AB102218142C4E91B5584F861E057
:1059700084F860E0A4F868E084F86450A56724D255
:1059800001EBC10804EB880C4B1CDAB28CF83C101C
:10599000ACF8441002EBC20104EB8103CCE91255D0
:1059A0008CF83DE08CF84050CCF8545083F83C2003
:1059B000A3F844200132D1B28142C3E9125583F8E1
:1059C0003DE083F840505D65DAD30122002384F87E
:1059D0007C52824200F1FF35C4E9A23384F87D3263
:1059E00084F88032C4F8943205F0030179D24DB2C4
:1059F00081B3012D1CD0022D0AD0C4E9AB3384F849
:105A0000A02284F8A13284F8A432C4F8B832022269
:105A100002EBC20E04EB8E08C8E9A23388F87C22A0
:105A2000013288F87D3288F88032C8F89432D2B2D8
:105A300002EBC20C04EB8C01C1E9A23381F87C2299
:105A40000132D2B2824281F87D3281F88032C1F8CF
:105A5000943246D2551C5FFA85FE0EF101015FFAC1
:105A600081F808F1010C02EBC2015FFA8CF504EB3E
:105A7000810CCCE9A2338CF87C220EEBCE0204EB35
:105A800082018CF87D328CF88032CCF8943281F827
:105A90007CE208EBC80E04EB8E0C05EBC502C1E9F5
:105AA000A23381F87D3281F88032C1F894328CF8CB
:105AB0007C8204EB8208CCE9A2338CF87D328CF82E
:105AC0008032CCF8943288F87C520135EAB28242B6
:105AD000C8E9A23388F87D3288F88032C8F8943259
:105AE000B8D30FCE6D460FC50FCE0FC596E8030095
:105AF00085E8030097E80E00206802F0C7FD06461F
:105B000000287FF40BAF012384F83800206884F864
